:020000040800F2
:10000000800B0020CD010008D71C00085B1B0008F6
:10001000D51C0008050400083B2200080000000071
:10002000000000000000000000000000F31D0008B8
:100030004905000800000000D91C0008F71F00084F
:10004000E7010008E7010008E7010008E7010008F0
:10005000E7010008E7010008E7010008E7010008E0
:10006000E7010008E7010008E7010008E7010008D0
:10007000E7010008E7010008E7010008E7010008C0
:10008000E7010008E7010008E7010008E7010008B0
:10009000E7010008E7010008E7010008E7010008A0
:1000A000E7010008E7010008E7010008E701000890
:1000B000E7010008E7010008E7010008E701000880
:1000C000E7010008E7010008E7010008E701000870
:1000D000E7010008E7010008E7010008E701000860
:1000E000E7010008E7010008E7010008E701000850
:1000F000E7010008E7010008E7010008E701000840
:10010000E7010008E7010008E7010008E70100082F
:10011000E7010008E7010008E7010008E70100081F
:10012000E7010008E7010008E7010008E70100080F
:1001300000F002F800F03AF80AA090E8000C8244BF
:100140008344AAF10107DA4501D100F02FF8AFF29C
:10015000090EBAE80F0013F0010F18BFFB1A43F0A5
:1001600001031847282B0000482B0000103A24BF39
:1001700078C878C1FAD8520724BF30C830C144BF0C
:1001800004680C607047000000230024002500264E
:10019000103A28BF78C1FBD8520728BF30C148BFEA
:1001A0000B6070471FB51FBD10B510BD00F0F8F80B
:1001B0001146FFF7F7FF02F0B7FB00F016F903B4A2
:1001C000FFF7F2FF03BC02F095FA000009488047F0
:1001D00009480047FEE7FEE7FEE7FEE7FEE7FEE729
:1001E000FEE7FEE7FEE7FEE704480549054A064B41
:1001F00070470000572000083101000880050020EA
:10020000800B002080070020800700207047B2F19B
:1002100020030AD5C2F1200320FA02F001FA03F309
:1002200021FA02F140EA0300704721FA03F04FF08F
:100230000001704740EA010370B59B072ED14FF0D3
:100240000136042A2AD308C810C99D1B9D43121FDA
:1002500015EAC61517D0D8B2E1B2401A50EA0561C6
:1002600010D198B2A1B2401A50EA05410AD123F048
:100270007F4024F07F41401A50EA052102D1180E38
:10028000A0EB146070BDA342DBD018BA21BA88423B
:1002900001D9012070BD4FF0FF3070BD0AB90020B8
:1002A00070BD10F8013B11F8014B63B1A3420AD1B4
:1002B000521E08D010F8013B11F8014B1BB1A342AC
:1002C00001D1521EEDD1181B70BD4FF0000200B5D8
:1002D000134694469646203922BFA0E80C50A0E869
:1002E0000C50B1F12001BFF4F7AF090728BFA0E817
:1002F0000C5048BF0CC05DF804EB890028BF40F8E3
:10030000042B08BF704748BF20F8022B11F0804F24
:1003100018BF00F8012B70474FF0013C50F8042B38
:1003200051F8043B9A4221D1A2EB0C03934313EA08
:10033000CC1317D150F8042B51F8043B9A4215D135
:10034000A2EB0C03934313EACC130BD150F8042B0C
:1003500051F8043B9A4209D1A2EB0C03934313EAF0
:10036000CC13DBD04FF00000704700BFD01A01BAA9
:10037000B1FA81F101F0180122FA01F0CB40C1F18C
:100380002001DBB2C0B2C01A2CFA01F3D11A91439A
:1003900011EAC311E6D17047704770477047704744
:1003A000754600F02BF8AE4605006946534620F02E
:1003B0000700854618B020B5FFF716FFBDE82040BE
:1003C0004FF000064FF000074FF000084FF0000B11
:1003D00021F00701AC46ACE8C009ACE8C009ACE8C4
:1003E000C009ACE8C0098D46704710B50446AFF3AC
:1003F00000802046BDE81040FFF7E1BE004870478E
:1004000020050020FEE730B504460020651803E013
:1004100014F8011B01F001FFAC42F9D3002101F0F7
:10042000FCFEBDE83040002101F0F7BE2DE9F04FA1
:1004300000242646ADF2044D0746A04635465A280C
:1004400021D02FA002F0F2F983462EA002F0EEF99F
:10045000814604236A464146584602F015FA0028B0
:1004600041DD00206A46135C401CC0B203EB04244B
:100470000428F8D3BCB3D9F83800A04233D95A2F96
:1004800007D0241D37E01FA002F0D0F983461EA03C
:10049000DCE708F104084FF480602746844200D965
:1004A00007463B466A464146584602F0EDF9B842D7
:1004B00019D106EB070AAA450DD93019421B4FF492
:1004C0000050824200D902462946484602F094F97B
:1004D000002808DB05443B466A463146484602F0A0
:1004E000EFF9B84204D001200DF2044DBDE8F08FC1
:1004F000B8445646E41B002CCDD10020F4E70000A0
:100500006661630064776E006170700013468AB2A2
:1005100001460248006801F07DBA0000200000207A
:1005200030B4044607481346006890F84120A02ADA
:1005300002D1202280F841208AB2214630BC01F04D
:10054000BFBA000020000020704700000A460146A4
:100550000148006802F050B92400002072B6FEE79E
:1005600009490868094A1040B0F1005F03D04FF410
:100570007A7000F0E7B84868054AD0609060096872
:1005800081F3088800470000005000080000FE2F9B
:100590002000002010B5012804D04FF4157108A0E8
:1005A00002F0A9F816490020C8611648016941F017
:1005B00004010161016941F04001016110BD0000C9
:1005C0002E2E2F447269766572732F53544D333239
:1005D000463178785F48414C5F4472697665722F86
:1005E0005372632F73746D3332663178785F68614C
:1005F0006C5F666C6173685F65782E630000000055
:10060000C000002000200240064A0021D1610649B6
:100610000A6942F002020A614861086940F040003C
:1006200008617047C000002000200240044B0022F7
:10063000DA61044A136943F00103136101807047D2
:10064000C00000200020024014490020CA68D306E0
:10065000134A04D5D06940F00200D0611020CB6865
:100660005B0705D5D36943F00103D36140F0040073
:10067000CB69DB0707D0D36943F00403D361CA69B0
:1006800022F00102CA61A0F58072013A01D0C8606F
:100690007047C86920F00100C8617047002002401F
:1006A000C000002070B5044600F0A8FB0546114EBE
:1006B00009E0601C07D024B100F0A0FB401BA04261
:1006C00001D9032070BDF068C007F2D1F068800640
:1006D00001D52020F060F068C00605D4F069C0079D
:1006E00002D1F068400703D5FFF7AEFF012070BDCF
:1006F000002070BD0020024010B590F821100022AB
:10070000022905D00421816380F82020012010BD3A
:1007100001680B6823F00E030B6001680B6823F07F
:1007200001030B6090F84030012404FA03F1C36B1D
:10073000596080F8214080F82020104610BD806B61
:100740007047000070B5044600F058FB0546601C79
:1007500002D004480078044400F050FB401BA04243
:10076000FAD370BD000000202DE9F05F04464A482E
:100770000F460126017E012941D0012180460176E4
:10078000DFF818B120684CF2503940B1022839D056
:10079000A62143A001F0AFFF2068022832D0A06854
:1007A000DFF83CA14FF0FF35B0F1006F0AD3BAF883
:1007B0000010B1F5007F38D0B1F5C07F3FD0494976
:1007C00088420BD9E72136A001F095FFBAF8000066
:1007D000B0F5007F2CD0B0F5C07F33D0D4E9020152
:1007E00005EBC12101443F48814203D9E8212CA0F7
:1007F00001F081FF4846FFF755FF50B346E0022065
:10080000BDE8F09F4C464846FFF74CFFA8BB0120CF
:10081000FFF7C0FE2046FFF745FFDBF81010064645
:1008200021F00401CBF8101030E02F498842C9D8DC
:10083000D4E9020105EBC12101442B48D4E72B493F
:100840008842BFD8D4E9020105EBC1210144274801
:10085000CAE73D60CA46D946A56811E02846FFF7B9
:10086000D3FE5046FFF71EFFD9F81010060021F006
:100870000201C9F8101001D03D6007E005F50065E0
:10088000D4E9020100EBC120A842E7D8002188F892
:1008900018103046B4E70000C000002000200240DD
:1008A0002E2E2F447269766572732F53544D333256
:1008B000463178785F48414C5F4472697665722FA3
:1008C0005372632F73746D3332663178785F686169
:1008D0006C5F666C6173685F65782E630000000072
:1008E000E0F7FF1FFFFF0308FFFF0708FFFF0508F2
:1008F0000348016941F08001016100207047000058
:100900000020024000F066BB2DE9F05F06462D484E
:100910000D460024017E17469846012925D0012165
:1009200081460176012E07D0022E05D0032E03D07A
:10093000B02125A001F0DFFEB5F1006F0AD33148E8
:100940000088B0F5007F13D0B0F5C07F12D02E48DC
:10095000854203D9B1211CA001F0CDFE4CF2503AE2
:100960005046FFF79FFE38B127E00220BDE8F09F18
:100970002648EDE72648EBE7012E02D0022E00D0F4
:100980000426D346DFF88CA015E022014146384604
:10099000FFF73DFC81B205EB4400FFF747FE5846E8
:1009A000FFF780FEDAF8102022F00102CAF81020CA
:1009B00018B9641CE4B2B442E7D3002289F81820C5
:1009C000D4E70000C00000202E2E2F447269766507
:1009D00072732F53544D3332463178785F48414C0F
:1009E0005F4472697665722F5372632F73746D332F
:1009F00032663178785F68616C5F666C6173682E0F
:100A000063000000E0F7FF1FFFFF0308FFFF070878
:100A1000FFFF050800200240064900200A6912066F
:100A200007D5054A4A60054A4A600969090600D5A2
:100A3000012070470020024023016745AB89EFCDBC
:100A40002DE9F84FDFF8C0A24FF00008DFF8BCB284
:100A50000D4604464746504514D05C4512D0AC487C
:100A600084420FD0AB4884420CD0AB48844209D0BA
:100A7000AA48844206D0AA48844203D0BD21A9A036
:100A800001F039FE28680104090C01D0000C03D0E4
:100A9000BE21A4A001F02FFE686800281FD0012805
:100AA000FCD01128FAD00228F8D01228F6D0AC4990
:100AB0008842F3D0AB498842F0D0AB498842EDD0B0
:100AC000AA498842EAD0AA498842E7D0A94988427F
:100AD000E4D00328E2D0BF2192A001F00CFE0CE18B
:100AE000012000FA08F906EA09064E4574D154457A
:100AF00014D05C4512D0864884420FD08548844289
:100B00000CD08548844209D08448844206D0844869
:100B1000844203D0CD2183A001F0EDFD904A6868A6
:100B2000811A904259D00EDC03286FD006DC0028D1
:100B300053D0012819D0022869D131E0112821D0E1
:100B4000122864D13AE0B1F5881F46D006DCB1F531
:100B5000803F42D0B1F5801F59D13EE0B1F5001F72
:100B60003BD0B1F5041F52D137E0E868022807D026
:100B7000012805D0032803D0D5216AA001F0BBFDD0
:100B8000EF6844E0E868022807D0012805D0032870
:100B900003D0DC2163A001F0AEFDEF683F1D36E01D
:100BA000E868022807D0012805D0032803D0E321F4
:100BB0005CA001F0A0FDEF68083728E0E868022893
:100BC00007D0012805D0032803D0EA2155A001F061
:100BD00092FDEF680C371AE08DE0A86878B1012823
:100BE0000FD0022807D0F7214EA001F084FDA8689D
:100BF00028B1012805D00827C4F8149007E004277D
:100C000005E00827C4F8109001E0FFE70027FF2E59
:100C100001D8214601E004F104014FEA880001D91E
:100C2000A0F120000A684FF00F0303FA00FC22EA4B
:100C30000C0207FA00F042EA00020A606868C0008D
:100C400059D54D48816941F001018161806928F0E1
:100C5000030100F00100009048480A18D2F808C0CB
:100C60004FEA8870010F8B402CEA030C544501D1E8
:100C7000002018E05C4501D1012014E024488442A2
:100C800001D102200FE02348844201D103200AE071
:100C90002148844201D1042005E02048844201D14A
:100CA000052000E00620884040EA0C00906068685B
:100CB000C0023348016801D5314300E0B14301600F
:100CC000686880022F48016801D5314300E0B143D4
:100CD0000160686880032C48016801D5314300E059
:100CE000B14301606868C0032848016801D53143F9
:100CF00000E0B143016008F101082E6836FA08F0FF
:100D00007FF4EEAEBDE8F88F00080140000C014012
:100D1000001001400014014000180140001C014077
:100D2000002001402E2E2F447269766572732F5376
:100D3000544D3332463178785F48414C5F44726994
:100D40007665722F5372632F73746D333266317808
:100D5000785F68616C5F6770696F2E6300000000E8
:100D600000001110000021100000311000001210CE
:100D7000000022100000321000100240000001406C
:100D8000080401400C040140040401400004014037
:100D900070B515460C00064604D14FF4EA7108A060
:100DA00001F0A9FC45B1012D04D040F2D51104A0F9
:100DB00001F0A1FC346170BD2004306170BD000001
:100DC0002E2E2F447269766572732F53544D333231
:100DD000463178785F48414C5F4472697665722F7E
:100DE0005372632F73746D3332663178785F686144
:100DF0006C5F6770696F2E630000000001488068B7
:100E00007047000000000020024881680278114409
:100E10008160704700000020074810B5016841F06C
:100E200010010160032000F095F80F2000F006F893
:100E300000F024F8002010BD0020024070B50D4DD8
:100E400004464FF47A712878B1FBF0F00A4909683A
:100E5000B1FBF0F000F071FC48B9102C07D2002271
:100E60002146501E00F028F800206C6070BD012063
:100E700070BD0000000000200C0000200C4808B5E8
:100E8000816941F001018161816901F001010091F5
:100E9000C16941F08051C161C069064900F08050CC
:100EA0000090486820F0E06040F00070486008BDA5
:100EB000001002400000014070B514460D46064681
:100EC000102A03D3A92113A001F015FC102D03D380
:100ED000AA2110A001F00FFC1D480068C0F30223F6
:100EE000C3F10700042800D90420191D072901D2E5
:100EF000002300E0DB1E012202FA00F1491E294016
:100F000099409A40521E22403046BDE8704011433D
:100F100001F0E0BB2E2E2F447269766572732F5359
:100F2000544D3332463178785F48414C5F447269A2
:100F30007665722F5372632F73746D333266317816
:100F4000785F68616C5F636F727465782E63000010
:100F50000CED00E010B5044607280BD0062C09D094
:100F6000052C07D0042C05D0032C03D0912108A018
:100F700001F0C1FB154A04F0070110684FF6FF03AA
:100F8000184040EA012012490843106010BD0000DB
:100F90002E2E2F447269766572732F53544D33325F
:100FA000463178785F48414C5F4472697665722FAC
:100FB0005372632F73746D3332663178785F686172
:100FC0006C5F636F727465782E6300000CED00E057
:100FD0000000FA05BFF34F8F05480168054A01F488
:100FE000E06111430160BFF34F8F00BFFDE70000D8
:100FF0000CED00E00400FA052DE9F0470D46040071
:101000007DD02068C1070AD1810708D4410706D4E2
:10101000000704D440F2363172A001F06CFB45B1F8
:10102000012D06D0022D04D040F237316DA001F021
:1010300062FBDFF8E881D8F8000000F00700A84262
:101040000CD2D8F8001021F007012943C8F800108D
:10105000D8F8000000F00700A84277D12068704E51
:10106000810729D5400703D5706840F4E0607060BF
:101070002078000703D5706840F460507060A06865
:10108000A0B1802812D0902810D0A0280ED0B0286F
:101090000CD0C0280AD0D02808D0E02806D0F028EC
:1010A00004D040F25D314FA001F025FB7068A168CB
:1010B00020F0F000084370602078C00735D06068E9
:1010C00068B101281CD002281DD04FF4597145A0E9
:1010D00001F011FB6068012812D0022813D030689B
:1010E0008007002832DA7068616820F00300084346
:1010F0007060FFF783FE074641F288390EE025E075
:1011000030688003EDE730688001EAE7FFF776FE9C
:10111000C11B494502D90320BDE8F08770686168AA
:1011200000F00C00B0EB810FF0D1D8F80010404671
:1011300001F00701A9420BD9016821F007012943F9
:101140000160006800F00700A84201D00120E3E739
:1011500020784FF4806540074FF4A0674FF4C068D3
:101160004FF4E06914D5E06860B1A8420AD0B842F3
:1011700008D0404506D0484504D040F2A23119A01D
:1011800001F0B9FA7068E16820F4E060084370602B
:101190002078000715D5206960B1A8420AD0B8426E
:1011A00008D0404506D0484504D040F2A9310DA0F2
:1011B00001F0A1FA7068216920F4605040EAC10092
:1011C000706000F055F87168164AC1F30311515C64
:1011D000C8401549086015480068FFF72FFE002039
:1011E0009AE700002E2E2F447269766572732F5392
:1011F000544D3332463178785F48414C5F447269D0
:101200007665722F5372632F73746D333266317843
:10121000785F68616C5F7263632E63000020024038
:1012200000100240B62A00080C0000200400002034
:101230000448054900684968044AC1F30221515C29
:10124000C84070470C00002000100240C62A000869
:101250000448054900684968044AC1F3C221515C49
:10126000C84070470C00002000100240C62A000849
:101270000E4B59680E4801F00C02042A11D0082ABE
:101280000FD10C48C1F38342C903805C0AD5596869
:10129000084AC1F34041921E515C054A5043B0FBDD
:1012A000F1F07047044948437047000000100240C5
:1012B00000127A00A62A000800093D002DE9F84F27
:1012C00004007DD0DFF8EC83FB4D20684FF0010B6C
:1012D0004FF000094FF4803A60B1C1070DD181078A
:1012E00061D401076DD440076CD440F26511F3A0BE
:1012F00001F001FA2078C00752D060684FF4A026B0
:1013000040B1504506D0B04204D040F26B11EBA082
:1013100001F0F1F96868C0F38100012807D068681E
:10132000C0F38100022809D16868C00306D5286887
:10133000800335D560680028C3D031E0606850452F
:1013400003D1286840F4803009E008B1B0420DD0E4
:10135000286820F480302860286820F480202860E5
:10136000606888B1FFF74AFD064609E0286840F446
:1013700080202860E5E7FFF741FD801B642875D8D1
:1013800028688003F7D50BE0FFF738FD064604E038
:10139000FFF734FD801B6428F1D828688003F7D458
:1013A000207880074DD5206930B1012804D040F263
:1013B0009F11C2A001F09FF960691F2808D902E0BF
:1013C00096E041E079E04FF4D071BCA001F093F9D0
:1013D000686810F00C0F07D06868C0F3810002281D
:1013E00009D16868C00306D42868800713D520692E
:1013F00001287DD10FE02069A8B1C8F800B0FFF73F
:10140000FDFC064604E0FFF7F9FC801B0228B6D875
:1014100028688007F7D52868616920F0F80040EA5D
:10142000C10028600DE0C8F80090FFF7E7FC064611
:1014300004E0FFF7E3FC801B0228A0D8286880079F
:10144000F7D42078000735D5AA4EA06920B301282B
:1014500006D04FF4F07199A001F04DF9A069D8B110
:10146000C6F800B0FFF7CAFC064605E04DE1FFF7FD
:10147000C5FC801B02288FD8686A8007F7D59E4874
:101480004FF4FA510068B0FBF1F0009000BF0098F3
:10149000411E0091FAD20DE0C6F80090FFF7AEFCB5
:1014A000064604E0FFF7AAFC801B0228AFD8686A52
:1014B0008007F7D42078400769D5E068002740B15D
:1014C000012806D0052804D040F20F217BA001F0AE
:1014D00012F9E869C00008D4E86940F08050E8617A
:1014E000E869012700F0805000908448016800E01E
:1014F0001FE1C90510D4016841F480710160FFF754
:101500007DFC064604E0FFF779FC801B642894D834
:101510007A480068C005F6D5E06801280AD008B10D
:10152000052811D0286A20F001002862286A20F0DE
:10153000040002E0286A40F001002862E06898B1E7
:10154000FFF75CFC06460BE0286A40F004002862C6
:10155000F0E7FFF753FC811B41F2883081428AD8C3
:10156000286A8007F5D50DE0FFF748FC064606E03F
:10157000FFF744FC811B41F28830814296D8286AEB
:101580008007F5D41FB1E86920F08050E861E06978
:1015900000287DD0012809D0022807D040F2AD21D3
:1015A00046A001F0A8F8E069002871D06868C0F38F
:1015B00081000228E0696CD0022805D0C8F860904C
:1015C000FFF71CFC0446A3E0206A30B1504504D06C
:1015D00040F2B62139A001F08EF8606A70B3B0F520
:1015E000802F2BD0B0F5002F28D0B0F5402F25D07C
:1015F000B0F5801F22D0B0F5A01F1FD0B0F5C01FDE
:101600001CD0B0F5E01F19D0B0F5001F16D0B0F512
:10161000101F13D0B0F5201F10D0B0F5301F0DD023
:10162000B0F5401F0AD0B0F5501F07D0B0F5601FCD
:1016300004D040F2B72121A001F05DF84746C8F878
:101640006090FFF7DBFB064604E0FFF7D7FB801B4B
:1016500002285AD828688001F7D4206A50450FD153
:10166000A06838B1B0F5003F04D040F2CD2113A0FE
:1016700001F041F86868A16820F400300843686010
:10168000D4E908010843696821F47411084301E0B2
:1016900051E041E06860C7F860B0FFF7AFFB044677
:1016A00004E0FFF7ABFB001B02282ED8286880015E
:1016B000F7D540E000004242001002402E2E2F4499
:1016C0007269766572732F53544D33324631787890
:1016D0005F48414C5F4472697665722F5372632F85
:1016E00073746D3332663178785F68616C5F7263F2
:1016F000632E6300800442420C0000200070004012
:10170000FFF77CFB001B022802D90320BDE8F88FFD
:1017100028688001F4D40EE00128F7D06868226AB6
:1017200000F48031914204D1616A00F47010884263
:1017300001D00120EAE70020E8E710B5401EB0F133
:10174000807F01D3012010BD4FF0E02460610F21A4
:10175000601700F0BFFF0020A0610720206100207B
:1017600010BD70B5044620680C3050E8001F21F40D
:10177000F07140E80012002AF5D12068143050E8DA
:10178000001F21F0010140E80012002AF5D1206B72
:10179000012809D120680C3050E8001F21F0100109
:1017A00040E80012002AF5D1206840694FF0100689
:1017B00000064FF0000515D52068143050E8001FD2
:1017C00021F0800140E80012002AF5D1A06B48B159
:1017D0004563A06BFEF790FF20B1A06BFEF7AFFF53
:1017E000202824D020684069400615D52068143090
:1017F00050E8001F21F0400140E80012002AF5D116
:10180000E06B48B14563E06BFEF776FF20B1E06B1B
:10181000FEF795FF20280AD0E584E5856564202041
:1018200084F8420084F841002563002070BD66649E
:10183000032070BD70B5040020D0A0693449002891
:10184000344A354B20681BD088420AD0904208D0D9
:10185000984206D04FF4B77130A000F04CFFA06959
:10186000F8B1A069B0F5807F1BD0B0F5007F18D02B
:10187000B0F5407F15D040F26F110FE0012070BD30
:1018800088420ED090420CD098420AD03249884209
:1018900007D03249884204D040F273111FA000F0F3
:1018A0002AFFA06838B1B0F5805F04D040F275110E
:1018B0001AA000F020FF94F84100002520B984F818
:1018C0004050204600F04CF8242084F84100206865
:1018D000C16821F40051C160204600F0BDFB2068C2
:1018E000016921F4904101612068416921F02A01D8
:1018F00041612068C16841F40051C16065642020E5
:1019000084F8410084F842006563002070BD000047
:101910000038014000440040004800402E2E2F4473
:101920007269766572732F53544D3332463178782D
:101930005F48414C5F4472697665722F5372632F22
:1019400073746D3332663178785F68616C5F75618E
:1019500072742E6300000000004C004000500040F4
:1019600030B585B000240094019402940394244D72
:101970000168244802220323A9421AD1C16941F413
:101980000021C161C16901F400210491816941F024
:101990001001816180691C4D00F01000049050021C
:1019A000CDE90002694603932846FFF749F8E81499
:1019B0001CE0164DA94220D1C16941F40031C1613A
:1019C000C16901F400310491816941F00401816130
:1019D00080690F4D00F0040004900420CDE900025E
:1019E000694603932846FFF72BF80820CDE9000449
:1019F000694628460294FFF723F805B030BD000081
:101A0000004C004000100240001001400044004023
:101A1000000801402DE9F843044690F8420098463A
:101A200015460E46202802D00220BDE8F883AEB14C
:101A3000A5B100206064222184F842102063FFF7E2
:101A4000DDF9A5858146E585A0684FF48057B84249
:101A500001D1206920B13546002626E00120E4E7C7
:101A6000002522E04B46002220212046CDF80080B0
:101A700000F098FB08B10320D7E725B1A068B84271
:101A80001BD038B108E020684068C0F3080026F891
:101A9000020B07E0206980B12068406800F07F00F9
:101AA00005F8010BE08D401EE085E08D0028D9D1BE
:101AB000202084F842000020B7E720684068EFE764
:101AC0002DE9F843044690F841001F4615460E469E
:101AD000202802D00220BDE8F8837EB175B1002035
:101AE0006064212084F84100FFF788F9A5848046CE
:101AF000E584A068B0F5805F02D003E00120EAE74A
:101B0000206910B1354600260EE000250CE080214A
:101B1000204600F047FBA0B9ADB115F8010B2168D4
:101B20004860E08C401EE084E08C43464FF00002A9
:101B300000970028EBD14FF04001204600F032FB27
:101B400030B10320C7E736F8020BC0F30800E6E720
:101B5000202084F841000020BDE7FEE7F0B5002218
:101B60000D4B144615460A27B1FBF3F63036865462
:101B7000B1FBF3F603FB1611B3FBF7F3521C861807
:101B800016F8016C302E00D124B1641C6D1C0A2D96
:101B9000EAD3F0BD0022F9E700CA9A3B70B586B0DF
:101BA00000242B480094019402940394816941F02D
:101BB00010018161816901F010010491816941F096
:101BC00020018161816901F020010491816941F066
:101BD00004018161816901F004010491816941F08E
:101BE0000801816180691B4E00F008000490012209
:101BF00002213046FFF7CCF84FF2FF300325CDE944
:101C0000000569461448FEF71BFF49F6F370CDE95D
:101C1000000569461148FEF713FF4FF6FD70CDE948
:101C2000000569463046FEF70BFF02210120CDE991
:101C30000010CDE9024169463046FEF701FF04205D
:101C4000CDE9000569460648FEF7FAFE06B070BD0C
:101C500000100240000C014000100140000801404B
:101C6000001401400C4810B50A4901604FF4E131FD
:101C70004160002181600C22C160C0E904128161D1
:101C8000C161FFF7D7FD002803D0BDE81040FEF783
:101C900065BC10BD004C0040300000200C4810B561
:101CA0000A4901604FF4E1314160002181600C225A
:101CB000C160C0E904128161C161FFF7BBFD00286A
:101CC00003D0BDE81040FEF749BC10BD0044004001
:101CD00078000020FEE7FEE77047FEB500260546C7
:101CE00000960196012002966870AE70FF2037467C
:101CF000E870344602E02B19641C1871085D08B1C5
:101D0000202CF8D32819114607716846FFF726FFE3
:101D10006946641D02E02855641C761C885D002815
:101D2000F9D101E02F55641C842CFBD3FEBD0000CB
:101D300013460A4601460248006800F0A5BD0000AF
:101D4000240000202DE9F84300240F4606460C60CD
:101D5000904601216846FEF7D9FB05002DD19DF87C
:101D60000000182811D006DC012809D0022809D06B
:101D7000042814D114E0412825D061280FD122E095
:101D800080240DE04FF480640AE042460121684659
:101D9000FEF7BCFB18B99DF80000182811D00125EA
:101DA0009DF800003070802C07D34246211DB01CE6
:101DB000FEF7ACFB050008D0002428463C60BDE8D7
:101DC000F8830224ECE70225EAE7F178B07881F0A5
:101DD000FF0188420AD130190179407900EB0128CE
:101DE0002146301DFEF70FFB4045E6D000240125BB
:101DF000E3E770470B49A52264230A705A224A7010
:101E000006228A708322CA700871FC204871012062
:101E100088710020C871AA2008720348092200684E
:101E2000FFF74EBEF8000020200000200A49A5223E
:101E300064230A705A224A7005228A708222CA706C
:101E40000871FC20487100208871AA20C8710348DD
:101E500008220068FFF734BEF800002020000020B0
:101E600038B50E4C0C482060002000901020FFF781
:101E7000DDFF40F2DC53202209492068FFF7CAFD4C
:101E80002068C18D202901D0012038BDFFF769FCF1
:101E9000684600F0F7F938BD30000020200000202F
:101EA000F80000202DE9FE4300211A4F8DF80010A4
:101EB00001910E460D460C46042302AA786800F0F4
:101EC000E3FC042819DB002002AA135C401CC0B20A
:101ED00003EB06260428F8D340F2DC5843460122DF
:101EE00069463868FFF796FD9DF80000432806D044
:101EF0006D1C0024EDB21E2DF0D3BDE8FE83641CE2
:101F0000E4B2022CEAD3324603A101A800F0B8FAE9
:101F1000F3E700002000002062696E0001B5074869
:101F2000006890F84110A02902D1202180F84110CA
:101F3000642201216846FEF7F3FA08BD2000002064
:101F4000F0B5054600242B7820462246302B2DD1B3
:101F50006B78782B01D0582B28D102241BE0A3F1F9
:101F60004106052E07D9A3F16107052F03D91136C4
:101F7000092E04D913E0A3F13007092F01D8303B13
:101F800004E0052E01D8373B00E0573B641C03EB0F
:101F900002120B2C04D22B5D002BE0D103E00020B9
:101FA0002B5D002B01D101200A60F0BD2B5D63B1D8
:101FB0006B2B01D04B2B02D10CB1920205E06D2BA3
:101FC00001D04D2B04D11CB1120501200A600AE09A
:101FD000A3F13006092E0CD802EB82026FF02F0617
:101FE00006EB42021A44641C0B2CDED20128DDD120
:101FF000F0BD0020F0BDFEF707BF30B58FB028213F
:102000006846FEF762F914210AA8FEF75EF901207E
:10201000010400248DE8130004904FF4E010CDE992
:102020000810022507956846FFF748F908B172B60F
:10203000FEE70F20CDE90A054FF48060CDE90C40A2
:1020400002210AA80E94FEF7D7FF002801D072B62D
:10205000FEE70FB030BD704770B504464068404998
:10206000884204D940F666613EA000F044FBE06877
:1020700038B1B0F5005F04D040F6676139A000F0D8
:102080003AFB206950B1B0F5806F07D0B0F5C06F52
:1020900004D040F6686133A000F02DFB60694FF674
:1020A000F371084200D120B940F669612DA000F01B
:1020B00022FB20680169E26821F44051114301616B
:1020C000A16820690143606901432068C26841F248
:1020D0000C639A430A43C26020684169A26921F4F3
:1020E0004071114341612E492068884202D1FFF7B7
:1020F000AFF801E0FFF79CF800EBC00101EB001125
:10210000606864228000B1FBF0F3B3FBF2F36FF080
:1021100018067343B1FBF0F5B1FBF0F605EB830550
:10212000322303EB0515B5FBF2F5B6FBF2F605F02D
:10213000F00505EB0615B1FBF0F6B1FBF0F0B0FBD6
:10214000F2F06FF01801484306EB800003EB00103B
:10215000B0FBF2F0216800F00F002844886070BDE9
:1021600020AA44002E2E2F447269766572732F5375
:10217000544D3332463178785F48414C5F44726940
:102180007665722F5372632F73746D3332663178B4
:10219000785F68616C5F756172742E630000000087
:1021A000003801402DE9F0411E4617468846044696
:1021B000069D26E0681C24D025B1FEF71FFE801B7B
:1021C000A8421ED920680C3050E8001F21F4D071BD
:1021D00040E80012002AF5D12068143050E8001FB2
:1021E00021F0010140E80012002AF5D1202084F8F6
:1021F000410084F84200002084F840000320BDE83C
:10220000F0812068016838EA010004D00020B8425B
:10221000D0D00020F3E70120F9E741F4807141F2CA
:10222000210240004900CB0500D5401CC30300D566
:102230005040CB03F5D580B27047FEE731B510258D
:1022400009A000F0F3FA094C002820600AD001220E
:10225000294600F0D1FA01236A462946206800F099
:102260002FFB012038BD00007570640024000020A1
:1022700013460A4601460248006800F021BB0000F0
:10228000240000202DE9F14F8AB0002579480695F9
:10229000A84600682C462E46806B0890E1E0002797
:1022A000B946BA46384630E04FF47A7205A972480A
:1022B000FFF748FD58B1022804D008F10108B8F131
:1022C0001E0F7DD91820FFF729FE18200CE0059875
:1022D0004FF0000860B1022805D067498A78BA42F9
:1022E00015D01520B7E00620FFF718FE0224B4E051
:1022F000BBF1000F05D00620FFF710FE4FF00109DB
:10230000ABE01520FFF70AFE01208346A5E057EA5F
:102310000A021ED0304401F10408A8420CD90498E6
:10232000411B4FF40020814200D901462846FEF7A8
:102330000DF9002800DB054441463046059AFFF7B9
:1023400097FF00287ADB059806440620FFF7E6FD94
:102350007BE00879A8B30020484B091D02E01A541D
:10236000401C491C0A780AB12028F8D34FF0000C11
:1023700003F800C060466B4601E01A54401C11F897
:10238000012F202A01D01028F7D303F800C004A998
:102390001846FFF7D5FD0A9804990160049908983A
:1023A000814212D918208DF81C0041F2883422464F
:1023B000012107A8FEF7B4F82246012107A801E091
:1023C00048E033E0FEF7ACF805240499080E8DF8D8
:1023D0000000080C8DF80100080A8DF802004FF487
:1023E00000208DF80310814200D901462846FEF7EF
:1023F000ADF8002800DB0544042269463046FFF7AB
:1024000037FF002809DB0620361DFFF787FD432034
:10241000FFF784FD4FF0010A17E01820FFF77EFD5B
:102420001820FFF77BFD042417E007E00620FFF7E4
:1024300075FD4FF00109CDF818900EE01820FFF758
:102440006DFD1820FFF76AFD04247F1CFFB24FF0DA
:10245000190802E04320FFF761FD59EA04003FF448
:1024600023AF069820433FF41AAF0BB02046BDE8D7
:10247000F08F00002400002018010020F800002048
:102480002DE9F04F0025ADF2044D92462E462C4624
:102490004FF001098E48FFF720FC2EE08C4F41F2EF
:1024A000883842468321781CFEF73AF88021381D8F
:1024B000FDF7A9FF0746000AFFF730FDF8B2FFF766
:1024C0002DFD424602210DF58060FEF71FF880B910
:1024D0009DF80004062802D0182806D009E09DF8CF
:1024E0000104432805D1012604E09DF801041828C1
:1024F00009D06D1C3C2D00D3012456EA0400CDD038
:102500000427564670E00220FEF71CF90224F1E78A
:102510006F4D4FF4806209F0FF00964201D31146DF
:1025200000E0802188463346464500D219468A4657
:10253000B8F5806F0ED001216970A870C043E870B3
:10254000524669463846FFF7F3FB694604200AF114
:10255000040205E00221EFE711F8013B2B54401C77
:102560009042F9D3C24509D80AF104001A2208F1B1
:10257000040101E02A54401C8842FBD34FF0000ABA
:102580008DF800A4D0462CE04FF48065AE4200D216
:102590008025DFF83CB141F28832E91C0BF10100E3
:1025A000FDF7BEFF29460BF10400FDF72CFF834623
:1025B000000AFFF7B3FC0BF0FF00FFF7AFFC41F29E
:1025C000883201210DF58060FDF7A0FF18B99DF854
:1025D0000004062813D008F10108B8F11E0F00D33B
:1025E00001245AEA0400CFD00EB1002C90D000276D
:1025F000B8468DF800743D4641F2883618E04FF039
:10260000010AAE422F4403D9761B09F10109E4E720
:102610000026E2E70420FFF781FC324601210DF598
:102620008060FDF773FF40B16D1C1E2D00D30124A7
:1026300057EA0400EED0CCB145E09DF8000406282E
:1026400012D01828F1D1324601210DF58060FDF736
:102650005DFF0028E9D19DF800041828E5D102208B
:10266000FEF770F80224E0E70127DEE7184D0120AD
:102670004146687085F80280FF20E87004202954E4
:10268000401CC0B28428FAD332468321681CFDF76F
:1026900047FF8021281DFDF7B6FE0546000AFFF71B
:1026A0003DFCE8B2FFF73AFC324601210DF58060AF
:1026B000FDF72CFF38B99DF80004182803D102203B
:1026C000FEF740F802240DF2044D2046BDE8F08FDD
:1026D000180100200907090E002804DB00F1E020A2
:1026E00080F80014704700F00F0000F1E02080F83F
:1026F000141D7047704770472DE9F0410E4607469C
:102700000024DFF8348013E007EB841505F11C008A
:1027100000F034F858B1696BC269914205DB074992
:1027200000208860401EBDE8F08148F82400641C49
:10273000B442E9D30020F6E7E000002014000020B6
:1027400070B586B000260D4600F100640496FEF7D1
:1027500063F905F2FF70C00A039001210096CDE9EC
:10276000011404A96846FDF7FFFF0446FEF7C0F810
:1027700014B1701E06B070BD2846FBE770B5084D59
:1027800006460024182255F824103046FDF752FD65
:1027900018B1641CF6D0002070BD55F8240070BD3F
:1027A000D02A000870B5084D287808B1002070BD07
:1027B000064E002456F82400406A00B18047641C8D
:1027C000F8D001202870F1E711000020D02A00087D
:1027D00010B5FFF7E7FF074C002808DB00F040F8D2
:1027E000002804DD2178002903D1012100E0002127
:1027F000217010BD100000202DE9F041174605465C
:102800000C46C819A96B4FF0FF3688420BD82846F2
:1028100000F072F838B1696B026B0B193946BDE8EC
:10282000F041184610473046BDE8F08170B50646C5
:1028300000240A4D08E0686800EB84113046091D49
:10284000FDF76AFD28B1641CA8688442F3D3002018
:1028500070BD686800EB841070BD0000140000209B
:1028600010B5074C207840B906480621C4E901019B
:10287000FFF742FF08B901202070A06810BD0000DA
:10288000140000200C2B00082DE9F0411F460546DE
:102890000C46C819A96B90464FF0FF3688420CD8F9
:1028A000284600F029F840B1696B836A0C443A4627
:1028B00041462046BDE8F04118473046BDE8F0816A
:1028C0002DE9F0411F4605460C46C819A96B9046F4
:1028D0004FF0FF3688420CD8284600F00DF840B182
:1028E000696BC36A0C443A4641462046BDE8F04154
:1028F00018473046BDE8F08103494968401A03494A
:10290000801151F82000704714000020E0000020E2
:1029100010B5FEF781F803493420C860FDF7E8FFE1
:10292000012010BD0020024008B5FEF775FAFFF740
:1029300064FBFFF733F9FFF795F9FFF7AFF9FFF7FE
:1029400047FF36A0FFF772FF354C01236A4610217E
:102950002060FFF799FF002858DB9DF80000A028B1
:1029600010D009DC70B12F4D2F4E50283FD05A287F
:1029700021D090280DD126E0A52845D0AA2810D036
:10298000FF2806D129A0FFF751FF2060FFF768FA62
:1029900060BBA020FFF752FC5520FDF747FD50B16A
:1029A00034E05520FFF74AFC21A0FFF73FFF2060ED
:1029B000FFF756FAD0B95520FFF740FC5A20FDF733
:1029C00035FD98B920E05A20FFF738FC19A0FFF731
:1029D0002DFF2060FFF744FAB0B9FFF75FF96020E0
:1029E0003560FFF707FA5020FFF728FC0EE05A2069
:1029F000FFF724FCFFF752F90EA03560FFF716FF32
:102A0000206008B1FFF74EFAFDF7AAFD4FF47A7087
:102A1000FDF798FEFDF776FFFEE700007570640095
:102A20002400002078000020200000206661630060
:102A300064776E00415050300000000010B5002354
:102A400000F1006004E010F8014B01F8014B5B1C41
:102A50009342F8D3104610BD2DE9F04117460C46BD
:102A600000F10065FDF7D8FF0D493420C86000264D
:102A700010E02288002329460120FDF745FF288821
:102A80002188884203D04FF0FF30BDE8F081A41CBC
:102A9000AD1CB61CBE42ECD3FDF72AFF3846F4E766
:102AA00000200240010202030405060708090A0B80
:102AB0000C0D0E0F101000000000000000000102BD
:102AC00003040607080900000000010203040000D7
:102AD000D42A000873746D33325F6F6E6368697057
:102AE00000000000000000000000000000000008DE
:102AF0000000040000080000112900083D2A000819
:102B0000592A0008412700081000000030315045C4
:102B10006170700000000000000000000000000074
:102B2000000000000000000073746D33325F6F6EB0
:102B300063686970000000000000000000000000F1
:102B40000050000000F0000000000000303150454F
:102B5000666163000000000000000000000000004B
:102B6000000000000000000073746D33325F6F6E70
:102B700063686970000000000000000000000000B1
:102B80000040010000F0000000000000303150451E
:102B900064776E00000000000000000000000000EC
:102BA000000000000000000073746D33325F6F6E30
:102BB0006368697000000000000000000000000071
:102BC0000030020000F000000000000030315045ED
:102BD00041505030000000000000000000000000E4
:102BE000000000000000000073746D33325F6F6EF0
:102BF0006368697000000000000000000000000031
:102C00000020030000C000000000000030315045EB
:102C1000656E76000000000000000000000000006B
:102C2000000000000000000073746D33325F6F6EAF
:102C300063686970000000000000000000000000F0
:102C400000E0030000180000000000003031504593
:102C5000757064000000000000000000000000002B
:102C6000000000000000000073746D33325F6F6E6F
:102C700063686970000000000000000000000000B0
:102C800000F803000008000000000000AC2C000861
:102C900000000020300000006C010008DC2C00085F
:102CA00030000020500B00008801000801000000E7
:102CB00010000000000000000024F40000000000EC
:102CC00000000000000000000000000030000020B4
:0C2CD000000000000000000000000000F8
:0400000508000131BD
:00000001FF
