:020000040800F2
:100000009814002091010008AD2700085F26000821
:1000100000000000000000000000000000000000E0
:10002000000000000000000000000000292C000873
:100030000000000000000000AF270008812D00082C
:10004000A301000800000000A3010008A3010008AC
:10005000B1270008A3010008A3010008A3010008BC
:1000600000000000A3010008A3010008A30100088C
:10007000A3010008A3010008A3010008000000007C
:10008000A3010008A301000800000000A30100086C
:10009000A3010008A3010008A3010008A3010008B0
:1000A000A3010008A3010008A3010008A3010008A0
:1000B000A301000800F002F800F03EF80CA030C8E0
:1000C000083824182D18A246671EAB4654465D46D4
:1000D000AC4201D100F030F87E460F3E0FCCB64660
:1000E0000126334200D0FB1AA246AB4633431847E1
:1000F0004445000064450000103A02D378C878C136
:10010000FAD8520701D330C830C101D504680C6059
:10011000704700000023002400250026103A01D378
:1001200078C1FBD8520700D330C100D50B607047AF
:100130001FB51FBD10B510BD00F081FA1146FFF7C5
:10014000F7FF03F0FBFC00F099FA03B4FFF7F2FFAE
:1001500003BC03F071FA000070B505460C46164664
:1001600002E00FCC0FC5103E102EFAD2082E02D39B
:1001700003CC03C5083E042E07D301CC01C5361FAE
:1001800003E021782970641C6D1C761EF9D270BDC5
:100190000748804707480047FEE7FEE7FEE7FEE71F
:1001A000FEE7FEE704480549054A064B7047000094
:1001B000E32D0008B50000089807002098140020DF
:1001C0009809002098090020704710B5202A04DB08
:1001D0000846203AD040002110BD0B462024D340D1
:1001E000D040A21A91400843194610BDFEB50546FD
:1001F00010460C46184373D0AE468C460020AD1A0C
:1002000001469C4167D36646002701243D46B61A45
:100210009D4102D313463A462124654676462F0473
:10022000360C3E432D0CB61A9D4104D3150C1B040D
:100230002B4312041034654676462F06360A3E4399
:100240002D0AB61A9D4104D3150E1B022B43120230
:100250000834654676462F0736093E432D09B61AFF
:100260009D4104D3150F1B012B431201241D65462C
:100270007646AF07B6083E43AD08B61A9D4104D393
:10028000950F9B002B439200A41C65467646EF0712
:1002900076083E436D08B61A9D411AD392185B4109
:1002A000641C16E00018764665464941B71A9D4120
:1002B0000191009009D36046B11A98418E46844658
:1002C000009801990025401C6941DD0752082A4326
:1002D0005B08641EE6D57246634603B0F0BDFFE7D7
:1002E00000200146C046C0462A462346F5E70000E6
:1002F0000346F0B50B439B072DD1244DEF01042A93
:1003000029D308C810C95E1B9E43121F3E4017D058
:10031000D8B2E1B2401A3106014310D198B2A1B26D
:10032000401A310401430AD118022102000A090AC5
:10033000401A3102014302D1180E210E401AF0BDBD
:10034000A342DCD018BA21BA884201D90120F0BDFD
:100350000020C043F0BD002A01D10020F0BD037889
:100360000C78401C491C002B0DD0A3420BD1521E0F
:1003700009D003780C78401C491C002B03D0A34201
:1003800001D1521EEBD1181BF0BD0000010101018B
:10039000F8B5042A2CD3830712D00B78491C0370BC
:1003A000401C521E83070BD00B78491C0370401C65
:1003B000521E830704D00B78491C0370401C521E48
:1003C0008B079B0F05D0C91ADF002023DE1B08C94D
:1003D0000AE0FFF7C1FEF8BD1D4608C9FD401C46F6
:1003E000B4402C4310C0121F042AF5D2F308C91AD6
:1003F000521EF0D40B78491C0370401C521EEAD4E4
:100400000B78491C0370401C012AE4D40978017060
:10041000F8BD01E004C0091F0429FBD28B0701D5F8
:100420000280801CC90700D00270704700290BD0E1
:10043000C30702D00270401C491E022904D383075F
:1004400002D50280801C891EE3E70022EEE700222D
:10045000DFE70000024670B50A4392072AD11E4D1D
:10046000EE0104C808C9541B9443344017D0D0B2DD
:10047000D9B2401A2106014310D190B299B2401A64
:10048000210401430AD110021902000A090A401A84
:100490002102014302D1100E190E401A70BD9A427A
:1004A000DFD010BA19BA884201D9012070BD0020EE
:1004B000C04370BD02780B78401C491C002A09D04B
:1004C0009A4207D102780B78401C491C002A01D0BF
:1004D0009A42EFD0D01A70BD010101010022030938
:1004E0008B422CD3030A8B4211D300239C464EE04F
:1004F00003460B433CD4002243088B4231D303090B
:100500008B421CD3030A8B4201D394463FE0C309BC
:100510008B4201D3CB01C01A524183098B4201D3D4
:100520008B01C01A524143098B4201D34B01C01ABF
:10053000524103098B4201D30B01C01A5241C30837
:100540008B4201D3CB00C01A524183088B4201D3A6
:100550008B00C01A524143088B4201D34B00C01A92
:100560005241411A00D201465241104670475DE0A7
:10057000CA0F00D04942031000D34042534000222A
:100580009C4603098B422DD3030A8B4212D3FC22D3
:10059000890112BA030A8B420CD3890192118B4252
:1005A00008D3890192118B4204D389013AD0921168
:1005B00000E08909C3098B4201D3CB01C01A524123
:1005C00083098B4201D38B01C01A524143098B42EC
:1005D00001D34B01C01A524103098B4201D30B01D5
:1005E000C01A5241C3088B4201D3CB00C01A5241FA
:1005F00083088B4201D38B00C01A5241D9D24308E1
:100600008B4201D34B00C01A5241411A00D201461D
:10061000634652415B10104601D34042002B00D587
:100620004942704763465B1000D3404201B5002049
:10063000C046C04602BD7047704770477047754658
:1006400000F024F8AE46050069465346C008C000D5
:10065000854618B020B5FFF7A5FD60BC0027490806
:10066000B6460026C0C5C0C5C0C5C0C5C0C5C0C54A
:10067000C0C5C0C5403D49008D46704710B5044611
:10068000C046C0462046FFF760FD10BD00487047D9
:100690003407002030B504460020651803E02178B7
:1006A000641C02F05DFEAC42F9D3002102F058FE5A
:1006B000002102F055FE30BDF0B50024FFB0FFB0C0
:1006C00087B0274605463E4600945A2822D031A0DE
:1006D00003F0E8F8029030A003F0E4F8019004235E
:1006E00004AA0099029803F00FF9002843DD0020C6
:1006F00004AA125C2102401C5418C0B20428F7D38B
:10070000002C38D00198006AA04234D95A2D07D065
:10071000241D3AE020A003F0C5F802901FA0DBE7FB
:100720000098001D0090012080022546844200D9D7
:1007300005462B4604AA0099029803F0E5F8A84262
:1007400019D178190390B0420DD93819821B0120B4
:100750000003824200D902463146019803F08AF82C
:10076000002808DB36182B4604AA3946019803F006
:10077000E6F8A84204D001207FB07FB007B0F0BDFA
:100780000098039F40190090641B002CCBD10020DF
:10079000F2E700006661630064776E0061707000CC
:1007A00072B6FEE710B50B4A10680B4908400121EC
:1007B0004907884208D15068084988604860116834
:1007C00081F30888804710BD7D20C00000F0A2F8AA
:1007D00010BD0000005000080000FE2FD4000020D3
:1007E00006490020C86106480169042211430161DD
:1007F000016940221143016170470000D0010020CF
:1008000000200240064A0021D16106490A690223FC
:100810001A430A6148610869402210430861704721
:10082000D00100200020024010B5054B0022DA6103
:10083000044A1369012423431361018010BD0000A1
:10084000D00100200020024010B50B4A0020D168E2
:10085000CB060A4904D5C86902231843C861102091
:10086000D3685B0705D5CB6901242343CB61042101
:100870000843D06010BD000000200240D0010020DD
:1008800070B5044600F002FB0546104E0AE0601CFD
:1008900008D0002C04D000F0F9FA401BA04201D986
:1008A000032070BDF068C007F1D1F068800601D563
:1008B0002020F060F068C00602D4F068400703D53D
:1008C000FFF7C2FF012070BD002070BD0020024074
:1008D00030B5014620314A780023022A04D0042290
:1008E00082630B70012030BD026814680E25AC4392
:1008F0001460026814686408640014600125046CC4
:100900002A46C06BA24042604D700B70002030BD83
:10091000806B704770B5044600F0B8FA0546601C5D
:1009200002D004480078241800F0B0FA401BA0421E
:10093000FAD370BD04000020F8B5044633480F46D2
:10094000017E012601292BD0012101762068304D3E
:10095000002808D0012825D0A8212EA002F0ECFE06
:10096000206801281ED01F216068C9064018394937
:10097000884203D9BE2127A002F0DEFEA06861688C
:100980008002401E08183449884203D9BF2121A0A3
:1009900002F0D2FE1E48FFF773FF002813D030E0AC
:1009A0000220F8BD2846FFF76BFF002829D1FFF78A
:1009B00017FF2846FFF764FF06462848016904220E
:1009C000914301611DE00020C0433860656812E07A
:1009D0002846FFF717FF0E48FFF752FF06461F484D
:1009E0000169022291430161002E01D03D6008E0BF
:1009F000012080022D18A068616880024018A8427A
:100A0000E6D80248002101763046F8BDD00100202A
:100A100050C300002E2E2F447269766572732F53D7
:100A2000544D3332463078785F48414C5F447269A8
:100A30007665722F5372632F73746D33326630781C
:100A4000785F68616C5F666C6173685F65782E6360
:100A500000000000FFFF0000FFFF00080020024030
:100A600003480169802211430161002070470000A2
:100A70000020024010B505480169012252031143CC
:100A800001610348FFF7FCFE10BD0000002002409A
:100A900050C30000F0B51FB4054624480E46017E41
:100AA0000024174601291BD001210176012D07D012
:100AB000022D05D0032D03D0B1211DA002F03CFE74
:100AC0001F20C00629493018884203D9B22118A036
:100AD00002F032FE2648FFF7D3FE002803D020E0C4
:100AE000022005B0F0BD012D19D0022D17D004252C
:100AF00015E0220138460399FFF767FB81B26000D9
:100B00008019FFF791FE1A48FFF7BAFE19490A69E2
:100B1000520852000A61002803D1641CE4B2AC42BE
:100B2000E7D3024900220A76DBE70000D00100206B
:100B30002E2E2F447269766572732F53544D3332C3
:100B4000463078785F48414C5F4472697665722F11
:100B50005372632F73746D3332663078785F6861D7
:100B60006C5F666C6173682E63000000FFFF00001D
:100B700050C3000000200240064900200A69120606
:100B800007D5054A4A60054A4A600969090600D541
:100B9000012070470020024023016745AB89EFCD5B
:100BA000F8B5044609200026C0060D4684420FD041
:100BB000854884420CD08548844209D084488442C8
:100BC00006D08448844203D0B02183A002F0B4FD53
:100BD00028680104090C01D0000C03D0B1217EA0CB
:100BE00002F0AAFD6868002825D00128FCD0112851
:100BF000FAD00228F8D01228F6D011210904884230
:100C0000F2D0212109048842EED031210904884222
:100C1000EAD0092149048842E6D0112149048842DA
:100C2000E2D0192149048842DED00328DCD0B22169
:100C300069A002F081FDC1E00120B04000900740B2
:100C40007ED028798007800F012801D002281CD18E
:100C5000E868002807D0012805D0032803D0C22166
:100C60005DA002F069FDA1687000032282409143FB
:100C7000EA6882400A43A260606800998843297943
:100C8000C906C90FB140014361602879C04380079C
:100C900013D0A868002807D0012805D0022803D067
:100CA000D3214DA002F048FDE1687000032282408C
:100CB0009143AA6882400A43E26028798007800F46
:100CC000022821D10920C006844209D03E4884422E
:100CD00006D04048844203D0E0213FA002F02CFD22
:100CE0002869062803D9E1213BA002F025FDF00880
:100CF00080000319196A7007C00E0F2282409143C9
:100D00002A6982400A431A622168700003228240E5
:100D100091432A799207920F82400A4322606868C1
:100D20008003800F49D03B488169012211438161D2
:100D30008069B10810400090374889000B1800E026
:100D40003BE09968B007000F0F22824091430922CF
:100D5000D206944201D100220FE01B4A944201D1F5
:100D600001220AE0194A944201D1022205E0184A00
:100D7000944201D1032200E0052282400A439A6096
:100D8000264908686A68B843D20300D5384308602A
:100D900048686A68B843920300D538434860886859
:100DA0006A68B843D20200D538438860C8686A6868
:100DB000B843920200D53843C860761C2F68384685
:100DC000F04000D038E7F8BD0004004800080048B3
:100DD000000C0048001400482E2E2F4472697665DE
:100DE00072732F53544D3332463078785F48414CFC
:100DF0005F4472697665722F5372632F73746D331B
:100E000032663078785F68616C5F6770696F2E63F7
:100E100000000000001002400000014000040140FA
:100E200070B515460C00064604D1FF21A33108A079
:100E300002F082FC002D08D0012D04D0FF21A43146
:100E400003A002F079FCB46170BDB46270BD000013
:100E50002E2E2F447269766572732F53544D3332A0
:100E6000463078785F48414C5F4472697665722FEE
:100E70005372632F73746D3332663078785F6861B4
:100E80006C5F6770696F2E63000000000148806826
:100E90007047000004000020024881680278891829
:100EA000816070470400002010B5064801681022D8
:100EB00011430160002000F007F800F027F800203F
:100EC00010BD00000020024070B504460D4D7D208D
:100ED0002978C000FFF702FB01460B480068FFF7C6
:100EE000FDFA01F0A5F9002809D1042C07D200224F
:100EF0002146401E00F04EF800206C6070BD0120BD
:100F000070BD0000040000201000002008B5084853
:100F10008169012211438161816911400091C26997
:100F200001040A43C261C0690840009008BD000086
:100F30000010024010B5040003D59B2105A002F06B
:100F4000FBFB002C05DBE106C90E0120884010499F
:100F5000086010BD2E2E2F447269766572732F5370
:100F6000544D3332463078785F48414C5F44726963
:100F70007665722F5372632F73746D3332663078D7
:100F8000785F68616C5F636F727465782E630000D0
:100F900000E100E070B50C460546042903D38B211F
:100FA00003A002F0C9FB2146284602F023FB70BDD6
:100FB0002E2E2F447269766572732F53544D33323F
:100FC000463078785F48414C5F4472697665722F8D
:100FD0005372632F73746D3332663078785F686153
:100FE0006C5F636F727465782E630000F8B50D4610
:100FF00004006FD02068C10707D1810705D44007DE
:1010000003D4614961A002F097FB002D06D0012DA9
:1010100004D05D495DA0491C02F08EFB6948006860
:10102000C007C00FA8420AD26648016849084900B3
:10103000294301600068C007C00FA84270D1206832
:10104000614E810724D5400704D570680721090245
:1010500008437060A068002814D0802812D090281F
:1010600010D0A0280ED0B0280CD0C0280AD0D0288C
:1010700008D0E02806D0F02804D0434943A020310E
:1010800002F05AFB7068F0218843A1680843706041
:101090002078C00734D0606800280DD001281AD00D
:1010A00002281BD0384939A0273102F045FB60687F
:1010B000012810D0022811D03068800700282FDACC
:1010C000706861688008800008437060FFF7DEFE8A
:1010D00007460EE024E030688003EFE730688001C7
:1010E000ECE7FFF7D3FEC11B3848814201D903204A
:1010F000F8BD70680C210840616889008842F0D111
:1011000030480168C907C90FA9420BD901684908CD
:101110004900294301600068C007C00FA84201D000
:101120000120F8BD207840071ED5E068002814D0C3
:1011300001218902884210D00521090288420CD081
:1011400003214902884208D007210902884204D0BD
:10115000E12189000DA002F0EFFA70680721090271
:101160008843E1680843706000F046F87168184AE7
:101170000906090F515CC840164908600020FFF7B6
:10118000A3FE0020F8BD0000160300002E2E2F4401
:101190007269766572732F53544D333246307878C6
:1011A0005F48414C5F4472697665722F5372632FBA
:1011B00073746D3332663078785F68616C5F726328
:1011C000632E6300002002400010024088130000DC
:1011D0000C440008100000200448054900684968D4
:1011E000044A4905490F515CC8407047100000206F
:1011F000001002401C44000810B514A00FC888B0AD
:101200006C460FC415A00FC80FC4184A53680C20B1
:10121000194601401648042916D0082914D199020C
:10122000090F6C46645CD16A04AA0907090F525C75
:10123000D90305D500231946FEF7D8FF214601E062
:1012400020460C4902F0BEF908B010BD02030405A7
:10125000060708090A0B0C0D0E0F101001020304FB
:1012600005060708090A0B0C0D0E0F1000100240AE
:1012700000127A0000093D00FEB504007ED0012670
:10128000206836040427FE4D00280ED0C1070FD178
:10129000810766D4010772D4410771D4C00670D4A7
:1012A000FF213A31F7A002F047FA2078C00755D065
:1012B0006068002808D0012806D0052804D0FF2146
:1012C0004031F0A002F038FA68680007800F01286A
:1012D00007D068680007800F022809D16868C0033A
:1012E00006D52868800339D560680028C6D035E067
:1012F000606801280BD0002801D0052811D028688B
:10130000B0432860286801218904884301E02868E7
:10131000304328606068002813D0FFF7B7FD0090C5
:101320000BE028680121890408432860EFE7FFF7F4
:10133000ADFD0099401A64287ED828688003F6D550
:101340000CE0FFF7A3FD009005E0FFF79FFD00997B
:10135000401A6428F0D828688003F6D420788007E3
:1013600055D5E068002806D0012804D0FF2174314B
:10137000C4A002F0E1F920691F2803E098E049E0E9
:101380007DE0F0E004D9FF217531BEA002F0D4F970
:1013900068680007800F07D068680007800F022880
:1013A00009D16868C00306D42868800717D5E068AB
:1013B00001287DD113E0E0680028286817D00121BA
:1013C00008432860FFF762FD009005E0FFF75EFD2F
:1013D0000099401A0228AFD828688007F6D52868F7
:1013E000F82188432169C900084328600FE04008BC
:1013F00040002860FFF74AFD009005E0FFF746FD3A
:101400000099401A022897D828688007F6D42078D7
:10141000000731D5E06900281DD0012807D0FF2141
:10142000B53198A002F088F9E069002813D0696A04
:1014300001200143696200E0C7E1FFF727FD00904A
:1014400005E0FFF723FD0099401A0228C3D8686A17
:101450008007F6D510E0686A400840006862FFF730
:1014600015FD009005E0FFF711FD0099401A0228D4
:10147000B1D8686A8007F6D42078400770D500207C
:101480000190A068002808D0012806D0052804D0C3
:10149000FF21E1317BA002F04FF9E869C0000BD4D5
:1014A000E969012000070143E961E969014000E0C1
:1014B000A5E101200091019080480168C90511D47F
:1014C0000168821511430160FFF7E0FC009005E020
:1014D000FFF7DCFC0099401A642894D8774800682C
:1014E000C005F5D5A06801280AD0002801D005283C
:1014F00011D0286A400840002862286AB84302E0F8
:10150000286A012108432862A068002812D0FFF74A
:10151000BDFC00900AE0286A38432862F0E7FFF734
:10152000B5FC0099411A664881428FD8286A800725
:10153000F5D50DE0FFF7AAFC009006E0FFF7A6FC4A
:101540000099411A5E48814292D8286A8007F5D4F2
:101550000198002804D0E869012109078843E8615F
:101560002078C00648D56069002807D0012805D03A
:10157000401D03D0534943A002F0DEF8A0691F28A4
:1015800004D950493FA0491C02F0D6F860690128EF
:101590000CD0401D686B24D038436863686B4008EA
:1015A00040006863FFF772FC074622E0686B38432F
:1015B0006863686B012108436863FFF767FC0746AF
:1015C00004E0FFF763FCC01B022886D8686B800725
:1015D000F7D5686BF8218843A169C900084368639F
:1015E0000AE0B8436863F4E7FFF750FCC01B022829
:1015F0009BD8686B8007F7D4206A00287ED001282A
:1016000009D0022807D02F491EA0743102F094F8A7
:10161000206A002872D068680007800F0228206ABC
:101620006DD001273F06022806D02868B8432860FD
:10163000FFF72CFC0446CAE0606A002806D0B042DE
:1016400004D020490FA07D3102F076F8A06A00286E
:1016500063D00121890488425FD0490088425CD070
:1016600003218904884258D001210905884254D0B9
:1016700005218904884250D00321C904884223E00F
:10168000001002402E2E2F447269766572732F531C
:10169000544D3332463078785F48414C5F4472692C
:1016A0007665722F5372632F73746D3332663078A0
:1016B000785F68616C5F7263632E63000070004046
:1016C000881300002602000027D0072189048842E1
:1016D00023D00121490588421FD00921890488426D
:1016E0001BD00521C904884217D00B2189048842E8
:1016F00013D00321090588420FD001E081E06AE0A0
:101700000D218904884208D00721C904884204D0E9
:10171000A92189003C4802F00FF8E06A002821D096
:1017200001281FD002281DD003281BD0042819D05F
:10173000052817D0062815D0072813D0082811D05F
:1017400009280FD00A280DD00B280BD00C2809D05F
:101750000D2807D00E2805D00F2803D02B492A4882
:1017600001F0EAFF2868B8432860FFF78FFB0646C0
:1017700004E0FFF78BFB801B022826D82868800135
:10178000F7D4E86AE16A000900010843E862A16A47
:10179000606A014368683D22120490430143696016
:1017A000286838432860FFF771FB044604E0FFF720
:1017B0006DFB001B022808D828688001F7D520E0BF
:1017C000FFF764FB001B022801D90320FEBD286837
:1017D0008001F5D415E00128F8D06868E96A02466E
:1017E000636A32409A420AD10907E26A090F9142BC
:1017F00005D10F2189040840A16A884201D0012047
:10180000FEBD0020FEBD000084160008A5020000F9
:10181000FEB5044600200290574856490068FEF77E
:101820005DFE6421484301900090206841682022B9
:10183000914341602168486840260006A5190028A8
:101840000BDA4E482065009800287DD0401E00909D
:10185000687F0728F7D101980090486840060BD5AB
:101860004748E064009800287CD0401E0090687FC4
:101870000728F7D1019800904868002780070028C2
:1018800029DA606D002826D04763606DFFF720F8E5
:10189000002800D0266620684168022291434160FA
:1018A000FFF7F4FA02466421204601F0CFF8002841
:1018B00000D0266620680168B1430160FFF7E6FAB0
:1018C00003210090642300224902204601F0E4F83D
:1018D000002800D0266620684068C0072BD0A06D85
:1018E000002828D04763A06DFEF7F2FF002800D043
:1018F000266620680168B1430160FFF7C7FA0090CF
:10190000642300228021204601F032F9002800D013
:101910002666FFF7BBFA03210090642300224902E8
:10192000204601F0B9F8002800D0266620684168FA
:10193000490849004160EF80E787206E402815D0B4
:1019400027662068C16801E008E00BE0816800912B
:1019500080680090012068770298FEBD206E3043B9
:10196000206678E7206E3043206683E701200290EE
:10197000E7E70000C05D000010000020F928000823
:1019800075280008F8B504007ED0AA49206888426E
:1019900007D0A949884204D0FF214831A7A001F00F
:1019A000CBFEFF2760680537002806D0B84204D078
:1019B000FF214931A1A001F0BFFE0125A068AD02C1
:1019C000002809D0A84207D06901884204D0FF212D
:1019D0004A319AA001F0B0FE0F21E0680902884266
:1019E00032D00721490288422ED00D2109028842B7
:1019F0002AD003218902884226D00B21090288427D
:101A000022D00521490288421ED0092109028842BC
:101A10001AD00121C902884216D007210902884242
:101A200012D00321490288420ED0052109028842C2
:101A30000AD0A84208D003210902884204D0FF211D
:101A40004B317EA001F078FEA069C11FFF39FA3941
:101A50000AD0002808D001218904884204D0FF213F
:101A60004C3176A001F068FE606B082806D0002893
:101A700004D0FF214D3171A001F05EFEE069002825
:101A800014D0082812D000E047E010280ED0182803
:101A90000CD020280AD0282808D0302806D0382892
:101AA00004D0FF214E3165A001F046FE206A0028D7
:101AB00006D0802804D0FF214F3160A001F03CFE09
:101AC000606A002600282AD0102807D0FF21503154
:101AD0005AA001F031FE606A002820D0E069002899
:101AE00012D0082810D010280ED018280CD020288A
:101AF0000AD0282808D0302806D0382804D0FF2162
:101B000062314EA001F018FE26616661254640351F
:101B1000A662687F002832D035E00120F8BD206938
:101B2000002806D0022804D0FF21533143A001F041
:101B300003FE6069002806D0012804D0FF2154313B
:101B40003EA001F0F9FD6068B84216D1E0690028B6
:101B5000DCD00828DAD01028D8D01828D6D02028F1
:101B6000D4D02828D2D03028D0D03828CED0FF21C9
:101B7000583132A001F0E0FDC8E7E661C6E72E77F4
:101B8000204600F077F8022068772068016840223C
:101B9000914301600723E1681B02994201D90020AB
:101BA00001E0012000030F221202914202D099426B
:101BB00000D0A6626168A36839402127BF023B407C
:101BC0001943236902273B401943237D3F02DB076A
:101BD000DB0F1943A3693B401943E36938273B40B6
:101BE0001943236A80273B401943A36ABF013B4046
:101BF000194323681960A1690423090C1940636A19
:101C000010273B401943636B08273B401943E368A7
:101C100013407A0219431040014320684160206854
:101C2000C16952109143C161266601206877002086
:101C3000F8BD000000300140003800402E2E2F4437
:101C40007269766572732F53544D3332463078780B
:101C50005F48414C5F4472697665722F5372632FFF
:101C600073746D3332663078785F68616C5F73705F
:101C7000692E630010B586B0044614216846FEF74D
:101C8000E6FB1149206888421CD11048C26909143A
:101C90000A43C261C2690A400592426909010A43C6
:101CA00042614069084005900720400300900220EF
:101CB0000021019003200291049103906946044899
:101CC000FEF76EFF06B010BD003800400010024065
:101CD00000040048FFB504464068FF212546002760
:101CE0000531403581B01E46884202D1A0680028E7
:101CF0000CD0287F012814D001202877FFF7C6F8E0
:101D00000090687F01280ED0022791E004206877B8
:101D1000029A009311462046039B00F06DF905B02E
:101D2000F0BD0220FBE7029800286ED0039800283F
:101D30007DD00420687700202066029921640399F1
:101D4000A9800399E980A063A087E087E06420650B
:101D500007200121E26800020903824220684268EC
:101D600001D98A4300E00A4342600122A068D203FD
:101D70004021904208D1206802688A4302602068AE
:101D800002680B029A43026020680268520602D47D
:101D900002680A4302600720E1680002814219D903
:101DA00036E020688168C90709D0007B216C087083
:101DB000206C401C2064E888401EE8800AE0FFF7A1
:101DC00065F80099401AB04202D3701C02D035E089
:101DD000002E33D0E8880028E3D11CE02068816819
:101DE000C90709D0C068216C0880206C801C206461
:101DF000E888401EE8800BE0FFF748F80099401A99
:101E0000B04203D3701C03D018E010E0002E15D0B0
:101E1000E8880028E2D131462046009A00F0DAFD39
:101E2000002801D020202066206E002800D0012745
:101E30000120687700202877384670E70327F7E706
:101E4000FFB504468068002781B01D46002807D0F2
:101E50000121C903884203D0584959A001F06CFC04
:101E600026464036307F01280AD001203077FFF720
:101E70000DF80090707F0399012804D0022796E0A6
:101E8000022005B0F0BD0298002873D0002971D05F
:101E90000320707700202066029AA263039AA2872B
:101EA000039AE2872064B080F0802065E06401201E
:101EB000A268C003824209D12068026840239A4385
:101EC0000260206802681B021A43026020680268F0
:101ED000520603D4026840231A4302600722E068D6
:101EE00012029042606825D9002801D001291DD135
:101EF000A06B21680088C86006E0206881688907B7
:101F000009D5A16B0988C160A06B801CA063E08F1C
:101F1000401EE0870AE0FEF7B9FF0099401AA84288
:101F200002D3681C02D038E0002D36D0E08F0028A4
:101F3000E3D125E0002801D001291ED1A06B216842
:101F40000078087306E020688168890709D5A16BCD
:101F500009780173A06B401CA063E08F401EE087EE
:101F60000BE0FEF793FF0099401AA84203D3681CC8
:101F700003D012E01AE0002D0FD0E08F0028E2D14C
:101F800029462046009A00F061FD002801D020205B
:101F90002066A068002802D005E0032707E020683B
:101FA000C16880680090206E002800D001270120C1
:101FB000707700203077384663E700003E0300006A
:101FC0002E2E2F447269766572732F53544D33321F
:101FD000463078785F48414C5F4472697665722F6D
:101FE0005372632F73746D3332663078785F686133
:101FF0006C5F7370692E6300FFB5044683B00020E8
:102000000090A06801260C9F002804D027214901D8
:1020100079A001F091FB25464035287F012810D09A
:1020200001202877FEF732FF0190697F62680698E9
:1020300001290DD0D31FFD3B08D1A268002A05D18C
:1020400002E0022007B0F0BD042901D00220D1E057
:102050000499002924D00599002921D000281FD0F7
:10206000697F042901D00521697700212166059A3D
:102070002264069AEA80069AAA80049AA263069AC3
:10208000E287069AA287E164216507230122E168BD
:102090001B021203994221684B6803D9934302E063
:1020A0000120A7E013434B6021680A68520603D45D
:1020B0000A6840231A430A600721E26809028A423B
:1020C000616841D9002901D0012836D1A06B21686F
:1020D0000088C860A06B801CA063E08F401EE08772
:1020E0002BE02068816889070ED5E18F00290BD08D
:1020F000012E09D1A16B0988C160A06B801CA0636F
:10210000E08F401EE087002620688168C9070CD058
:10211000E988002909D0C068216C0880206C801CE7
:102120002064E888401EE8800126FEF7AFFE019992
:10213000401AB84201D3781C5BD1E08F0028D0D17F
:10214000E8880028CDD143E0002901D0012839D109
:10215000A06B216800780873A06B401CA063E08F1F
:10216000401EE0872EE02068816889070ED5E18F48
:1021700000290BD0012E09D1A16B09780173A06B46
:10218000401CA063E08F401EE08700262068816825
:10219000C9070CD0E988002909D0007B216C0870A0
:1021A000206C401C2064E888401EE8800126FEF771
:1021B0006DFE0199401AB84202D3781C02D018E093
:1021C000002F16D0E08F0028CDD1E8880028CAD192
:1021D00039462046019A00F039FC002803D001203E
:1021E0000090202020660120687700202877009842
:1021F00028E703200090F6E72E2E2F4472697665BB
:1022000072732F53544D3332463078785F48414CC7
:102210005F4472697665722F5372632F73746D33E6
:1022200032663078785F68616C5F7370692E630026
:10223000094910B5401E884201D9012010BD074C44
:1022400060610321081F01F0D5F90020A06107207B
:102250002061002010BD0000FFFFFF0000E000E053
:10226000F8B50446EFF31081012080F31088206850
:102270000268FF23E1339A43026081F31088EFF391
:102280001081012080F31088206882685208520073
:10229000826081F31088206E1027012809D1EFF3A6
:1022A000108180F3108820680268BA43026081F3CD
:1022B0001088206881682546090680350026002997
:1022C00018DAEFF31081012282F3108882688023EC
:1022D0009A43826081F31088E06E00280AD046633A
:1022E000E06EFEF7F5FA002804D0E06EFEF710FB72
:1022F00020282FD020688168490618D5EFF3108177
:10230000012282F31088826840239A43826081F31D
:102310001088206F00280AD04663206FFEF7D8FA95
:10232000002804D0206FFEF7F3FA202812D02046B0
:1023300040304682468321680F2008622068816908
:102340000822114381612020A067E06726662E6085
:102350000020F8BD2F600320F8BD000010B5040078
:102360000CD0A06922490028224A206808D088425F
:102370000FD090420DD0FF212D3107E0012010BD7C
:10238000884206D0904204D0FF2132311AA001F0D9
:10239000D3F9A06F002805D10021742001552046F3
:1023A00000F048F82420A067206801684908490027
:1023B0000160204600F042FE0128E0D0606A00285B
:1023C00002D0204600F00EFD206841680122D202B2
:1023D00091434160206881680822914381602068B0
:1023E0000168012211430160204600F0F5FD10BD97
:1023F00000380140004400402E2E2F44726976655B
:1024000072732F53544D3332463078785F48414CC5
:102410005F4472697665722F5372632F73746D33E4
:1024200032663078785F68616C5F756172742E63B4
:102430000000000010B586B0044614216846FEF77F
:1024400006F81249206888421DD11148C26901214D
:1024500049040A43C261C2690A40059242690A43BB
:1024600042614069084005900C20009002200190D4
:102470000020029003200390012004900920694667
:10248000C006FEF78DFB06B010BD00000044004002
:1024900000100240FFB50446C06F85B016460F46D7
:1024A00020286FD1002F0AD0002E08D0A168C001CB
:1024B000814207D12069002804D1F80702D0012009
:1024C00009B0F0BD204660300090007D012859D051
:1024D0000098012101750020802108512221E16727
:1024E0002066FEF7D3FC2546403502902E836E838E
:1024F0000121A0680903FF22884204D12369002B2F
:1025000009D1214A07E0002801D0002203E0236915
:10251000002B00D07F22AA8392B20192884202D17E
:102520002069002808D03E46002700990020087541
:102530000198C0B2039018E00026F6E708980090D2
:10254000002220212046029B00F09EFE002801D0A0
:102550000320B5E72068002E808C0DD00399084039
:102560003070761C688B401E6883688B0028E5D12C
:102570002020E0670020A3E7019908403880BF1CB5
:10258000F0E7FFE702209BE7FF010000FFB50446EC
:10259000806F83B015460E4620285ED1002E0AD0EB
:1025A000002D08D0A168C001814207D12069002810
:1025B00004D1F00702D0012007B0F0BD2046603002
:1025C0000090007D012848D000980121017500206D
:1025D000802108512120A067FEF758FC274640378C
:1025E00001903D827D820120A1680003814202D1D9
:1025F0002069002805D0354600260099002008757E
:1026000011E00025F9E700228021204600F03CFE81
:10261000002815D1002D15D02168287808856D1C5B
:10262000788A401E7882788A019B0028069800905C
:10263000E9D100224021204600F026FE002808D0E3
:102640000320B9E730882168C005C00D0885B61C95
:10265000E6E72020A0670020AEE70220ACE7FEE717
:10266000F0B587B014216846FDF7F1FE27484269AE
:102670000121C9040A43426142690A400592426944
:10268000C9000A43426142690A4005924269491100
:102690000A43426142690A400592426949000A437D
:1026A000426140691A4E08408F1105900022394658
:1026B0003046FEF7B5FB07204003032400256A4699
:1026C00031C269461348FEF76BFA13486A4631C2B5
:1026D00009206946C006FEF763FA781E6A4631C2D1
:1026E00069463046FEF75CFA01210191029100979C
:1026F000039569463046FEF753FAC0206A4631C258
:1027000069460648FEF74CFA07B0F0BD00100240DB
:102710000004004800080048F39F0000001400482F
:1027200010B511480F490160FF21053141600021BA
:102730000722816012020161C2604161C161012210
:10274000016252024162826181620722C2620163B8
:1027500008214163FFF716F9002801D0FEF720F8A1
:1027600010BD000000380040E400002010B50E4805
:102770000C490160E1214902416000218160C16092
:10278000016181610C22C1614261016210214162DB
:1027900009028163FFF7E2FD002801D0FEF700F88F
:1027A00010BD00000044004048010020FEE77047D3
:1027B00070470000F7B582B0064603980024046015
:1027C0002B4F01226946049B3868FFF763FE050022
:1027D00030D168460078182811D006DC012809D0CD
:1027E000022809D0042816D116E0412829D06128F2
:1027F00011D126E080240FE00124A4020CE0012284
:102800006946049B3868FFF745FE002803D16846F7
:102810000078182813D00125684600783070802C85
:1028200008D3221DB11C049B3868FFF733FE050056
:1028300009D0002403980460284605B0F0BD0224A6
:10284000EAE70225E8E7F078B178FF2250408142BC
:102850000AD1301901794079090247182146301D03
:10286000FDF718FFB842E5D000240125E2E700009B
:10287000D400002038B50446006801684025A9430B
:1028800001601C481A490068FDF728FE642148438E
:10289000009020684168A94341600098002822D038
:1028A000401E0090206840684006F6D4FEF7EEFA1D
:1028B0000090642300228021204600F059F900286E
:1028C00000D02566FEF7E2FA03210090642300227F
:1028D0004902204600F0E0F8002800D025660720D5
:1028E0004034607738BD206E28432066DEE7000064
:1028F000C05D0000100000207CB504463448334918
:102900000068FDF7EBFD64214843019020684168B1
:102910008022914341604025019800284DD0401EFF
:102920000190206840680006F6D4FEF7AFFA024630
:102930006421204600F08AF8002800D0256620682F
:102940000168A9430160FEF7A1FA03267602009010
:10295000642300223146204600F09EF8002800D073
:10296000256620684168490623D54168A94341602E
:102970000198002825D0401E01902068406840063C
:10298000F6D4FEF783FA00906423002280212046CB
:1029900000F0EEF8002800D02566FEF777FA0090E8
:1029A000642300223146204600F076F8002800D04B
:1029B00025660720403460777CBD206E2843206662
:1029C000B3E7206E28432066DBE70000C05D00000F
:1029D00010000020F7B504464068FF26053682B097
:1029E0001546B0420CD10121A068C903884202D02B
:1029F0004911884204D12068016840229143016056
:102A00000095002280212046039B00F0B1F820278A
:102A1000002813D16068B04216D1A068B90288427C
:102A200002D0491188420FD10321009500224902AA
:102A30002046039B00F030F8002805D0206E384374
:102A40002066032005B0F0BD0020FBE7F8B50F4677
:102A50000B4615460092032104460022C90200F0ED
:102A60001BF82026002812D13B4600228021204658
:102A7000009500F07DF8002809D103213B46002293
:102A800049022046009500F007F8002803D0206E88
:102A9000304320660320F8BDFFB585B00F460446DD
:102AA000002069460E9D16460871FEF7EFF9411B9E
:102AB0000898451AFEF7EAF90390206823210C30A4
:102AC00002902A4800684843000D684346E003200E
:102AD0004002874206D1002E04D102980078694650
:102AE000087108790898401C39D0FEF7CFF903998E
:102AF000401AA84205D2002D03D0009800282BD000
:102B00002BE020684168E022914341606068C11F6A
:102B1000FD390CD10121A068C903884202D04911B6
:102B2000884204D12068016840229143016001215C
:102B3000A06A4903884207D1206802688A4302607C
:102B4000206802680A430260012040346077002058
:102B50002077032009B0F0BD0025401E00902068BA
:102B600080683840B042B2D10020F3E71000002066
:102B7000FFB581B01E4604460A9DFEF787F9401B4B
:102B8000351AFEF783F90746264800684001000D14
:102B9000684339E0701C38D0FEF778F9C01BA842B2
:102BA00005D2002D03D0009800282BD02BE0206800
:102BB0004168E022914341606068C11FFD390CD13A
:102BC0000121A068C903884202D04911884204D17A
:102BD000206801684022914301600121A06A4903F5
:102BE000884207D1206802688A4302602068026830
:102BF0000A430260012040346077002020770320E0
:102C000005B0F0BD0025401E009020688168029844
:102C1000884305D0002003998842BBD10020EFE70C
:102C20000120F8E7100000207047000010B50B49A4
:102C3000A5220A705A224A7005228A708222CA701E
:102C40000871FC20487100208871AA20C8710448CE
:102C5000642308220068FFF799FC10BD0C030020D4
:102C6000D400002038B50E4C0C48206000200090A5
:102C70006020FFF7DBFF0B4B20220B492068FFF79A
:102C800009FC20685A21095A202901D0012038BDA9
:102C9000FFF7E6FA684600F08DFB38BD48010020DA
:102CA000D4000020DC0500000C03002001B506481C
:102CB0000068816FA02901D120218167642301224E
:102CC0006946FFF763FC08BDD4000020F0B5054657
:102CD00000242B7820462246302B2CD16B78782B81
:102CE00001D0582B27D102241AE01E46413E052E62
:102CF00006D91F46613F052F02D93137092F13D856
:102D00001F461201303F092F01D83B4604E0052E33
:102D100001D8373B00E0573BD218641C0B2C04D27F
:102D20002B5D002BE1D103E000202B5D002B01D1B6
:102D300001200A60F0BD2B5D002B0ED06B2B01D063
:102D40004B2B03D1002C01D0920206E06D2B01D059
:102D50004D2B05D1002C03D0120501200A6007E09D
:102D60001E46303E092E09D80A267243303A9A1878
:102D7000641C0B2CDED20128DDD1F0BD0020F0BD9B
:102D800010B5FEF789F810BD30B591B03021684616
:102D9000FDF75DFB00240120009001900E940004DB
:102DA00009900F9400010D9402250A900C94089547
:102DB0000B946846FEF760FA002801D072B6FEE771
:102DC00007200C90012080020F900D950E94012198
:102DD0000CA8FEF70BF9002801D072B6FEE711B07F
:102DE00030BD704770B50446406AFF2804D9C7213A
:102DF000090168A000F0A0FCA08CC00710D001253C
:102E0000A06A6D04002805D0A84203D0704961A0D3
:102E100000F092FC20684168A26AA9431143416016
:102E2000A08C800711D50125E06A2D04002806D06A
:102E3000A84204D0664957A0C91D00F07DFC206857
:102E40004168E26AA94311434160A08C400711D553
:102E50000125206BAD04002806D0A84204D05C49AF
:102E60004CA00E3100F068FC20684168226BA94339
:102E700011434160A08C000711D50125606BED0363
:102E8000002806D0A84204D0514942A0153100F0D4
:102E900053FC20684168626BA94311434160A08CD8
:102EA000C00611D50125A06B2D03002806D0A8422D
:102EB00004D0474937A01C3100F03EFC20688168EF
:102EC000A26BA94311438160A08C800611D5012516
:102ED000E06B6D03002806D0A84204D03C492DA029
:102EE000233100F029FC20688168E26BA94311437B
:102EF0008160A08C400636D536492068884204D0CF
:102F0000334924A02A3100F017FC0125206C2D053F
:102F1000002806D0A84204D0652149011DA000F078
:102F20000BFC20684168226CA94311434160206C6E
:102F3000A84218D10325606C6D0500280DD0012131
:102F40004905884209D04900884206D0A84204D0E9
:102F50001F4910A0303100F0EFFB20684168626C1F
:102F6000A94311434160A08C000611D50125A06C36
:102F7000ED04002806D0A84204D0154905A0383138
:102F800000F0DAFB20684168A26CA943114341605C
:102F900070BD00002E2E2F447269766572732F5318
:102FA000544D3332463078785F48414C5F44726903
:102FB0007665722F5372632F73746D333266307877
:102FC000785F68616C5F756172742E630000000049
:102FD000750C000000380140F8B50446002580302B
:102FE0000560FDF753FF074620680068124E000792
:102FF00009D501213B46002249052046009600F0F4
:1030000043F900280DD12068006840070BD5012145
:103010003B46002289052046009600F035F900283D
:1030200001D00320F8BD2020A067E067256660344A
:1030300025750020F8BD0000FFFFFF01F8B504462C
:1030400040687A490025884203D3794979A000F085
:1030500073FB0126A0683603002806D0B04204D0D6
:10306000734974A0491C00F067FB0327E0683F0325
:10307000B0420CD000280AD0B84208D00121490340
:10308000884204D06A496BA0891C00F055FB206A75
:10309000002808D00121C902884204D0BF210901BB
:1030A00064A000F049FB206900280CD001218902AE
:1030B000884208D003214902884204D05C495DA0BF
:1030C000491D00F039FB60690C220146914301D192
:1030D000002804D1564957A0891D00F02DFBA06996
:1030E00000280FD0C11FF9390CD0C11FFF39FA39A0
:1030F00008D003210902884204D04D494DA0C91DC2
:1031000000F01AFB0126E069F603002806D0B04261
:1031100004D0474947A0083100F00EFBA1682069A0
:10312000E269014360691043014320680268504B23
:103130001A400A43026020684168E268B9431143BB
:103140004160216AA0690143206882680B231B0249
:103150009A430A43826047492068884210D1464812
:10316000006B8007800F11D0012805D0022805D000
:1031700003280AD1022009E0042007E0082005E026
:103180003E49884201D1002000E01020E2693C491C
:103190003C4FB24225D1002806D0022807D004288F
:1031A00007D0082839D108E0FEF716F803E00E46EC
:1031B00003E0FEF721F8060033D0616870004A088A
:1031C0008018FDF78BF980B201461039B94224D836
:1031D0002C49491C01400007420F20680A43C26085
:1031E0001FE0002806D0022807D0042807D00828AE
:1031F00013D108E0FDF7F0FF03E00E4603E0FDF712
:10320000FBFF06000DD0616848088019FDF766F9DC
:1032100080B201461039B94201D9012501E0216887
:10322000C86000206066A0662846F8BD818D5B00FE
:10323000ED0B00002E2E2F447269766572732F53AA
:10324000544D3332463078785F48414C5F44726960
:103250007665722F5372632F73746D3332663078D4
:10326000785F68616C5F756172742E6300000000A6
:10327000F369FFFF003801400010024000440040A5
:1032800000127A00EFFF0000FFB581B006460F463E
:10329000044660360A9D55E0681C53D0FDF7F6FDE4
:1032A0000499401AA84230D8002D2ED02068016819
:1032B000490747D5C069C043000543D401202168B0
:1032C000C0020862EFF31081012080F310882068AB
:1032D0000268FF23A1339A43026081F31088EFF361
:1032E0001081012080F31088206882685208520003
:1032F000826081F310882020A067E067803420601E
:1033000000203075032005B0F0BDEFF310810120DF
:1033100080F3108820680368FF22A1329343036082
:1033200081F31088EFF31081012080F3108820686A
:10333000826852085200826081F310882020A067C2
:10334000E067DDE72068C1693846884305D0002082
:1033500003998842A0D00020D5E70120F8E70000BB
:10336000074AFF31013140004900CB0500D5401C20
:10337000C30300D55040CB03F5D580B270470000A1
:103380002110000031B509A000F08CFA084C00288B
:1033900020600AD00122002100F06CFA01236A4665
:1033A0000021206800F0CBFA012038BD7570640060
:1033B000E0000020F1B500208EB00B9004460646D8
:1033C00004907C4800250068006A0C90EAE0002721
:1033D00008973846099732E07D22D20007A976483F
:1033E000FFF7E8F900280BD0022804D00498401C0D
:1033F00004901E287ED91820FFF758FC18200DE0F5
:1034000000200490079800280CD0022805D06A49B3
:103410008A78BA4215D01520BEE00620FFF746FC98
:103420000224BBE00A98002805D00620FFF73EFCE6
:1034300001200890B2E01520FFF738FC01200A9027
:10344000ACE0099A3A4322D0091D30180491A842F1
:103450000ED90598421B0120C004824200D90246C1
:1034600054482946006800F005FA002800DB2D18B2
:1034700050483146079B049A006800F060FA002823
:103480007DDB079836180620FFF710FC7EE00879F0
:1034900000286DD00020494B091D02E01A54401C41
:1034A000491C0A78002A01D02028F7D300221A5498
:1034B00010466B4601E01A54401C491C0A78202A29
:1034C00001D01028F7D30021195405A91846FFF799
:1034D000FDFB0E980599016005990C98814214D95D
:1034E0001820694608760123354C1B05012206A9E0
:1034F000206800E04FE0FFF749F801231B05012297
:1035000006A92068FFF742F80524059A6946100EBF
:103510000870100C4870100A88700120C004CA702E
:10352000824200D9024623482946006800F0A2F9E9
:10353000002800DB2D181F4804236A463146006826
:1035400000F0FDF9002809DB0620361DFFF7AEFB71
:103550004320FFF7ABFB0120099017E01820FFF78D
:10356000A5FB1820FFF7A2FB042417E007E0FFE704
:103570000620FFF79BFB012008900B900EE018201F
:10358000FFF794FB1820FFF791FB04247F1C192000
:10359000FFB2049002E04320FFF788FB0898204325
:1035A00000D119E70B98204300D110E720460FB057
:1035B000F0BD0000E00000202C0300200C030020E0
:1035C000D4000020F8B5040C8BB2264682B25E43CC
:1035D0000D0C1046370C58433604801900217941F0
:1035E00016466E43370C36048019794126466E43E1
:1035F0008919F8BD8307FF22DB0E9A408907090E5F
:103600009940002808DB830809489B0018180368C4
:1036100093430B43036070470007000F083883088B
:1036200004489B001818C36993430B43C361704758
:1036300000E400E000ED00E07047FFB587B00798B8
:1036400016462030019002900120059007980F4601
:10365000006989191D46814202D905200BB0F0BDD1
:1036600002988168002900D08847F8070CD02846C6
:103670003946012300906D1C7F1C1A46079800F004
:10368000DBFA04004DD1761E0121079800F027FCDB
:10369000040046D1AD20694608732FE00598002844
:1036A00014D003AC3946621C079800F0AFFA0198B9
:1036B000407D002801D0052200E004222878A05493
:1036C0006878A11848700020059005E028786946C0
:1036D00048736878012288730020009002980023C4
:1036E000446803A9921CA04704001AD1079800F06F
:1036F0003BFE040015D1AD1CB61EBF1C022ECDD260
:103700000021079800F0EBFB04000AD1012E0CD138
:1037100001231A4639460095079800F08DFA0400F7
:1037200003D00021079800F0DAFB0298C168002955
:1037300000D08847204691E770470000F8B50E4654
:103740000746002415E028206043C519284610309C
:1037500000F04CF800280BD0E9690269914204DBC3
:10376000064900208860401EF8BD0549A200885027
:10377000641CB442E7D30020F8BD0000980000208C
:10378000F802002010B50C4607492246C9680918FE
:103790000548001F006800F00EFC002802D0002041
:1037A000C04310BD204610BDA80000207FB50D46C7
:1037B0000121C906002446180394FDF7DDF90A48E3
:1037C00003A92818800A0290019600946846FDF724
:1037D000B3F80446FDF744F9002C03D00020C043A1
:1037E00004B070BD2846FBE7FF03000070B5094D2B
:1037F00006460024A00029580C223046FCF778FD2C
:10380000002804D0641C022CF4D3002070BDA0005A
:10381000285870BDA444000870B50A4D28780028C7
:1038200001D0002070BD084E0024A00030588069EF
:10383000002800D08047641C022CF6D30120287099
:10384000EFE7000095000020A444000810B5FFF742
:10385000E3FF074C002808DB00F040F8002804DDF7
:103860002178002903D1012100E00021217010BD41
:1038700094000020F8B5174605460C46C8190026E6
:10388000296AF64388420BD8284600F073F80028CE
:1038900006D0E969426A0B19394618469047F8BDC7
:1038A0003046F8BD70B5064600240B4D0AE02820CE
:1038B0006968604341183046091DFCF7CBFD0028BC
:1038C00005D0641CA8688442F1D3002070BD282074
:1038D00044436868201870BD9800002010B5084C5B
:1038E0002078002809D105210648A1606060FFF713
:1038F00025FF002801D101202070A06810BD000024
:10390000980000206C450008FFB51F4605460C4690
:10391000C8190026296AF64381B088420DD8284686
:1039200000F028F8002808D0E969C3690C193A4664
:1039300020460399984705B0F0BD3046FBE7FFB538
:103940001F4605460C46C8190026296AF64381B071
:1039500088420DD8284600F00DF8002808D0E96903
:10396000036A0C193A4620460399984705B0F0BD02
:103970003046FBE710B505494968401A2821FCF795
:10398000B7FD03498000085810BD000098000020D2
:10399000F8020020FEB5044600F050FC00286ED16D
:1039A0002546206900262035002808D0A08A002856
:1039B00005D0A069002802D0207F002844D19F2193
:1039C0006A461172032100916F68284601AB0122FB
:1039D00002A9B847002806D169460A7922734A79B4
:1039E00062738A79A273002849D1204600F0AEFBA9
:1039F00000281DD0A660206D20612046403001893E
:103A0000012939D00121A182616DA161007E207759
:103A10000120C1000A19516D002906D0A3698B420B
:103A200003D94032A161117E2177401C0428F0D3D4
:103A30002069002822D0A08A00281FD0A069002871
:103A40001CD0207F002819D02A4B227B0020C700E1
:103A5000FF183F79974202D0401C1028F7D3662008
:103A600069460871009600236F68012201A9284663
:103A7000B847002804D015E00221C4E70120FEBDAC
:103A8000204600F071FC9920694648710096002399
:103A900001226F682846491DB847002802D12046F8
:103AA00000F062FC0028EAD1217D490706D50022FA
:103AB0000121204600F0F3FB0028E0D1012221691A
:103AC0001206914214D901273946204600F007FA20
:103AD0000028D4D1B720694608710096646A002393
:103AE000012201A92846A0470028C8D16F75FEBD54
:103AF0006E75FEBD2444000810B500F0DFFA00200A
:103B000000F0D0FA06490028086006D0091D826935
:103B10004A6100690861002010BD0020C04310BD4B
:103B2000A400002010B5FDF727F803493420C86031
:103B3000FCF796FF012010BD00200240FDF7B4F90C
:103B4000FFF722F9FEF78CFDFEF710FEFEF7E8FD09
:103B5000002211460420FDF71DFA0420FDF7EAF9C2
:103B6000FFF774FE24A0FFF79DFE244C0123244A96
:103B700000212060FFF7C8FE002835DB20480078D0
:103B8000A5282FD006DC002808D05A2822D0A0284B
:103B90000CD103E0AA2812D0FF2807D119A0FFF703
:103BA00081FE2060FFF75EF800281DD1A020FFF7FE
:103BB000E9FB5520FCF780FD00280BD014E05520D0
:103BC000FFF7E0FB10A0FFF76DFE2060FFF74AF85B
:103BD000002809D15520FFF7D5FB5A20FCF76CFDD2
:103BE000002801D1FCF7DEFD7D20C000FCF792FE2D
:103BF000FCF740FFFEE7000075706400E000002065
:103C0000000000206661630064776E0030B52030EC
:103C1000407D002801D0042300E00323002007E0BA
:103C20001C1AE5000C46083DEC401454401CC0B280
:103C30009842F5D330BD0000FFB583B00398154618
:103C400020300190029004980026411903981F46E5
:103C50000069814202D9052007B0F0BD0298816851
:103C6000002941D088473FE00121039800F037F94F
:103C700006003BD1234A02201070521C049903987D
:103C8000FFF7C4FF0198407D002801D0052600E021
:103C9000042639460498FCF721FC002903D07C1A3D
:103CA000AC4205D303E0BD4201D93C4600E02C46BE
:103CB00004982D1B001904901248224680190C9973
:103CC000FCF766FB0020009002983219466800233A
:103CD0000C49B047060009D1039800F045FB0600E7
:103CE00004D10C9800190C90002DBDD1002103982F
:103CF00000F0F5F80298C168002900D088473046E6
:103D0000AAE70000F00100200B4610B50549144653
:103D1000C96809180348001F006800F0E3F920464D
:103D200010BD0000A8000020012310B5DB06C31859
:103D3000002404E018780870491C5B1C641C944241
:103D4000F8D3104610BDF0B5044689B005464E685C
:103D5000443424216846FCF77AFB24236A46314622
:103D6000284600F09FF800285AD1401CC0B209280C
:103D7000FBD368464078E0716846007800218007F0
:103D8000800F0122012802D0032849D101E0A2714D
:103D900000E0A171684600784007C00F21D00028DC
:103DA00002D0FF200130A080684600780007C00FD5
:103DB00019D0002809D0217268460078C006C00FCB
:103DC00013D0002801D00620607268468078400732
:103DD000800F0CD001280DD00228A1720BD0E17207
:103DE0001EE0A280E0E72272EFE75020ECE7A2722B
:103DF000E17201E0A272E2726E46F37930791D063B
:103E00002843B57976792D04360235432843DB09FA
:103E100009D0002B0FD040004008232807D9E160CB
:103E2000002009B0F0BDC008401CE06003E011466E
:103E3000C01E8140E160002001466D4642005219DB
:103E4000137F002B08D001269E40CB001B191E615A
:103E5000527F491C1A75C9B2401CC0B20428EDD368
:103E60000023D80001190869002813D0581C0EE05F
:103E7000C20012191569002D08D00E69AE4205D98D
:103E80000F7D0D61157D0D7516611775401CC0B253
:103E90000428EDD35B1CDBB2042BE2D3012020709D
:103EA000BFE700003EB509A430CC029501940C0C8C
:103EB0006D466C710C0AAC71E971009313460522D2
:103EC000446A01A92030A0473EBD00005A0000000E
:103ED000FF00000010B50120FCF71CFD10BDFEB571
:103EE0000C00054601D0062000E004206946087158
:103EF000002000900346012228466E6A01A9203066
:103F0000B04700280BD102A9284600F06AF9002822
:103F100005D16946097A002C02D0890702D5FEBD79
:103F20008907FCD50220FEBD7CB50546816A203597
:103F30000646002901D02846884701213046FFF770
:103F4000CEFF040020D1C72069460871307D0107EB
:103F5000002000290BDA94216A4651718021917169
:103F60009A21D1710090002304226C6803E0009034
:103F700000236C68012201A92846A047040003D150
:103F8000304600F0F1F9044600213046FFF7A7FF64
:103F9000E968002901D02846884720467CBD10B535
:103FA0000446FFF7F7FC2034002802D000212175D9
:103FB00010BD0121FBE7F7B5064686B02030019021
:103FC000029007981446011930690027814202D9EE
:103FD000052009B0F0BD0799002905D1A04203D101
:103FE0003046FFF7A1FFF4E70298816800294BD023
:103FF000884749E04420805D00280BD022463046A7
:10400000079900F0FAF8C00080195821095C009166
:10401000456D02E0307F0090B56901213046FFF721
:104020005EFF070032D169460098087303AA013287
:1040300030460799FFF7EAFD0198407D002801D03E
:10404000052200E004220020009002980023476827
:1040500003A9B847070019D1304600F085F90700D9
:1040600014D129460798FCF739FA002906D0681AB6
:10407000A0420BD20799241A401804E0AC4205D99B
:104080000798641B40190790002CB3D100213046DB
:10409000FFF725FF0298C168002900D088473846FD
:1040A00097E70000012804D27421484302494018D0
:1040B00070470020704700002000002070B50025E8
:1040C000074E2C467420604380194460FFF767FF59
:1040D000002800D00546641CF4D0284670BD0000BE
:1040E00020000020FFB583B006460446049817461A
:1040F00031692034C019884202D9052007B0F0BDCB
:10410000A1682046002900D08847304600F02CF9ED
:10411000050014D16946032008714A1D30460499F0
:10412000FFF774FD607D002801D0052200E0042225
:104130000097656801A92046069BA8470546E168E7
:10414000002901D0204688472846D7E77FB50025BB
:1041500004464434009501950646294625700823F7
:104160006A46FFF79FFE002839D168460078532839
:1041700035D168464078462831D168468078442851
:104180002DD16846C078502829D168460079A070A2
:10419000684642796270012A21D80821304600958C
:1041A0000B466A460195FFF77DFE002817D16B4646
:1041B000187818725878587298789872D978D97295
:1041C0009A889B791B041A430392012807D809296E
:1041D00005D302A93046FFF7B6FD04B070BD00203C
:1041E000FBE71CB505226B461A71012200920B46B3
:1041F000446A01A92030A0471CBDF7B50546416DB2
:10420000174600260198FCF769F9002901D0002023
:10421000FEBD0324E0004019416D002906D0B942DB
:1042200004D80198FCF75AF9002903D0002C02D0D9
:10423000641EEFE726463046FEBD000042680021BE
:10424000002A0BD1064A4262064A8262064AC262CC
:10425000064A0263064A8263064AC26308467047FA
:10426000E9420008E5420008E74200081400002087
:10427000D53E000860EA0000F8B50446A58A002093
:10428000EE0706D00093FF2301332046FFF7D4FC4E
:10429000F8BD6D07FCD52046FFF7CFF9F8BDFEB598
:1042A000044620340025164600290AD050206946CD
:1042B0000871009500236768012201A92046B847CC
:1042C00002E00121FFF70BFE00280AD10120694618
:1042D00008714E71009500236568022201A92046ED
:1042E000A847FEBD70477047FFB5046981B060689C
:1042F00000250A9E1746002803D021890022FCF7DA
:104300008FFD002F0ED07D23BAB21B0120680299C9
:10431000FDF796FD022801D0032803D12068FDF7A0
:1043200077FA0225002E0AD07D23B2B21B01206845
:104330000499FDF7CFFC022811D003280FD0002DDF
:1043400003D020680121403041776068002803D005
:1043500021890122FCF764FD284605B0F0BD2068E4
:10436000FDF756FA0325ECE738B5C46B05466946F8
:104370002846FFF736FF69460978C907C90F014388
:1043800008D0A86B002C04D0002800D08047641E01
:10439000EDE7042038BD00000B4610B50749144670
:1043A000C96809180548001F0068FFF765FF002865
:1043B00002D00020C04310BD204610BDA800002040
:1043C000F8B50C460121C90617464518FCF7D4FB81
:1043D0000D493420C86000260FE0228800232946BA
:1043E0000120FCF757FB28882188884202D0002052
:1043F000C043F8BDA41CAD1CB61CBE42EDD3FCF7F7
:104400002FFB3846F8BD00000020024000000000ED
:104410000000000001020304060708090000000074
:10442000010203045045000801000000584500083F
:1044300004000000F04400081C00000028450008AB
:104440001F0000004045000820000000E044000874
:1044500037000000484500086200000030450008B1
:1044600089000000F44400088C0000003845000872
:10447000A100000020450008AD000000FC44000839
:10448000BF00000014450008C8000000E844000810
:10449000D50000000C450008EF0000006045000852
:1044A000C2000000AC440008A800002073746D3303
:1044B000325F6F6E636869700000000800000100E1
:1044C00000040000253B0008293D0008C143000806
:1044D000AD370008100000005350493200000000C2
:1044E000414D49430000000049535349000000007A
:1044F000454F4E0045534D540000000053535400A7
:10450000573235513132384A5600000057696E62D1
:104510006F6E640047696761446576696365000092
:104520004879756E6461690041746D656C000000C6
:10453000496E74656C000000467564616E00000091
:104540004D6963726F6E000053616E796F000000F9
:10455000437970726573730046756A697473750088
:104560004D6963726F6E697800000000303150450C
:1045700061707000000000000000000073746D3373
:10458000325F6F6E636869700050000000AC00001D
:1045900000000000303150457570640000000000DC
:1045A0000000000073746D33325F6F6E6368697072
:1045B00000FC000000040000000000003031504505
:1045C0006661630000000000000000006E6F72660C
:1045D0006C61736830000000000000000000010002
:1045E000000000003031504564776E00000000008C
:1045F000000000006E6F72666C617368300000002E
:1046000000000100000001000000000030315045B2
:10461000656E760000000000000000006E6F72669C
:104620006C6173683000000000E0FF0000200000B3
:10463000000000005446000800000020E4000000D4
:10464000F800000838470008E4000020B413000018
:104650001401000800000000010000000400000038
:104660000000000000127A00E4000020000400486E
:1046700000100000004500080000000000000000DD
:10468000000000000000000000000000000000002A
:1046900000000000D84400080000000000000000F6
:1046A000000000000000000000000000000000000A
:1046B00000000000000000000000000000000000FA
:1046C00000000000000000000000000000000000EA
:1046D00000000000000000000000000000000000DA
:1046E00000000000000000000000000000000000CA
:1046F0000000000000000000000000006E6F726605
:104700006C617368300000000000000000000001D0
:1047100000100000F93A0008093D0008994300081C
:10472000853700080100000048010020000000005B
:08473000000000000000000081
:04000005080000B53A
:00000001FF
