:020000040800F2
:10500000101200201D52000883C0000803B90008D8
:1050100035C000089174000825D400080000000085
:10502000000000000000000000000000FDC20008B9
:10503000D77400080000000085C000089FC4000865
:10504000375200083752000837520008375200081C
:10505000375200083752000837520008375200080C
:10506000375200083752000837520008957400087C
:10507000375200083752000837520008A174000860
:1050800037520008375200083752000837520008DC
:1050900037520008375200083752000837520008CC
:1050A00037520008375200083752000837520008BC
:1050B00035C5000841C500083752000837520008BE
:1050C000375200083752000837520008375200089C
:1050D000375200080DD4000819D4000837520008D0
:1050E000375200083752000837520008375200087C
:1050F000375200083752000837520008375200086C
:10510000375200083752000837520008375200085B
:1051100045D0000851D000084DC50008375200089E
:10512000375200083752000837520008375200083B
:1051300000F002F800F062F80AA090E8000C824447
:105140008344AAF10107DA4501D100F057F8AFF224
:10515000090EBAE80F0013F0010F18BFFB1A43F055
:10516000010318470CA000002CA000000A444FF0D7
:10517000000C10F8013B13F0070408BF10F8014BB6
:105180001D1108BF10F8015B641E05D010F8016BFB
:10519000641E01F8016BF9D113F0080F1EBF10F85F
:1051A000014BAD1C0C1B09D16D1E58BF01F801CB82
:1051B000FAD505E014F8016B01F8016B6D1EF9D505
:1051C0009142D6D37047000000230024002500261A
:1051D000103A28BF78C1FBD8520728BF30C148BF5A
:1051E0000B607047642900F08380732900F074839A
:1051F000002070471FB51FBD10B510BD00F0BCFBEF
:105200001146FFF7F7FF08F0F9FF00F0DAFB03B4EF
:10521000FFF7F2FF03BC08F06AF900000948804775
:1052200009480047FEE7FEE7FEE7FEE7FEE7FEE788
:10523000FEE7FEE7FEE7FEE704480549054A064BA0
:105240007047000025C5000831510008100C0020EF
:1052500010120020100E0020100E00207047B2F136
:1052600020030AD5C2F1200320FA02F001FA03F369
:1052700021FA02F140EA0300704721FA03F04FF0EF
:10528000000170470FB4044910B503AA029800F05A
:1052900027FB10BC5DF814FB0000002070B50C4625
:1052A0000546012A05D02878800600D5EA69002342
:1052B00002E0012305E05B1C934202D2E05C00287F
:1052C000F9D1A869E618C01AA861286A18442862AA
:1052D0002846AFF3008004E0D5E9012114F8010B62
:1052E0009047B442F8D32846AFF3008070BD000069
:1052F0002DE9F0410646002410687529314616A5AF
:1053000010D0AFF30080002802DA404213A507E076
:1053100031688A0701D512A502E0490704D511A515
:10532000012401E0AFF3008000210A2206F12407E6
:1053300009E0B0FBF2FCB0FBF2F302FB1C003030E2
:1053400078541846491C0028F3D123462A46304693
:10535000BDE8F04100F03CBA000000002D00000064
:105360002B000000200000002DE9F05F8946044674
:105370004FF0000ADFF874B1FB44C0F820A02046CB
:10538000E1688847002874D0252806D0D4E9012197
:105390009047206A401C2062F1E700265F462046C5
:1053A000E16888472028054607DB312D05D27819AA
:1053B00010F8200C08B10643F1E7B00701D526F03C
:1053C0000406C4F81CA00027C4F818A02A2D09D090
:1053D000284608F085F838B304EB8708303DC8F854
:1053E000185019E059F8041B204604EB870291611C
:1053F000E1688847012F054618D1E069002820DAC6
:1054000026F020061DE0D8F8180000EB800005EB20
:1054100040003038C8F818002046E1688847054643
:1054200008F05EF80028EED1012F0AD02E2D08D109
:105430002046E16888477F1C0546022F46F020067B
:10544000C4DBA069002803DA404246F00106A061EF
:10545000F00701D026F010066C2D0BD0682D09D076
:105460004C2D39D06A2D35D0742D35D07A2D33D0CE
:1054700016E038E0E1682F4620468847B8420546E6
:1054800009D16C2F26D04FF48060E1680643204696
:105490008847054604E06C2F1AD04FF4807006430D
:1054A0000DB3A5F14100192802D8203546F4006655
:1054B0004A462946204626604E46FFF793FE80B1B5
:1054C00001280BD0F61D26F0070000F1080956E769
:1054D0004020E4E78020D8E70020D6E706F1040961
:1054E0004DE7284652E7206ABDE8F09F4C9C00003B
:1054F00010B5431C02E010F8011B71B18107FAD10D
:105500004FF0013202C88C1A8C4314EAC211F9D050
:10551000C01A0A0603D0C01E10BDC01A10BD0A046E
:1055200001D0801E10BD0902FCD0401E10BD40EA13
:10553000010370B59B072ED14FF00136042A2AD300
:1055400008C810C99D1B9D43121F15EAC61517D028
:10555000D8B2E1B2401A50EA056110D198B2A1B2B6
:10556000401A50EA05410AD123F07F4024F07F41E0
:10557000401A50EA052102D1180EA0EB146070BD4C
:10558000A342DBD018BA21BA884201D9012070BDEC
:105590004FF0FF3070BD0AB9002070BD10F8013B1C
:1055A00011F8014B63B1A3420AD1521E08D010F882
:1055B000013B11F8014B1BB1A34201D1521EEDD1A9
:1055C000181B70BD032A40F2308010F0030C00F06D
:1055D000158011F8013BBCF1020F624498BF11F82D
:1055E00001CB00F8013B38BF11F8013BA2F10402E6
:1055F00098BF00F801CB38BF00F8013B11F003035E
:1056000000F08081083AC0F0088051F8043B083A65
:1056100051F804CBA0E80810F5E7121D5CBF51F863
:10562000043B40F8043BAFF30080D20724BF11F8DD
:10563000013B11F801CB48BF11F8012B24BF00F842
:10564000013B00F801CB48BF00F8012B704702F086
:10565000FF0343EA032242EA024200F002B84FF09D
:1056600000020429C0F0128010F0030C00F01B802F
:10567000CCF1040CBCF1020F18BF00F8012BA8BF3D
:1056800020F8022BA1EB0C0100F00DB85FEAC17C01
:1056900024BF00F8012B00F8012B48BF00F8012BB4
:1056A00070474FF0000200B51346944696462039E5
:1056B00022BFA0E80C50A0E80C50B1F12001BFF4CB
:1056C000F7AF090728BFA0E80C5048BF0CC05DF831
:1056D00004EB890028BF40F8042B08BF704748BF7F
:1056E00020F8022B11F0804F18BF00F8012B7047F3
:1056F00010B5044610F0030F08BF11F0030F40F07F
:1057000015804FF0013E121FC0F20E8051F8043B8D
:10571000A3EB0E0C2CEA030C1CEACE1C08BF40F8CD
:10572000043BF0D0A1F1040102F10402521E08DB97
:1057300011F8013B002B00F8013BF7D11146FFF7B0
:105740008EFF204610BD00004FF0013C50F8042BA6
:1057500051F8043B9A4221D1A2EB0C03934313EA84
:10576000CC1317D150F8042B51F8043B9A4215D1B1
:10577000A2EB0C03934313EACC130BD150F8042B88
:1057800051F8043B9A4209D1A2EB0C03934313EA6C
:10579000CC13DBD04FF00000704700BFD01A01BA25
:1057A000B1FA81F101F0180122FA01F0CB40C1F108
:1057B0002001DBB2C0B2C01A2CFA01F3D11A914316
:1057C00011EAC311E6D170477047704770477047C0
:1057D0002DE9F0470D4699469246044600F124080B
:1057E0000168880604D5E06921F01001216000E01D
:1057F0000120A84201DD471B00E00027A1697A19BA
:1058000002EB0900081AA0612078C00602D42046E5
:10581000AFF30080002608E0D4E901211AF8060061
:105820009047206A401C761C20624E45F4DB2078AD
:10583000C0060AD52046AFF3008006E0D4E9012176
:1058400030209047206A401C2062381EA7F10107D3
:10585000F4DC07E0D4E9012118F805009047206A3C
:10586000401C2062281EA5F10105F3DC2046AFF3A1
:1058700000802078000602D50220BDE8F0870120D4
:10588000FBE7000001694A1C02610878704700B517
:105890008FB0CDE901310021059105497944CDE969
:1058A000031011466846FFF75FFD0FB000BD000012
:1058B000E5FFFFFF10B5436913B1AFF3008001E0CE
:1058C000FFF7ECFC012010BD127800F124010A70F2
:1058D00000224A700122EDE711684FF0FF32E9E73C
:1058E000074B70B50D467B44FFF7D1FF04462846B1
:1058F00000F03EF810B14FF0FF3070BD204670BD93
:105900004387000010B5203AC0F00B80B1E8185072
:10591000203AA0E81850B1E81850A0E81850BFF499
:10592000F5AF5FEA027C24BFB1E81850A0E8185038
:1059300044BF18C918C0BDE810405FEA827C24BF8C
:1059400051F8043B40F8043B08BF7047D20728BF1A
:1059500031F8023B48BF11F8012B28BF20F8023B69
:1059600048BF00F8012B704700487047B00B00207B
:10597000007B00F0800070477546FFF7F5FFAE46EC
:1059800005006946534620F00700854618B020B54B
:10599000FFF752FCBDE820404FF000064FF0000733
:1059A0004FF000084FF0000B21F00701AC46ACE8C7
:1059B000C009ACE8C009ACE8C009ACE8C0098D4634
:1059C000704710B50446AFF300802046BDE8104094
:1059D000FFF71DBC30B587B003F074FA1C21684690
:1059E000FFF75FFE0D4D11E0A86A01F035FEC4B26D
:1059F000182C10D322466946A86A06F034FC2146CA
:105A0000684607F01FFDA86A06F021FCA86A06F0A8
:105A100022FC0028E8D007B030BD000034EA0008BE
:105A200070B5044600688168C943C90716D181680A
:105A300021F00101816003F045FA054609E003F019
:105A400041FA401B022804D920688068C043C0077F
:105A500006D020688068C043C007F0D0002070BD29
:105A6000A06A40F01000A062E06A40F00100E0622D
:105A7000012070BD10B50146406A826A12F0500FD5
:105A800005D0006A026BBDE8104008461047816AE5
:105A900041F40071816201688968C1F342410729BC
:105AA0000CD1017B51B9816A21F480718162816AD4
:105AB000C90403D4816A41F00101816201F088FFC9
:105AC00010BD10B5406A816A41F040018162C16A2F
:105AD00041F00401C16201F07DFF10BD10B5406AC4
:105AE00001F077FF10BD0000F8B5002604460096CF
:105AF00000688168C943C9072CD0816841F0010161
:105B00008160154815490068B0FBF1F000E0401EC7
:105B100000900028FBD103F0D5F9054615E003F00D
:105B2000D1F9401B022810D920688068C043C00703
:105B30000BD0A06A40F01000A062E06A40F00100C3
:105B4000E06284F824600120F8BD20688068C043CA
:105B5000C007E4D10020F8BDAC03002040420F0094
:105B60000A4B30B403EBC00254788C420BD09478CB
:105B7000002C08D0517019B10121022203F8302005
:105B800030BC00F0FFBF30BC7047000000010020B7
:105B9000F8B50024104E274600212046FFF7E0FF0D
:105BA00006EBC4050097686800230122694607F0E8
:105BB00099FF20B968680122694608F03DF89DF810
:105BC000000000B10120A870641C14F0FF04E3D0B1
:105BD0000120B070F8BD00000001002030B40B4C73
:105BE00004EBC0029378002B0ED021B10123FF25D6
:105BF00004F8305000E0002354788C4204D05170F7
:105C000030BC194600F0BEBF30BC70470001002018
:105C100070B50E4D002405EBC400807880B115F8F6
:105C20003400FF280CD015F8340028B115F83400E2
:105C3000401E05F8340003E000212046FFF790FFE6
:105C4000641C14F0FF04E6D070BD000000010020C9
:105C50000149002008707047CE00002000200B4949
:105C6000012201EBC00301F83020401CC0B25A7081
:105C70000228F6D30220C870044810384860062075
:105C8000C87202480C38C86070470000D009002074
:105C900010B500F05BFC0B491928887001D8002072
:105CA00004E0232801D30A2000E01938C0B248706C
:105CB00000EB80004100002001F06AF8BDE81040D0
:105CC00001F0B4B8D0090020074910B500220A80BD
:105CD0001046012301F8102001EB40046370401CC2
:105CE00010F0FF00F6D010BD6A0000202DE9F04151
:105CF00000240B4D01262746200007D101F0A6F90C
:105D0000012801D0012000E0002038B105F814700E
:105D1000641C14F0FF04EFD0BDE8F0812E70F7E7AB
:105D20006A00002010B5FFF7CFFF00F02FF800F059
:105D300045FC00F02BF900F0A7FAFFF789FF00F00F
:105D40003DFB00F05FFD00F070FBFFF721FFBDE8B9
:105D50001040FFF783BF00000148807970470000C2
:105D60007400002001484079704700007400002052
:105D7000022807D2044A02EB001009B1232100E0F7
:105D80000A210181704700007C0900202DE9F041C3
:105D900020210B48FFF785FC0020094A094C01250A
:105DA0000346232602EB001154F82070CF608D705B
:105DB0000E818B72401CC0B20228F3D3BDE8F08183
:105DC0007C090020CCEA000800B50022104600F053
:105DD0004DF8022805D0521CD2B2022AF6D3002078
:105DE00000BD012000BD00002DE9F047012600257F
:105DF000DFF874902F46B04609EB0514A078002810
:105E000028460CD006F016FAF0B1A0880A2822D253
:105E1000A0883044A080A0880A281AD01BE006F091
:105E200009FA18B184F80280A78016E02088218939
:105E3000884212D2208830442080208821898842DC
:105E40000BD10220A07208E0208830442080A77087
:105E500003E0A772278084F802806D1CEDB2022D4A
:105E6000CAD3BDE8F08700007C090020022801D3D6
:105E7000FF207047024901EB0010807A7047000054
:105E80007C0900202DE9F8431D4616460F46804642
:105E9000002433463A4641462046009500F006F875
:105EA000641CE4B2032CF4D3BDE8F883F8B50D46C6
:105EB000DDF818E00646032832D2DFF868C006EBAA
:105EC000460000210CEB80040F4621606160A16058
:105ED0000CF820500120022D04D0A2806280012DF8
:105EE00008D009E0E3802381FF2101EB4E01A1727C
:105EF000022100E00121E072304601F04DF80097E8
:105F0000022D0DD00848815DA94209D08555801E1B
:105F1000D0F8020000900322694604A007F08CFE2E
:105F2000F8BD00009C090020C80000204C656449B1
:105F30006478000070B50E460546014614460220FE
:105F400001F004F83146002001F000F8214601205C
:105F500000F0FCFF0A49C878A84205D10879B04290
:105F600002D14879A04209D001F8035F4E708C70CD
:105F7000BDE87040032203A007F05EBE70BD0000C4
:105F8000C8000020636F6C6F720000002DE9FC47B1
:105F900024212B48FFF763FB01AB03226946294804
:105FA00007F0A0FD03280BD0FF208DF800008DF82E
:105FB00001008DF8020003226946224807F03CFEEA
:105FC0009DF802209DF801109DF80000FFF7B2FF38
:105FD000002501AB032269461B48009507F082FDAE
:105FE0001A4F10B1019A032A24D0012038701748A3
:105FF000801ED0F80200009003226946124807F084
:106000001BFE0F4E00244FF4FA784FF6FF79395DEE
:1060100004EB440006F82010009516F820104346C3
:106020004A462046FFF742FF641CE4B2032CEED33D
:10603000BDE8FC8769460548FFF7C4FAE1E70000C0
:106040009C090020845F00082C5F0008C800002025
:106050002DE9F0470024DFF8A0904FF4FA782646A7
:1060600004EB4401002519F821004B46022809D011
:1060700003EB81004288424525D34288A2F5FA729B
:10608000428021E003EB81021089404504D310894E
:10609000A0F5FA70108100E01681108928BBD07A33
:1060A000012801D0012500E00025D0881081907AD8
:1060B000FF2810D0907A401E10F0FF0090720AD195
:1060C00003F8216007E04680428872B98088A0F515
:1060D0007F42FF3A09D009EB8107F87AA84204D041
:1060E0002946204600F058FFFD72641CE4B2032CE0
:1060F000B6D3BDE8F08700009C09002010B5074C1E
:106100002188084480B22080B0F5FA7F05D3FFF7DC
:106110009FFF2088A0F5FA70208010BDC6000020E7
:1061200004488179002904D00168491C016000F00D
:1061300071BA704774000020014840787047000031
:10614000B20000200148408870470000B2000020E3
:1061500010B500F09DFE124B0020D871197A42F262
:10616000107009B1024611E01978B0FBF1F05978CE
:1061700001EB4102C2EBC1114FF6FF7202EAC1010D
:106180000A22B1FBF2F11A78B1FBF2F202F5967233
:1061900091B200F077FEBDE8104000F069B9000050
:1061A000B200002070B5104C0025A07900281AD04C
:1061B00000F06EFEE571217A42F2107009B10246DC
:1061C00009E02178B0FBF1F061884FF6FF7201EB36
:1061D000810102EA4102643291B200F053FEBDE84F
:1061E000704000F045B970BDB200002070B50024C9
:1061F000FFF7EAFD094D10B1687900B101240748A5
:10620000001F0178A14208D00470204600F04CF82D
:10621000AC71BDE8704000F055B970BD740000204D
:106220000A4910B54A798B7983420ED0887130B112
:10623000087900F069F8BDE81040FFF7B3BFBDE88A
:1062400010400021104600F0B3BC10BDB200002089
:106250000148807B70470000B2000020084910B55B
:10626000CA7B052801D3002010BD05498873054964
:1062700031F81010104600F09BFC012010BD00000A
:10628000B2000020D4EA000810B5002000F066F843
:106290000020FFF7C5FF002000F006F8BDE8104021
:1062A0000020FFF7DBBF00000D4910B5CA7982421C
:1062B00015D0C87138B100F0FDFD00F01FF80028BE
:1062C0000DD0012106E000F0E3FD00F017F80028F2
:1062D00005D00021BDE810400020FFF77FBC10BDB5
:1062E000B20000200148007970470000B200002091
:1062F0000148007870470000B20000200148007A91
:1063000070470000B20000200C4B10B55A791928D4
:106310000BD850B11871A3F1320101EB400030F8F5
:10632000021C9879012802D004E0002010BD10461C
:1063300000F03EFC00F082F8012010BDB200002009
:10634000411E052906D204490A78824202D008700B
:10635000FFF7FEBE70470000B20000200449002293
:1063600010B10120087200E00A72FFF7F1BE0000D0
:10637000B200002010B5411E0A2901D3002010BD33
:1063800004494A78824202D04870FFF7E1FE0120BA
:1063900010BD0000B200002010B5411E642901D3D9
:1063A000002010BD04494A88824202D04880FFF78D
:1063B000F9FE012010BD0000B200002004480021B9
:1063C000018001702D214170012181707047000012
:1063D000EA00002010B5052000F02CFE0422084938
:1063E00005F029FE074A002132F81130834203D21A
:1063F000491CC9B26429F7D30148001F017010BDC0
:10640000EE0000204CE900081CB50020ADF80400A7
:1064100040F6FF70ADF8060001A8009002232B2281
:106420008321602000F03AF91CBD00F065B800003F
:106430000148006870470000F80000201CB5FFF715
:1064400051FF401E0949C0B2022331F82020ADF8A7
:10645000042001EB80002C224088ADF8060001A842
:1064600000908321602000F019F91CBDDEEA0008CD
:106470001CB5FFF73DFF0446FFF740FF0021ADF8D4
:10648000041020B17820B0FBF4F0401C01E04FF67E
:10649000FF70ADF8060001A8009002232E22832190
:1064A000602000F0FBF81CBD1CB5FFF75BFCADF8ED
:1064B000040001A80090012300228321602000F045
:1064C000EDF81CBD1CB5FFF747FCADF8040001A8B2
:1064D000009001232F228321602000F0DFF81CBDF3
:1064E000FFF792BF034A1188814201D9081A108030
:1064F00070470000FC000020024840F2E931418072
:1065000001807047FC0000200148418801807047ED
:10651000FC0000207047000001490860704700003F
:10652000F800002008B102207047044800780128D4
:1065300001D0012070470020704700006A00002051
:10654000014800687047000074000020014800788E
:1065500070470000EA00002008B10220704703489D
:10656000007808B100207047012070476C000020BF
:10657000074808B5C1798DF80010017A8DF801102F
:10658000417A8DF80210807A8DF80300009808BDDA
:10659000740000201CB5084900208DF804000A7919
:1065A000824208D0087101A800900123FB228221B9
:1065B000102000F073F81CBD74000020074910B5CE
:1065C00000220A801046012301F8102001EB40044C
:1065D0006370401C10F0FF00F6D010BD6C0000206E
:1065E0002DE9F04100240A4D01262746200007D15D
:1065F00000F05AFD012800D0002008B12E7001E003
:1066000005F81470641C14F0FF04EFD0BDE8F081AD
:106610006C0000201CB5084800680223010CADF88E
:106620000410ADF8060001A800900B228221102072
:1066300000F034F81CBD0000740000200EB50020EE
:106640000290FFF795FF01909DF804008DF800007F
:106650009DF805008DF801009DF806008DF80200F8
:106660009DF807008DF803009DF803104FF6FF70AA
:106670009DF8022000EA01211144ADF808109DF8B0
:106680000110022300EA0120ADF80A0002A80090E0
:106690000C228221102000F001F80EBD2DE9F041FE
:1066A00088B00F4606461C469046202168460E9D3F
:1066B000FEF7F7FFA5208DF800005A208DF80100A5
:1066C000032004216B46832F13D000EB44008DF888
:1066D00002008DF804608DF803708DF805804FF08E
:1066E000060203D18DF806404FF007024FF000017B
:1066F00013E001EB4400EAE735F811004FEA1020FF
:10670000985402F10102D0B215F811201A5400F188
:10671000010001F10101C2B2C9B2A142ECD3602E65
:1067200001D0002000E00220194600F01BFE08B056
:106730000120BDE8F081000001490860FFF76ABF51
:106740007400002030B4044B0024DC71987259723C
:106750001A7230BCFFF772BF7400002070B50400DD
:1067600003D0FFF731FB00280DD1074D6879A04217
:1067700009D02046FFF754FD6C71BDE87040002140
:10678000084600F0A9BE70BD740000201149887948
:1067900000281ED0C879401CC0B2C871642818D324
:1067A0000022CA71087A401CC0B208723C280ED37D
:1067B0000A72487A401CC0B248723C2807D34A7219
:1067C000887A401CC0B28872182800D38A72FFF7FA
:1067D00035BF70477400002010B5FFF7D7FFFFF7F3
:1067E00003FBBDE81040FFF713BA0000032801D3F4
:1067F000FF207047024901EBC0008078704700001D
:10680000D20000207047000010B5084C207806F038
:106810000BFE2178A21C02EBC1029070491CC8B289
:106820002070032801D30020207010BDD00000206C
:1068300008B10020704702484170012070470000F5
:106840006A000020012801D900207047024A02EBAB
:1068500040004170012070476C00002081788079F1
:10686000102905D1AA2803D10121112000F034BE3E
:1068700070478078102805D0602807D100210220B9
:1068800006F002BA0021142000F026BE7047000076
:10689000F0B481784378C478102901D0602916D1EA
:1068A0000C4A0021151F0FE012F831609E4209D1F9
:1068B00002EBC1067688A64204D102EBC101496809
:1068C000F0BC0847491CC9B22E78B142ECD3F0BCE9
:1068D00070470000B80100200021132000F0FCBD2B
:1068E00070B505460679807810280ED100240AE09C
:1068F0002819807908B1012100E000212046FFF726
:1069000097FFA41CE4B2B442F2D370BD70B5054643
:1069100006798078102814D100240AE0281980799B
:1069200008B1012100E000212046FFF721FAA41C54
:10693000E4B2B442F2D3BDE8704000210A2000F076
:10694000CBBD70BD10B58178102914D10179022911
:106950000BD34179827902EB0121C279007A02EBF3
:10696000012100EB0120FFF7E7FE0021BDE8104008
:10697000102000F0B1BD10BD10B58178102908D1EC
:106980008079FFF7DDFC0021BDE81040082000F011
:10699000A3BD10BD10B58178102908D18079FFF70B
:1069A0005DFC0021BDE810400E2000F095BD10BD3B
:1069B00010B5817810290AD1807900B10120FFF744
:1069C000CDFC0021BDE810400B2000F085BD10BDBE
:1069D000704710B58178102908D18079FFF794FCB1
:1069E0000021BDE81040092000F076BD10BD10B5B3
:1069F0008178102908D18079FFF7BCFC0021BDE81F
:106A00001040062000F068BD10BD10B58178102937
:106A10000FD141794FF6FF72807902EA01210844D3
:106A200080B2FFF7B9FC0021BDE81040072000F05C
:106A300053BD10BD2DE9FC41817845798679C47933
:106A4000077A10291FD14FF6FF7800234FF4FA720E
:106A500041462846FFF716FA3A4621463046FFF7E8
:106A600069FA08EA05203044ADF8040008EA042079
:106A70003844ADF8060001A80090022314228221B8
:106A80001020FFF70BFEBDE8FC81704770B505468E
:106A900006798078102814D100240AE0281980791A
:106AA00008B1012100E000212046FFF7CBFEA41C25
:106AB000E4B2B442F2D3BDE870400021052000F0FA
:106AC0000BBD70BD10B5817810290AD1807900B155
:106AD0000120FFF743FE0021BDE81040084600F00A
:106AE000FBBC10BD7047704710B5817810290ED1DE
:106AF0000179022905D343798179C2791846FFF7D4
:106B000021FE0021BDE810400F2000F0E5BC10BDC3
:106B10000021152000F0E0BC10B581788079202993
:106B200019D008DC032916D0102914D1A02809D0C7
:106B3000AA2810D106E030290DD060290BD1AA284F
:106B400009D1902006F066FD0A2001F033FEBDE871
:106B5000104001F00FBF10BD70B5074C0B2520464B
:106B600000F084FD284602F00BFA2046BDE8704094
:106B70000622024901F0A2B8B00300200407002059
:106B80007047000010B50B4638B9084A9188106864
:106B9000127A89B21BB1012B04D0002010BDC2F1C2
:106BA0000102D2B202F058F9012010BDC0EA00087B
:106BB00070B50C46022817D80C4901EB001210885A
:106BC000D2E9025681B28C4200D90C4631462846A1
:106BD00001F094F9A04207D0234631462846BDE88B
:106BE0007040002201F022BA70BD000014EA0008D3
:106BF0002DE9F041094E002406EB04100021D0E9F4
:106C000002572046FFF7D4FF3946284601F05CFAC8
:106C1000641CE4B2022CEFD3BDE8F08114EA000852
:106C200070B5017F042912D008290FD101240B4D22
:106C3000297A012669B10A4901EB0411C96804F0F7
:106C400097FB2880204600F069F86E7270BD002422
:106C5000EDE70068002141622E7270BD70090020CE
:106C6000A0EA000870B50C4CA07A217A022501290F
:106C700006D0A179491CC9B2A1710A2907D870BDF3
:106C8000E1790A2903D0E079401CE07170BD00F081
:106C900045F8657270BD00007009002070B51D4D8B
:106CA000E97A002927D11C49002601EB0010D0E920
:106CB0000241206846622268B01E1061E1B10429D9
:106CC0001FD020680829C26820D042F01002C2609C
:106CD0000122206805F086FC2068C16841F00101AE
:106CE000C1602068016841F001010160EE71AE7180
:106CF0000120E8722E7270BD2068C26842F0020264
:106D0000E5E72068C26842F00402E0E742F00802CA
:106D1000DDE7000070090020A0EA00081A4910B55C
:106D200001EB0010D0E90241206811B3042924D0FE
:106D3000C268082925D022F01002C2600022206813
:106D400005F050FC2068C16821F00101C160206895
:106D5000016A41F21112114207D1016A92101142E7
:106D600003D1016821F00101016008490020C872C7
:106D700010BDC26822F00202DFE7C26822F00402FE
:106D8000DBE722F00802D8E7A0EA0008700900203B
:106D900002280BD20A4A02EB0012D2E9000232B1F9
:106DA000042A07D00068082A07D0016470470068E9
:106DB00041637047006881637047C163704700009A
:106DC000A0EA000810B5002400212046FFF7E0FFEC
:106DD0000121204600F006F8641CE4B2022CF3D333
:106DE00010BD00000A4602281DD20F4901EB001118
:106DF000D1E900011AB1012A15D103F019B849B13E
:106E000004290AD008290BD090F84520012A0AD07D
:106E100003F09CB890F84220F8E790F84320F5E79B
:106E200090F84420F2E77047A0EA0008134830B415
:106E3000417AF1B1417A0022012904D9817A00EB2B
:106E400041014A800DE00388C17940F27124614319
:106E500003EB01110A4BB3FBF1F1837A00EB43031F
:106E600059804272817A491C8172817A01F0010154
:106E70008172807A30BCFFF711BF000070090020DA
:106E8000A0860100014A1080518070470400002054
:106E900007480021026851630168CA6822F00202B3
:106EA000CA600068C16821F00101C160704700003C
:106EB000C8040020134910B511484A88098803689E
:106EC0005A630368D962C16004680023636204687E
:106ED000012363618A42016808D20A6922F0020232
:106EE0000A610168CA6842F0020202E0CA6822F040
:106EF0000202CA600068C16841F00101C16010BDB2
:106F0000C804002004000020FFF7C2BF7047000043
:106F100010B500F019F8FFF71FFEFFF7F5FFFFF7B8
:106F200067FE00F0A7FA00F0D3F8FFF7EFFF00F0DC
:106F300027F8FFF747FFFFF723FEBDE810400148A1
:106F400003F08CB9100500207047000003280CD214
:106F50000A4B53F8302003EBC000406830B10428DE
:106F600007D00828106807D0016470471068416393
:106F70007047106881637047C163704788EA0008F2
:106F800010B500240021204600F006F8641CE4B28D
:106F9000032CF7D310BD00000A460146032846D251
:106FA000234B53F8310003EBC10149686AB1012A50
:106FB0001FD0022A3BD181B3042932D0082933D013
:106FC00090F84120012A1DD008E049B104290AD0D7
:106FD00008290BD090F84120012A28D004F014B9D8
:106FE00090F83E20F8E790F83F20F5E790F8402031
:106FF000F2E749B104290AD008290BD090F84120C2
:10700000012A14D104F048B890F83E20F8E790F82F
:107010003F20F5E790F84020F2E7FFE790F83E20A8
:10702000D0E790F83F20CDE790F84020CAE77047BE
:1070300088EA0008062802D94FF6FF707047024917
:1070400031F81000704700000407002010B508B1A7
:10705000FF2010BD06498A880C7A086891B201F0B9
:10706000CFFEA04201D1012010BD002010BD0000C4
:1070700028E9000810B5022801D3FF2010BD094AF5
:1070800000EB400152F8210002EB81018A880C7A62
:1070900091B201F0B5FEA04201D1012010BD002047
:1070A00010BD000034E9000810B508B1FF2010BD84
:1070B00006498A880C7A086891B201F0A1FEA042C4
:1070C00001D1012010BD002010BD00007CEA0008A5
:1070D0007047000000B500F013F9032801D3002029
:1070E00000BD034900EB400001EBC000806800BD1B
:1070F00034EA000800B500F003F9032801D30020AA
:1071000000BD034900EB400001EBC000407900BD29
:1071100034EA0008F8B5044600680168C2684369AB
:1071200011F00F0F4FF020054FF0000666D003F06E
:10713000010702F4907C57EA0C0C6AD05FEAC17C2C
:1071400008D05FEAC25C05D5D0F800C0D0F804C012
:10715000CDF800C05FEA417C08D55FEAC37C05D06A
:10716000D0F800C0D0F804C0CDF800C05FEA817C40
:1071700004D5DB0702D0036840680090080707D5F4
:1071800002F02000384303D0606C40F008006064D7
:10719000606C00283CD0880604D5900602D52046B5
:1071A00000F0C0F820684169626CC1F380111207D9
:1071B00000D461B3016841680091C16821F4907105
:1071C000C1602068416921F00101416184F84250A9
:1071D00020684169490658D5416921F04001416163
:1071E0002046FFF777FF06462046FFF783FF054658
:1071F000E06B08B100F0E2FF2A4640E08B0608D5BC
:10720000930606D52046BDE8F84000F08BB86664CA
:10721000F8BDCB0647D5D30645D501684168009136
:107220004169490631D52046FFF754FF06462046FE
:10723000FFF760FF07462068C16821F48071C160D4
:107240002068416921F0010141612068416921F014
:107250004001416184F84250E06B00F08BFFE06B2D
:10726000006840680004000C08D0A18D814205D957
:10727000081AC2B23146204600F05EF83A4631465E
:107280002046BDE8F84004F0C5BAC16841F48071F9
:10729000C1602068416941F0010141612068C16815
:1072A00041F020011BE00B061BD5130619D594F8FD
:1072B00041102129ACD1216A4A1C2262097841601F
:1072C000E08C401E0004000CE084A1D12068C1685D
:1072D00021F08001C1602068C16841F04001C160B7
:1072E000F8BD4906FCD55106FAD5C16821F0400128
:1072F000C16084F841502046BDE8F84000F048B82D
:107300000146074A002000EB400352F833308B421D
:1073100004D0401CC0B20328F5D3FF207047000002
:1073200034EA000808B5016849688DF800100122A8
:10733000694600F001F808BD70B514460D46FFF728
:10734000DFFF03280BD2064900EB400001EBC00031
:10735000224600692946BDE8704004F0A7BF70BD11
:1073600034EA000810B503280ED200EB40030748AA
:1073700050F8334000EBC300406904F097FF20460B
:10738000BDE8104000F004B810BD000034EA000869
:1073900070B5064690F84100202824D13046FFF70A
:1073A000AFFF03281FD200EB40010F4800EBC105DF
:1073B000686900F051F90404240C14D0A879A042A3
:1073C00000D204462246E968686904F04CFF224670
:1073D0003046E96804F07BFA022804D13046BDE863
:1073E000704004F055B870BD34EA00080A4900EB5B
:1073F000400051F830000168CA6842F48072CA60E7
:1074000001684A6942F001024A610068C16841F0BE
:107410002001C1607047000034EA000870B51449CB
:1074200000EB400051F8304001EBC0004579866820
:1074300090F9040001F0A4FD2068C16821F4807176
:10744000C1602068416921F0010141612068C16883
:1074500021F02001C1602068C16841F01001C160C5
:107460002A4631462046BDE8704004F0D3B90000FA
:1074700034EA000810B500231846FFF7B7FF5B1C7D
:10748000DBB2032BF8D3BDE810400120FFF7C6BFE5
:10749000FEE70000014800F02BBF0000E0030020E1
:1074A000014800F025BF0000C006002030B590F86C
:1074B00040500124AC40C56B6C6004686360436855
:1074C000102B036803D099600068C26030BD9A60D9
:1074D0000068C16030BD7047044B03EBC00201B1CE
:1074E00091785170012103F8301070476802002034
:1074F00072B6FEE710B5012804D04FF4157108A04C
:1075000006F06AF816490020C8611648016941F082
:1075100004010161016941F04001016110BD0000F9
:107520002E2E2F447269766572732F53544D333269
:10753000463178785F48414C5F4472697665722FB6
:107540005372632F73746D3332663178785F68617C
:107550006C5F666C6173685F65782E630000000085
:10756000900B002000200240064A0021D16106490C
:107570000A6942F002020A614861086940F040006D
:1075800008617047900B002000200240044B00224D
:10759000DA61044A136943F0010313610180704703
:1075A000900B00200020024014490020CA68D30636
:1075B000134A04D5D06940F00200D0611020CB6896
:1075C0005B0705D5D36943F00103D36140F00400A4
:1075D000CB69DB0707D0D36943F00403D361CA69E1
:1075E00022F00102CA61A0F58072013A01D0C860A0
:1075F0007047C86920F00100C86170470020024050
:10760000900B002070B5044601F05CFC0546114E5D
:1076100009E0601C07D024B101F054FC401BA042DB
:1076200001D9032070BDF068C007F2D1F068800670
:1076300001D52020F060F068C00605D4F069C007CD
:1076400002D1F068400703D5FFF7AEFF012070BDFF
:10765000002070BD00200240D0E9012100688A1A94
:107660001044B0FBF1F201FB12007047F8B50026A0
:107670000446009600683949884209D03849884252
:1076800006D03849884203D07E2137A005F0A4FFF8
:1076900094F8240001280BD0012084F8240020460F
:1076A000FEF7BEF92046FEF71FFA070002D050E0B1
:1076B0000220F8BDA06A20F4885040F00200A062C9
:1076C000022001F065FD37490968B1FBF0F0400088
:1076D00000E0401E00900028FBD12068816841F046
:1076E0000801816001F0EEFB054608E001F0EAFBCD
:1076F000401B0A2803D920688068000715D4206839
:1077000080680007F2D42068816841F0040181603C
:1077100001F0D8FB054612E001F0D4FB401B0A281B
:107720000DD920688068400709D5A06A20F00200C2
:1077300040F01000A06284F824600120F8BD2068A9
:1077400080684007E8D4A06A20F0020040F0010001
:10775000A06284F824603846F8BD0000002401408F
:1077600000280140003C01402E2E2F4472697665AE
:1077700072732F53544D3332463178785F48414C01
:107780005F4472697665722F5372632F73746D3321
:1077900032663178785F68616C5F6164635F6578D9
:1077A0002E630000AC0300202DE9F84300260546B7
:1077B00000960068734F0C46B046B8420AD0724932
:1077C000884207D07149884204D040F2D67170A037
:1077D00005F002FF206830B3012824D0022822D00F
:1077E000032820D004281ED005281CD006281AD033
:1077F000072818D0082816D0092814D00A2812D033
:107800000B2810D00C280ED00D280CD00E280AD032
:107810000F2808D0102806D0112804D040F2D771C4
:107820005BA005F0D9FE6068012822D0022820D094
:1078300003281ED004281CD005281AD0062818D0EA
:10784000072816D0082814D0092812D00A2810D0EA
:107850000B280ED00C280CD00D280AD00E2808D0EA
:107860000F2806D0102804D04FF4FB6148A005F083
:10787000B3FEA06890B1012810D002280ED00328D2
:107880000CD004280AD0052808D0062806D00728DE
:1078900004D040F2D9713EA005F09EFE95F8240078
:1078A000012812D0012085F8240060681F220728D3
:1078B0000ED229684B6B401E00EB80008240934340
:1078C0002268824013434B631AE00220BDE8F8832C
:1078D00029680D280AD20B6BC01F00EB8000824084
:1078E00093432268824013430B6309E0CB6A0D384F
:1078F00000EB800082409343226882401343CB62B6
:107900002068072229680A280AD3CB680A3800EBC6
:10791000400082409343A26882401343CB6008E05A
:107920000B6900EB400082409343A26882401343FE
:107930000B612068102801D011281FD12868B84297
:1079400017D18168090219D4816841F4000181606E
:107950002068102812D11C481C490068B0FBF1F0C7
:1079600000EB8000400000E0401E00900028FBD1AA
:1079700004E0A86A40F02000A862012685F824806F
:107980003046A3E70024014000280140003C0140AC
:107990002E2E2F447269766572732F53544D3332F5
:1079A000463178785F48414C5F4472697665722F42
:1079B0005372632F73746D3332663178785F686108
:1079C0006C5F6164632E6300AC03002040420F00D3
:1079D00070477047704700002DE9F04704004FF0F2
:1079E00000057CD075492068754E884209D07549DC
:1079F000884206D0B04204D040F2A91172A005F02E
:107A0000EBFD606838B1B0F5006F04D04FF4D5716C
:107A10006DA005F0E1FDA0684FF4807930B14845D4
:107A200004D040F2AB1168A005F0D6FD207B30B148
:107A3000012804D04FF4D67163A005F0CDFDE069B4
:107A40004FF400284FF4402AB8B1B0F5003F14D0ED
:107A5000B0F5C02F11D040450FD0B0F5202F0CD07D
:107A600050450AD0B0F5802F07D0B0F5602F04D074
:107A700040F2AD1154A005F0AFFDA06800281CD065
:107A80002069401E0F2804D940F2B1114EA005F024
:107A9000A3FD207D88B1012806D04FF4D9714AA0FA
:107AA00005F09AFD207D40B1A069401E072804D949
:107AB00040F2B51144A005F08FFDA06A002728B957
:107AC000E76284F82470204600F0A0F82046FDF715
:107AD000A7FFA16AC90600D430B1A06A00E06AE03D
:107AE00040F01000A06266E0A16A21F4885141F0E4
:107AF0000201A1622368E169B34202D1514500D17C
:107B00004146267BCC4641EA460261680A43A168A9
:107B1000614508D0012906D0002194F81480B8F1FD
:107B2000010F02D00AE04946F7E7C6B1A66A46F05F
:107B30002006A662E66A46F00106E6625E6826F462
:107B400069460E435E6021688B682D4E33401343B7
:107B50008B60A16861450BD0012909D00CE0DFF8EA
:107B6000A480A66908EB46360E4346F40061E5E7BB
:107B7000218A0D05A5F580152168CB6A23F47003D1
:107B80002B43CB62216889681F4B1940914208D171
:107B9000E762A16A21F0020141F00101A162BDE8A2
:107BA000F087A06A20F0020040F01000A062E06AB6
:107BB00040F00100E0620120F1E7000000240140F4
:107BC000003C0140002801402E2E2F44726976654A
:107BD00072732F53544D3332463178785F48414C9D
:107BE0005F4472697665722F5372632F73746D33BD
:107BF00032663178785F68616C5F6164632E630020
:107C0000FDF7E1FF00E0FFFFFE0E1FFF70B586B03D
:107C100000240646009401940294039400682149CC
:107C200088423DD12049886940F4007088618869A4
:107C300000F400700490886940F00400886188694D
:107C400000F004000490886940F0100088618869A1
:107C5000032500F0100004908320CDE9000569465B
:107C6000124800F025FF1020CDE9000569461048B4
:107C700000F01EFF104D0F48C5E900048020C5E943
:107C8000024040002861800068612020C5E90604A8
:107C9000284600F051FC08B1FFF72AFC35626E62FD
:107CA00006B070BD002401400010024000080140F1
:107CB0000010014008000240E00300202DE9F047D9
:107CC00004460068414D90468946A84207D0404985
:107CD000884204D040F216613EA005F07DFC3B4E88
:107CE00020684A4F361DA84201D0B84207D13068FB
:107CF00010F4702F03D001252846BDE8F08794F8D2
:107D0000240001280CD0012084F824002046FDF72F
:107D1000EBFE05004FF0000104D084F82410EBE7DF
:107D20000220EAE7A06A40F60162904340F48070C6
:107D3000A0622068B84218D1326812F4702F14D0B3
:107D4000A06A40F48010A0623068400505D5A06AA2
:107D500020F4005040F48050A062A06AC0040AD50C
:107D6000E06A20F00600E06206E0A26A22F48012D7
:107D7000A2624068E9E7E16284F82410216A24489D
:107D80008862216A2348C862216A234808632168FF
:107D90006FF0020008602068816841F480718160A2
:107DA000216843464A464C31206A00F09DFC206819
:107DB0008168C1F342410729816803D041F48011F1
:107DC000816099E741F4A001FAE700000024014036
:107DD000003C01402E2E2F447269766572732F533A
:107DE000544D3332463178785F48414C5F44726974
:107DF0007665722F5372632F73746D3332663178E8
:107E0000785F68616C5F6164632E630000280140E5
:107E1000755A0008DD5A0008C35A00082DE9F041E0
:107E200016460D46040049D0002D47D02B68A3B15B
:107E3000042B12D00C2B10D0142B0ED01C2B0CD0DA
:107E4000242B0AD02C2B08D0342B06D03C2B04D06A
:107E500040F2F1311BA005F0BFFB686830B1022889
:107E600004D040F2F23117A005F0B6FB36B1102E67
:107E700004D040F2F33113A005F0AEFB6079012885
:107E80001ED0012363710220207121680F6806F063
:107E9000100040F6FE7282409743D5E900252A4340
:107EA00082403A430A6021680A68C0258540AA4397
:107EB0000A60237100206071BDE8F0810120FBE7BA
:107EC0000220F9E72E2E2F447269766572732F53C4
:107ED000544D3332463178785F48414C5F44726983
:107EE0007665722F5372632F73746D3332663178F7
:107EF000785F68616C5F6461632E630010B5040095
:107F00000AD059B1102904D04FF4727105A005F0C0
:107F100063FB2068006B10BD012010BD0068C06AC3
:107F200010BD00002E2E2F447269766572732F5398
:107F3000544D3332463178785F48414C5F44726922
:107F40007665722F5372632F73746D333266317896
:107F5000785F68616C5F6461632E630070B50400D4
:107F60000CD00D492068884204D040F22B110BA0A0
:107F700005F032FB2079002510B105E0012070BD2D
:107F80006571204600F026F802202071256101204D
:107F90002071002070BD0000007400402E2E2F4480
:107FA0007269766572732F53544D33324631787847
:107FB0005F48414C5F4472697665722F5372632F3C
:107FC00073746D3332663178785F68616C5F6461B9
:107FD000632E630000B585B00021009101910291EC
:107FE000039100680E49884218D10E48C16941F0DA
:107FF0000051C161C16901F000510491816941F0F2
:10800000040181618069694600F004000490302019
:10801000009003200190044800F04AFD05B000BD27
:10802000007400400010024000080140F8B507004D
:108030004FF000001E4614460D46009023D035B187
:10804000102D04D040F2493111A005F0C5FA44B119
:10805000042C06D0082C04D040F24A310CA005F0C4
:10806000BBFA4FF6F070864204D940F24B3108A0BB
:1080700005F0B2FA38680090204435B11430009011
:1080800006600020F8BD0120F8BD0830F7E70000C9
:108090002E2E2F447269766572732F53544D3332EE
:1080A000463178785F48414C5F4472697665722F3B
:1080B0005372632F73746D3332663178785F686101
:1080C0006C5F6461632E630070B50D46040027D0B9
:1080D00035B1102D04D04FF4E87118A005F07CFAEA
:1080E000607901281ED0012262710220207120686F
:1080F000036805F0100102FA01F6334303602068BB
:1081000095B1036803F470153C238B409D4203D165
:10811000416841F00201416022710020607170BD30
:10812000012070BD022070BD0168C1F383010F29D9
:10813000F2D1416841F00101EDE700002E2E2F44FD
:108140007269766572732F53544D333246317878A5
:108150005F48414C5F4472697665722F5372632F9A
:1081600073746D3332663178785F68616C5F646117
:10817000632E630010B590F821100022022905D06B
:108180000421816380F82020012010BD01680B6864
:1081900023F00E030B6001680B6823F001030B60F2
:1081A00090F84030012404FA03F1C36B596080F861
:1081B000214080F82020104610BD00002DE9F05F1E
:1081C00090F821100024022903D0042181630124A6
:1081D00085E001680A6822F00E020A6001680A68F8
:1081E00022F001020A603F4E3E4FB215DFF8F4C0A4
:1081F000DFF8F090DFF8ECA0DFF8E8B0DFF8E4E0BB
:108200000168783F13011502ACF1640CA9F1500923
:10821000AAF13C0AABF1280BAEF1140E4FF4801812
:10822000B14227D9B9420ED0614512D049451DD07F
:10823000514518D0594518D0714501D1424615E035
:10824000294EB14201D1012210E0274E1436B1422D
:1082500001D110220AE0244E2836B14206D0224A2B
:108260003C32914201D11A4600E02A461E49091FBC
:108270000A602BE0B94213D0614517D0494522D09E
:1082800051451DD059451DD0714501D142461AE0D6
:10829000B14202D14FF0807215E0134EB14201D1CC
:1082A000012210E0104E1436B14201D110220AE032
:1082B0000D4E2836B14206D00B4A3C32914201D1D4
:1082C0001A4600E02A46074980394A60012180F8B1
:1082D0002110002180F82010416B01B18847204611
:1082E000BDE8F09F8000024008040240806B7047A8
:1082F0002DE9F05FC16B0B6801680A68046C4FF0F0
:10830000040808FA04F8844D844E854FDFF814C23F
:10831000DFF81492DFF814A2DFF814B2DFF814E2E9
:1083200018EA030F65D05FEA427862D50A689206C0
:1083300003D40A6822F004020A60DFF8F0814FF4E7
:108340008062016808F1140813011402414524D920
:10835000A9420DD0B1420FD0B9421AD0614515D013
:10836000494515D0514501D1120312E0594501D1BB
:1083700004220EE0714501D140220AE06D4D143512
:10838000A94206D06B4A2832914201D11A4600E038
:1083900022466749091F0A6029E0A94213D0B14269
:1083A00015D0B94220D061451BD049451BD051455D
:1083B00002D14FF4800217E0414502D14FF08062B4
:1083C00012E0594501D104220EE0714501D140224D
:1083D0000AE0584D1435A94206D0564A2832914237
:1083E00001D11A4600E022464B4908394A60C16A69
:1083F00071E04FF0020808FA04F818EA030F70D091
:108400005FEA82786DD50A68920606D40A6822F07F
:108410000A020A60012180F82110DFF810814FF470
:108420000072016808F1140813011402414524D9AF
:10843000A9420DD0B1420FD0B9421AD0614515D032
:10844000494515D0514501D1120312E0594501D1DA
:1084500002220EE0714501D120220AE0354D14358B
:10846000A94206D0334A2832914201D11A4600E08F
:1084700022462F49091F0A6029E0A94213D0B142C0
:1084800015D0B94220D061451BD049451BD051457C
:1084900002D14FF4001217E0414502D14FF00072B3
:1084A00012E0594501D102220EE0714501D120228E
:1084B0000AE0204D1435A94206D01E4A28329142C6
:1084C00001D11A4600E02246134908394A600021CA
:1084D00080F82010816A00291CD0BDE8F05F0847B1
:1084E000FFE70825A5401D4214D0120712D50A68DF
:1084F00022F00E020A6090F84020C36B012101FABD
:1085000002F25A60816380F82110002180F8201067
:10851000016BE0E7BDE8F09F080002401C0002404C
:108520003000024044000240580002406C0002400B
:10853000080402401C04024070B504007ED05A4971
:1085400020685A4D88422DD057491431884229D08D
:1085500055492831884225D053493C31884221D0A1
:108560005149503188421DD04F496431884219D059
:108570004D497831884215D0A84213D04B49143167
:1085800088420FD04949283188420BD047493C31B5
:10859000884207D045495031884203D0992144A0F0
:1085A00005F01AF8606840B1102806D0B0F5804F89
:1085B00003D09A213EA005F00FF8A068402804D00F
:1085C00018B19B213AA005F007F8E068802804D094
:1085D00018B19C2136A004F0FFFF206948B1B0F526
:1085E000807F06D0B0F5007F03D09D2130A004F03D
:1085F000F3FF606948B1B0F5806F06D0B0F5006F49
:1086000003D09E212AA004F0E7FFA06928B120280A
:1086100003D09F2126A004F0DFFFE06960B1B0F530
:10862000805F09D0B0F5005F06D0B0F5405F03D0A1
:10863000A0211FA004F0D0FF142100E00CE020686E
:10864000A8420BD2184A52420244B2FBF1F189000F
:108650002164154908390AE0012070BD134A5242CD
:108660000244B2FBF1F18900216410490839E16349
:10867000022184F82110026843F6F0718A43F4E97C
:1086800001131943D4E902352B43194323691943D4
:1086900063691943A36919431143016000206063B2
:1086A00001216177207770BD080002400804024074
:1086B0002E2E2F447269766572732F53544D3332C8
:1086C000463178785F48414C5F4472697665722F15
:1086D0005372632F73746D3332663178785F6861DB
:1086E0006C5F646D612E63002DE9F041884604469D
:1086F0000025581E4FF6FF711E461746884204D3C8
:108700004FF4B7711DA004F067FF94F82000012812
:108710000DD0012084F8200094F8211000200129B8
:1087200007D084F8200002252846BDE8F081022009
:10873000FBE7022184F82110A0632068016821F082
:108740000101016033463A4641462046FEF7AEFE3F
:10875000E06A00282068016802D041F00E0106E0BE
:1087600021F0040101602068016841F00A01016004
:108770002068016841F001010160D5E72E2E2F44E9
:108780007269766572732F53544D3332463178785F
:108790005F48414C5F4472697665722F5372632F54
:1087A00073746D3332663178785F68616C5F646DC5
:1087B000612E630070B5044600F084FB0546601C22
:1087C00002D004480078044400F07CFB401BA04227
:1087D000FAD370BDA00300202DE9F05F04464A489B
:1087E0000F460126017E012941D0012180460176F4
:1087F000DFF818B120684CF2503940B1022839D066
:10880000A62143A004F0E8FE2068022832D0A06828
:10881000DFF83CA14FF0FF35B0F1006F0AD3BAF892
:108820000010B1F5007F38D0B1F5C07F3FD0494985
:1088300088420BD9E72136A004F0CEFEBAF800003A
:10884000B0F5007F2CD0B0F5C07F33D0D4E9020161
:1088500005EBC12101443F48814203D9E8212CA006
:1088600004F0BAFE4846FEF7CDFE50B346E00220C3
:10887000BDE8F09F4C464846FEF7C4FEA8BB012069
:10888000FEF738FE2046FEF7BDFEDBF81010064668
:1088900021F00401CBF8101030E02F498842C9D8EC
:1088A000D4E9020105EBC12101442B48D4E72B494F
:1088B0008842BFD8D4E9020105EBC1210144274811
:1088C000CAE73D60CA46D946A56811E02846FEF7CA
:1088D0004BFE5046FEF796FED9F81010060021F028
:1088E0000201C9F8101001D03D6007E005F50065F0
:1088F000D4E9020100EBC120A842E7D8002188F8A2
:1089000018103046B4E70000900B00200020024011
:108910002E2E2F447269766572732F53544D333265
:10892000463178785F48414C5F4472697665722FB2
:108930005372632F73746D3332663178785F686178
:108940006C5F666C6173685F65782E630000000081
:10895000E0F7FF1FFFFF0308FFFF0708FFFF050801
:108960000348016941F08001016100207047000067
:108970000020024000F0FABB2DE9F05F06462D48CA
:108980000D460024017E17469846012925D0012175
:1089900081460176012E07D0022E05D0032E03D08A
:1089A000B02125A004F018FEB5F1006F0AD33148BC
:1089B0000088B0F5007F13D0B0F5C07F12D02E48EC
:1089C000854203D9B1211CA004F006FE4CF2503AB6
:1089D0005046FEF717FE38B127E00220BDE8F09FB1
:1089E0002648EDE72648EBE7012E02D0022E00D004
:1089F0000426D346DFF88CA015E022014146384614
:108A0000FCF72DFC81B205EB4400FEF7BFFD584694
:108A1000FEF7F8FDDAF8102022F00102CAF8102063
:108A200018B9641CE4B2B442E7D3002289F81820D4
:108A3000D4E70000900B00202E2E2F44726976653B
:108A400072732F53544D3332463178785F48414C1E
:108A50005F4472697665722F5372632F73746D333E
:108A600032663178785F68616C5F666C6173682E1E
:108A700063000000E0F7FF1FFFFF0308FFFF070888
:108A8000FFFF050800200240064900200A6912067F
:108A900007D5054A4A60054A4A600969090600D5B2
:108AA000012070470020024023016745AB89EFCDCC
:108AB0002DE9F84FDFF8C0A24FF00008DFF8BCB294
:108AC0000D4604464746504514D05C4512D0AC488C
:108AD00084420FD0AB4884420CD0AB48844209D0CA
:108AE000AA48844206D0AA48844203D0BD21A9A046
:108AF00004F072FD28680104090C01D0000C03D0B9
:108B0000BE21A4A004F068FD686800281FD00128D9
:108B1000FCD01128FAD00228F8D01228F6D0AC499F
:108B20008842F3D0AB498842F0D0AB498842EDD0BF
:108B3000AA498842EAD0AA498842E7D0A94988428E
:108B4000E4D00328E2D0BF2192A004F045FD0CE15F
:108B5000012000FA08F906EA09064E4574D1544589
:108B600014D05C4512D0864884420FD08548844298
:108B70000CD08548844209D08448844206D0844879
:108B8000844203D0CD2183A004F026FD904A68687A
:108B9000811A904259D00EDC03286FD006DC0028E1
:108BA00053D0012819D0022869D131E0112821D0F1
:108BB000122864D13AE0B1F5881F46D006DCB1F541
:108BC000803F42D0B1F5801F59D13EE0B1F5001F82
:108BD0003BD0B1F5041F52D137E0E868022807D036
:108BE000012805D0032803D0D5216AA004F0F4FCA5
:108BF000EF6844E0E868022807D0012805D0032880
:108C000003D0DC2163A004F0E7FCEF683F1D36E0F1
:108C1000E868022807D0012805D0032803D0E32103
:108C20005CA004F0D9FCEF68083728E0E868022867
:108C300007D0012805D0032803D0EA2155A004F06D
:108C4000CBFCEF680C371AE08DE0A86878B10128FA
:108C50000FD0022807D0F7214EA004F0BDFCA86871
:108C600028B1012805D00827C4F8149007E004278C
:108C700005E00827C4F8109001E0FFE70027FF2E69
:108C800001D8214601E004F104014FEA880001D92E
:108C9000A0F120000A684FF00F0303FA00FC22EA5B
:108CA0000C0207FA00F042EA00020A606868C0009D
:108CB00059D54D48816941F001018161806928F0F1
:108CC000030100F00100009048480A18D2F808C0DB
:108CD0004FEA8870010F8B402CEA030C544501D1F8
:108CE000002018E05C4501D1012014E024488442B2
:108CF00001D102200FE02348844201D103200AE081
:108D00002148844201D1042005E02048844201D159
:108D1000052000E00620884040EA0C00906068686A
:108D2000C0023348016801D5314300E0B14301601E
:108D3000686880022F48016801D5314300E0B143E3
:108D40000160686880032C48016801D5314300E068
:108D5000B14301606868C0032848016801D5314308
:108D600000E0B143016008F101082E6836FA08F00E
:108D70007FF4EEAEBDE8F88F00080140000C014022
:108D8000001001400014014000180140001C014087
:108D9000002001402E2E2F447269766572732F5386
:108DA000544D3332463178785F48414C5F447269A4
:108DB0007665722F5372632F73746D333266317818
:108DC000785F68616C5F6770696F2E6300000000F8
:108DD00000001110000021100000311000001210DE
:108DE000000022100000321000100240000001407C
:108DF000080401400C040140040401400004014047
:108E000070B50C00054604D14FF4DA7103A004F0EC
:108E1000E3FBA868204000D0012070BD2E2E2F4417
:108E20007269766572732F53544D333246317878B8
:108E30005F48414C5F4472697665722F5372632FAD
:108E400073746D3332663178785F68616C5F677018
:108E5000696F2E630000000070B515460C000646D1
:108E600004D14FF4EA7108A004F0B6FB45B1012D1E
:108E700004D040F2D51104A004F0AEFB346170BD03
:108E80002004306170BD00002E2E2F44726976657B
:108E900072732F53544D3332463178785F48414CCA
:108EA0005F4472697665722F5372632F73746D33EA
:108EB00032663178785F68616C5F6770696F2E63C6
:108EC000000000000148806870470000A0030020F7
:108ED000024881680278114481607047A003002035
:108EE000074810B5016841F010010160032000F04F
:108EF000FDF80F2000F006F800F024F8002010BD67
:108F00000020024070B50D4D04464FF47A71287868
:108F1000B1FBF0F00A490968B1FBF0F000F02FFE58
:108F200048B9102C07D200222146501E00F090F8BC
:108F300000206C6070BD012070BD0000A003002007
:108F4000AC0300200C4808B5816941F00101816142
:108F5000816901F001010091C16941F08051C16155
:108F6000C069064900F080500090486820F0E06039
:108F700040F00070486008BD001002400000014051
:108F800010B5040003D5CD2109A004F025FB002C69
:108F90000DDB04F01F01012088406109890001F107
:108FA000E021C1F88001BFF34F8FBFF36F8F10BD79
:108FB0002E2E2F447269766572732F53544D3332BF
:108FC000463178785F48414C5F4472697665722F0C
:108FD0005372632F73746D3332663178785F6861D2
:108FE0006C5F636F727465782E63000010B50400C7
:108FF00003D5BD2107A004F0EFFA002C09DB04F033
:109000001F01012088406109890001F1E021C1F8B8
:10901000000110BD2E2E2F447269766572732F5396
:10902000544D3332463178785F48414C5F44726921
:109030007665722F5372632F73746D333266317895
:10904000785F68616C5F636F727465782E6300008F
:1090500070B514460D460646102A03D3A92113A065
:1090600004F0BAFA102D03D3AA2110A004F0B4FA28
:109070001D480068C0F30223C3F10700042800D98B
:109080000420191D072901D2002300E0DB1E012264
:1090900002FA00F1491E294099409A40521E22408E
:1090A0003046BDE87040114304F00ABA2E2E2F441A
:1090B0007269766572732F53544D33324631787826
:1090C0005F48414C5F4472697665722F5372632F1B
:1090D00073746D3332663178785F68616C5F636F8B
:1090E000727465782E6300000CED00E010B5044644
:1090F00007280BD0062C09D0052C07D0042C05D04E
:10910000032C03D0912108A004F066FA154A04F05C
:10911000070110684FF6FF03184040EA012012498A
:109120000843106010BD00002E2E2F447269766532
:1091300072732F53544D3332463178785F48414C27
:109140005F4472697665722F5372632F73746D3347
:1091500032663178785F68616C5F636F72746578CE
:109160002E6300000CED00E00000FA05BFF34F8F06
:1091700005480168054A01F4E06111430160BFF34D
:109180004F8F00BFFDE700000CED00E00400FA0582
:1091900070B505460024C0070CD1A8070AD468079B
:1091A00008D4280706D4E80604D44FF4CA712AA0CC
:1091B00004F012FA374E042D27D004DC012D28D0FC
:1091C000022D3ED13FE0082D1FD0102D39D17068FF
:1091D0003168C90135D53049C0F38342C0038C5C86
:1091E00009D57068891EC0F34040085C2B49B1FB6B
:1091F000F0F0444301E02A4844437068400220D420
:1092000060000321B0FBF1F41BE000F053FA0446C8
:1092100017E0306AC0F30121012903D1800701D58D
:10922000CC030EE0022905D1706A800702D549F609
:10923000404406E0032904D13068800301D54FF291
:109240002444204670BD00F025FA7168C1F38131D5
:10925000491C4900D6E700002E2E2F44726976651E
:1092600072732F53544D3332463178785F48414CF6
:109270005F4472697665722F5372632F73746D3316
:1092800032663178785F68616C5F7263635F6578BE
:109290002E63000000100240A0EF000800127A00C8
:1092A00000093D002DE9F84304460068514FC1070D
:1092B0000ED1810771D441077DD40107FCD4C006CB
:1092C0007AD46A214CA004F087F92078C00761D0D5
:1092D0006068002560B1B0F5807F09D0B0F5007FEF
:1092E00006D0B0F5407F03D0722143A004F074F99A
:1092F000F869C00008D4F86940F08050F861F86956
:10930000012500F0805000904A480168C90511D439
:109310000168804641F480710160FFF7D3FD064685
:1093200004E0FFF7CFFD801B642822D8D8F80000A6
:10933000C005F6D5386A10F4407020D0A18801F439
:10934000407181421BD0386A3B49012220F44070B1
:109350000A6000220A603862C00710D0FFF7B2FD31
:10936000064641F2883807E0FFF7ACFD811B414516
:1093700002D90320BDE8F883386A8007F4D5386A3B
:10938000616820F44070084338621DB1F86920F02C
:109390008050F8612078800717D5A06878B1B0F5C3
:1093A000804F0CD0B0F5004F09D0B0F5404F06D03B
:1093B000B72111A001E008E00AE004F00DF9786897
:1093C000A16820F44040084378602078C0060FD59B
:1093D0006069B0F5800F05D020B140F2131106A0EE
:1093E00004F0FAF87868616920F480000843786036
:1093F0000020BFE7001002402E2E2F4472697665D0
:1094000072732F53544D3332463178785F48414C54
:109410005F4472697665722F5372632F73746D3374
:1094200032663178785F68616C5F7263635F65781C
:109430002E63000000700040400442422DE9F047D6
:109440000D4604007DD02068C1070AD1810708D4E9
:10945000410706D4000704D440F2363172A004F06C
:10946000BBF845B1012D06D0022D04D040F23731B2
:109470006DA004F0B1F8DFF8E881D8F8000000F042
:109480000700A8420CD2D8F8001021F007012943A8
:10949000C8F80010D8F8000000F00700A84277D103
:1094A0002068704E810729D5400703D5706840F4C5
:1094B000E06070602078000703D5706840F4605069
:1094C0007060A068A0B1802812D0902810D0A02889
:1094D0000ED0B0280CD0C0280AD0D02808D0E02860
:1094E00006D0F02804D040F25D314FA004F074F8AB
:1094F0007068A16820F0F000084370602078C00711
:1095000035D0606868B101281CD002281DD04FF406
:10951000597145A004F060F86068012812D0022853
:1095200013D030688007002832DA7068616820F054
:10953000030008437060FFF7C5FC074641F2883915
:109540000EE025E030688003EDE730688001EAE74F
:10955000FFF7B8FCC11B494502D90320BDE8F087DD
:109560007068616800F00C00B0EB810FF0D1D8F8A2
:109570000010404601F00701A9420BD9016821F013
:10958000070129430160006800F00700A84201D0EC
:109590000120E3E720784FF4806540074FF4A0678F
:1095A0004FF4C0684FF4E06914D5E06860B1A84298
:1095B0000AD0B84208D0404506D0484504D040F211
:1095C000A23119A004F008F87068E16820F4E060A6
:1095D000084370602078000715D5206960B1A84263
:1095E0000AD0B84208D0404506D0484504D040F2E1
:1095F000A9310DA003F0F0FF7068216920F46050DC
:1096000040EAC100706000F055F87168164AC1F375
:109610000311515CC8401549086015480068FFF700
:1096200071FC00209AE700002E2E2F4472697665A7
:1096300072732F53544D3332463178785F48414C22
:109640005F4472697665722F5372632F73746D3342
:1096500032663178785F68616C5F7263632E630095
:109660000020024000100240B0EF0008AC030020D0
:10967000A40300200448054900684968044AC1F36E
:109680000221515CC8407047AC030020001002402A
:10969000C0EF00080448054900684968044AC1F35E
:1096A000C221515CC8407047AC030020001002404A
:1096B000C0EF00080E4B59680E4801F00C02042A56
:1096C00011D0082A0FD10C48C1F38342C903805C32
:1096D0000AD55968084AC1F34041921E515C054AB7
:1096E0005043B0FBF1F07047044948437047000015
:1096F0000010024000127A008EEF000800093D00C1
:109700002DE9F84F04007DD0DFF8EC83FB4D206895
:109710004FF0010B4FF000094FF4803A60B1C107E0
:109720000DD1810761D401076DD440076CD440F29C
:109730006511F3A003F050FF2078C00752D0606895
:109740004FF4A02640B1504506D0B04204D040F2BC
:109750006B11EBA003F040FF6868C0F381000128A3
:1097600007D06868C0F38100022809D16868C00387
:1097700006D52868800335D560680028C3D031E05D
:109780006068504503D1286840F4803009E008B192
:10979000B0420DD0286820F480302860286820F47A
:1097A00080202860606888B1FFF78CFB064609E0DE
:1097B000286840F480202860E5E7FFF783FB801BE2
:1097C000642875D828688003F7D50BE0FFF77AFB8B
:1097D000064604E0FFF776FB801B6428F1D8286872
:1097E0008003F7D4207880074DD5206930B1012857
:1097F00004D040F29F11C2A003F0EEFE60691F2862
:1098000008D902E096E041E079E04FF4D071BCA0C5
:1098100003F0E2FE686810F00C0F07D06868C0F330
:109820008100022809D16868C00306D4286880072F
:1098300013D5206901287DD10FE02069A8B1C8F8AF
:1098400000B0FFF73FFB064604E0FFF73BFB801B41
:109850000228B6D828688007F7D52868616920F003
:10986000F80040EAC10028600DE0C8F80090FFF75A
:1098700029FB064604E0FFF725FB801B0228A0D841
:1098800028688007F7D42078000735D5AA4EA0694C
:1098900020B3012806D04FF4F07199A003F09CFE8C
:1098A000A069D8B1C6F800B0FFF70CFB064605E08A
:1098B0004DE1FFF707FB801B02288FD8686A8007FD
:1098C000F7D59E484FF4FA510068B0FBF1F00090D4
:1098D00000BF0098411E0091FAD20DE0C6F800903A
:1098E000FFF7F0FA064604E0FFF7ECFA801B0228C7
:1098F000AFD8686A8007F7D42078400769D5E06858
:10990000002740B1012806D0052804D040F20F21DD
:109910007BA003F061FEE869C00008D4E86940F06C
:109920008050E861E869012700F080500090844889
:10993000016800E01FE1C90510D4016841F480719D
:109940000160FFF7BFFA064604E0FFF7BBFA801B91
:10995000642894D87A480068C005F6D5E0680128E4
:109960000AD008B1052811D0286A20F00100286229
:10997000286A20F0040002E0286A40F00100286212
:10998000E06898B1FFF79EFA06460BE0286A40F0BF
:1099900004002862F0E7FFF795FA811B41F2883056
:1099A00081428AD8286A8007F5D50DE0FFF78AFA48
:1099B000064606E0FFF786FA811B41F288308142B5
:1099C00096D8286A8007F5D41FB1E86920F0805046
:1099D000E861E06900287DD0012809D0022807D07D
:1099E00040F2AD2146A003F0F7FDE069002871D0F8
:1099F0006868C0F381000228E0696CD0022805D0B5
:109A0000C8F86090FFF75EFA0446A3E0206A30B120
:109A1000504504D040F2B62139A003F0DDFD606A64
:109A200070B3B0F5802F2BD0B0F5002F28D0B0F553
:109A3000402F25D0B0F5801F22D0B0F5A01F1FD039
:109A4000B0F5C01F1CD0B0F5E01F19D0B0F5001F55
:109A500016D0B0F5101F13D0B0F5201F10D0B0F500
:109A6000301F0DD0B0F5401F0AD0B0F5501F07D001
:109A7000B0F5601F04D040F2B72121A003F0ACFD87
:109A80004746C8F86090FFF71DFA064604E0FFF766
:109A900019FA801B02285AD828688001F7D4206A56
:109AA00050450FD1A06838B1B0F5003F04D040F266
:109AB000CD2113A003F090FD6868A16820F4003068
:109AC00008436860D4E908010843696821F4741107
:109AD000084301E051E041E06860C7F860B0FFF77B
:109AE000F1F9044604E0FFF7EDF9001B02282ED837
:109AF00028688001F7D540E0000042420010024093
:109B00002E2E2F447269766572732F53544D333263
:109B1000463178785F48414C5F4472697665722FB0
:109B20005372632F73746D3332663178785F686176
:109B30006C5F7263632E630080044242AC030020BA
:109B400000700040FFF7BEF9001B022802D9032075
:109B5000BDE8F88F28688001F4D40EE00128F7D022
:109B60006868226A00F48031914204D1616A00F48D
:109B70007010884201D00120EAE70020E8E710B524
:109B8000401EB0F1807F01D3012010BD4FF0E024D2
:109B900060610F21601703F093FC0020A061072093
:109BA0002061002010BD70477047000070B50C4662
:109BB000054600683E49884207D03E49884204D0A5
:109BC00040F2F1713CA003F007FD2068B0F5006F92
:109BD00005D020B140F2F27137A003F0FDFC6068BF
:109BE000B0F5806F05D020B140F2F37132A003F0E0
:109BF000F3FCA06868B1B0F5807F0AD0B0F5007FB3
:109C000007D0B0F5407F04D040F2F4712AA003F0F1
:109C1000E3FCE068FF2804D940F2F57126A003F0C8
:109C2000DBFC2069B0F5805F05D020B140F2F67111
:109C300021A003F0D1FC606938B1B0F5005F04D019
:109C400040F2F7711CA003F0C7FCE069B0F5804F4B
:109C500005D020B14FF4FF6117A003F0BDFC95F8CB
:109C60003C00012822D0012085F83C00E068A26871
:109C700020F440701043626820F480601043226832
:109C800020F400601043226920F480501043626980
:109C900020F400501043E269002120F4804010437A
:109CA0002A68506485F83C10002070BD022070BD09
:109CB000002C0140003401402E2E2F44726976653D
:109CC00072732F53544D3332463178785F48414C8C
:109CD0005F4472697665722F5372632F73746D33AC
:109CE00032663178785F68616C5F74696D5F657842
:109CF0002E6300002DE9F05F04460068364E374FB2
:109D0000DFF8DC80DFF8DC90DFF8DCA00D464FF0F8
:109D1000804BB04214D0B84212D0584510D04045C4
:109D20000ED048450CD050450AD03049884207D063
:109D30002F49884204D040F2B4712EA003F04CFCAD
:109D4000286890B1102810D020280ED030280CD0D0
:109D500040280AD0502808D0602806D0702804D0A7
:109D600040F2B57123A003F037FC6868802805D065
:109D700020B140F2B6711FA003F02EFC94F83C0015
:109D8000012827D0012284F83C20022084F83D00DD
:109D900020684368816823F0700C2B6843EA0C0349
:109DA00043602068B04209D0B84207D0584505D07A
:109DB000404503D0484501D0504504D16B6821F09F
:109DC00080010B43836084F83D20002084F83C0030
:109DD000BDE8F09F0220FBE7002C01400034014069
:109DE0000004004000080040000C0040001000404B
:109DF000001400402E2E2F447269766572732F5323
:109E0000544D3332463178785F48414C5F44726933
:109E10007665722F5372632F73746D3332663178A7
:109E2000785F68616C5F74696D5F65782E630000B0
:109E30002DE9F04105460068304E314F0C46B042E6
:109E400004D1DCB1042C1CD0082C1DD0B84204D1A4
:109E5000A4B1042C15D0082C16D040F25A4129A0E8
:109E600003F0BAFB54B1042C0BD0082C0CD095F89D
:109E7000450001280BD00120BDE8F08195F8420093
:109E8000F7E795F84300F4E795F84400F1E702207E
:109E90005CB3042C2CD0082C2DD085F8450004226E
:109EA0002146286802F0FAFB2868416C41F4004121
:109EB00041642868B0420DD0B8420BD0B0F1804F59
:109EC00008D01F49884205D01E49884202D01E4949
:109ED000884204D1816801F00701062903D0016896
:109EE00041F0010101600020C6E785F84200D6E795
:109EF00085F84300D3E785F84400D0E7002C014003
:109F0000003401402E2E2F447269766572732F53F0
:109F1000544D3332463178785F48414C5F44726922
:109F20007665722F5372632F73746D333266317896
:109F3000785F68616C5F74696D5F65782E6300009F
:109F40000004004000080040000C004070B50C46C2
:109F5000054600682349884204D184B1042C0ED000
:109F6000082C0CD02049884204D144B1042C06D0DE
:109F7000082C04D040F28A411CA003F02DFB0022E3
:109F80002146286802F08AFB2868026A41F2111310
:109F90001A4240F2444106D1026A0A4203D1426C9D
:109FA00022F4004242642868026A1A4206D1026A18
:109FB0000A4203D1016821F00101016001203CB196
:109FC000042C08D0082C09D085F84500002070BD6D
:109FD00085F84200FAE785F84300F7E785F8440082
:109FE000F4E70000002C0140003401402E2E2F44E5
:109FF0007269766572732F53544D333246317878D7
:10A000005F48414C5F4472697665722F5372632FCB
:10A0100073746D3332663178785F68616C5F746930
:10A020006D5F65782E63000010B5040051D03C4987
:10A030002068884219D03B49884216D0B0F1804F41
:10A0400013D03949884210D0384988420DD0384958
:10A0500088420AD03749884207D03749884204D01D
:10A0600040F2131135A003F0B7FAA06860B11028D0
:10A070000AD0202808D0402806D0602804D04FF409
:10A080008A712EA003F0A8FA206950B1B0F5807F44
:10A0900007D0B0F5007F04D040F2151127A003F0DF
:10A0A0009BFAE0684FF6FE71401E884204D94FF4D7
:10A0B0008B7122A003F090FAA06930B1802804D0FF
:10A0C00040F217111DA003F087FA94F83D0010B17B
:10A0D00007E0012010BD002084F83C00204600F07D
:10A0E00049F8022084F83D00211D206802F034FA6E
:10A0F000012084F8460084F83E0084F83F0084F88C
:10A10000400084F8410084F8420084F8430084F859
:10A11000440084F8450084F83D00002010BD000094
:10A12000002C0140003401400004004000080040C1
:10A13000000C004000100040001400402E2E2F4460
:10A140007269766572732F53544D33324631787885
:10A150005F48414C5F4472697665722F5372632F7A
:10A1600073746D3332663178785F68616C5F7469DF
:10A170006D2E630000B585B0002100910191029120
:10A18000039100682F4A3049904209D1886940F410
:10A1900000608861886900F40060049005B000BD2B
:10A1A000B0F1804F13D0294A904239D1C86940F0AC
:10A1B0000200C861C869002200F002000490114644
:10A1C0001D20FEF745FF1D20FEF710FFE6E7C869DA
:10A1D00040F00100C861C86900F00100049088697E
:10A1E00040F0080088618869694600F00800049022
:10A1F0004FF440600090012002901548FEF758FC93
:10A200001449486820F4407040F0E06040F4007069
:10A210004860002211461C20FEF71AFF1C20D3E7DD
:10A220000D4A9042BAD1C86940F01000C861C869AF
:10A23000002200F01000049011463620FEF708FFBF
:10A240003620C1E7002C014000100240000400400D
:10A25000000C014000000140001000402DE9F047D3
:10A2600007460068234C244D244EDFF89480DFF825
:10A2700094904FF0804AA04214D0A84212D050458A
:10A2800010D0B0420ED040450CD048450AD01E49EF
:10A29000884207D01D49884204D04FF4E8711CA0C1
:10A2A00003F09AF997F83D00012802D00120BDE89B
:10A2B000F087022087F83D003868C16841F001014D
:10A2C000C1603868A04209D0A84207D0504505D0E7
:10A2D000B04203D0404501D0484504D1816801F027
:10A2E0000701062903D0016841F001010160002047
:10A2F000DDE70000002C0140003401400004004074
:10A3000000080040000C0040001000400014004015
:10A310002E2E2F447269766572732F53544D33324B
:10A32000463178785F48414C5F4472697665722F98
:10A330005372632F73746D3332663178785F68615E
:10A340006C5F74696D2E63002DE9F05F054690F82F
:10A350003C000C464FF0000B01283ED0012085F850
:10A360003C00022085F83D0020684FF480594FF4EE
:10A37000005A484515D0702813D0504511D04028B8
:10A380000FD050280DD060280BD050B1102808D025
:10A39000202806D0302804D041F2BE41BDA003F0F1
:10A3A0001BF92868816821F0770121F47F418160E1
:10A3B0002068C649C64AC74BC74EC84F4FF0804CAD
:10A3C0004FF40048502872D00FDC202804D007DC5E
:10A3D0000028FBD010286BD13CE10220BDE8F09FA3
:10A3E0003028F9D04028F6D105E160287DD07028CA
:10A3F0005FD0484542D05045EDD1286888420ED004
:10A4000090420CD060450AD0984208D0B04206D0A5
:10A41000B84204D041F2E9419EA003F0DDF8A06803
:10A4200058B1484509D0504507D0B0F5405F04D039
:10A4300041F2EC4197A003F0CFF86068404509D0A5
:10A4400040B1022806D00A2804D041F2ED4191A083
:10A4500003F0C2F8E0680F2804D941F2EE418DA064
:10A4600003F0BAF8D4E90121E368286802F023F97F
:10A470002868816841F48041816002E1286888424F
:10A48000FBD09042F9D06045F7D09842F5D0B04269
:10A49000F3D0B842F1D092498842EED09149884237
:10A4A000EBD041F2CA417BA003F096F8E9E042E02C
:10A4B000E5E0286888420ED090420CD060450AD072
:10A4C000984208D0B04206D0B84204D041F2D141FF
:10A4D00070A003F081F8A06868B148450BD05045E2
:10A4E00009D0B0F5405F06D000E053E041F2D4411E
:10A4F00068A003F071F86068404509D040B10228B7
:10A5000006D00A2804D041F2D54162A003F064F8D5
:10A51000E0680F2804D941F2D6415EA003F05CF850
:10A52000D4E90121E368286802F0C5F82868816849
:10A5300041F07701A0E7286888420ED090420CD005
:10A5400060450AD0984208D0B04206D0B84204D044
:10A5500041F2FD414FA003F03FF86068404509D04B
:10A5600040B1022806D00A2804D04FF4A85149A0CF
:10A5700003F032F8E0680F2804D941F2015145A0F8
:10A5800003F02AF8E2686168286802F057FA50215F
:10A5900028682DE0286888420ED090420CD0604593
:10A5A0000AD0984208D0B04206D0B84204D041F256
:10A5B0000D5138A003F010F86068404509D040B153
:10A5C000022806D00A2804D041F2105131A003F02D
:10A5D00003F8E0680F2804D941F211512DA002F0D0
:10A5E000FBFFE2686168286802F070FA6021286861
:10A5F00002F06BF845E0286888420ED090420CD0FB
:10A6000060450AD0984208D0B04206D0B84204D083
:10A6100041F21D511FA002F0DFFF6068404509D0E4
:10A6200040B1022806D00A2804D04FF4A95119A03D
:10A6300002F0D2FFE0680F2804D941F2215115A0A1
:10A6400002F0CAFFE2686168286802F0F7F9402169
:10A650002868CDE7286888420ED090420CD060452B
:10A660000AD0984208D0B04206D0B84204D041F295
:10A67000305108A002F0B0FF21682868B8E74FF019
:10A68000010B012085F83D00002085F83C0058466C
:10A69000A4E600002E2E2F447269766572732F5344
:10A6A000544D3332463178785F48414C5F4472698B
:10A6B0007665722F5372632F73746D3332663178FF
:10A6C000785F68616C5F74696D2E6300002C0140D7
:10A6D000003401400004004000080040000C00402D
:10A6E00000100040001400400168B1F1804F01D11A
:10A6F000FCF796BA704700002DE9F84F0546002098
:10A700000090864F2868DFF81882DFF81892DFF88B
:10A7100018A2DFF818B216460C46B8420FD04045D2
:10A720000DD0B0F1804F0AD0484508D0504506D032
:10A73000584504D041F219017DA002F04DFF206878
:10A7400040B1022806D00A2804D041F21A0178A0AC
:10A7500002F042FF6068012808D0022806D00328D2
:10A7600004D041F21B0172A002F036FFA06850B184
:10A77000042808D0082806D00C2804D041F21C0177
:10A780006BA002F029FFE0680F2804D941F21D01F7
:10A7900067A002F021FF95F83C00012810D00120AD
:10A7A00085F83C0076B1042E1CD0082E3FD00C2E2C
:10A7B00076D00090002085F83C000098BDE8F88F26
:10A7C0000220FBE7D4E90012E368286802F048F9A8
:10A7D0002868816921F00C01816128688169A2687B
:10A7E000114322E02868B8420FD040450DD0B0F1A7
:10A7F000804F0AD0484508D0504506D0584504D06F
:10A8000041F233014AA002F0E7FED4E90012E36806
:10A81000286802F06DF92868816921F4406181613E
:10A8200028688169A26841EA02218161C2E728683B
:10A83000B8420FD040450DD0B0F1804F0AD0484506
:10A8400008D0504506D0584504D041F2430138A005
:10A8500002F0C2FE2868D4E90027267B036A016A59
:10A8600021F480710162C16923F4007321F00301B6
:10A87000394321F0F00731074FF4007647EA1161C0
:10A8800006EA02221A43C16102622868C16921F006
:10A890000C01C1612868C169A26811433BE0FFE770
:10A8A0002868B8420FD040450DD0B0F1804F0AD093
:10A8B000484508D0504506D0584504D041F25301D0
:10A8C0001BA002F089FE2868D4E90037E268066A16
:10A8D000016A21F480510162C16926F4005621F415
:10A8E000407141EA07214FF6FF7721F4704107EAF2
:10A8F00002320A434FF4005101EA03313143C2618D
:10A9000001622868C16921F44061C1612868C16998
:10A91000A26841EA0221C1614CE70000002C01401D
:10A92000003401400004004000080040000C0040DA
:10A930002E2E2F447269766572732F53544D333225
:10A94000463178785F48414C5F4472697665722F72
:10A950005372632F73746D3332663178785F686138
:10A960006C5F74696D2E630010B5040051D03C49D2
:10A970002068884219D03B49884216D0B0F1804FF8
:10A9800013D03949884210D0384988420DD038490F
:10A9900088420AD03749884207D03749884204D0D4
:10A9A00040F2C47135A002F017FEA06860B1102813
:10A9B0000AD0202808D0402806D0602804D040F2D1
:10A9C000C5712EA002F008FE206950B1B0F5807F5D
:10A9D00007D0B0F5007F04D040F2C67127A002F086
:10A9E000FBFDE0684FF6FE71401E884204D940F23C
:10A9F000C77122A002F0F0FDA06930B1802804D018
:10AA00004FF4F9611DA002F0E7FD94F83D0010B18C
:10AA100007E0012010BD002084F83C00204600F033
:10AA200049F8022084F83D00211D206801F094FDC2
:10AA3000012084F8460084F83E0084F83F0084F842
:10AA4000400084F8410084F8420084F8430084F810
:10AA5000440084F8450084F83D00002010BD00004B
:10AA6000002C014000340140000400400008004078
:10AA7000000C004000100040001400402E2E2F4417
:10AA80007269766572732F53544D3332463178783C
:10AA90005F48414C5F4472697665722F5372632F31
:10AAA00073746D3332663178785F68616C5F746996
:10AAB0006D2E6300704770B50446006801694FF061
:10AAC0000005C943890715D4C168C943890711D452
:10AAD000E91E0161012020772068806980072046F7
