:020000040800F2
:10500000B81700201D520008D7C2000857BB00087F
:1050100089C20008A5760008CDD60008000000006F
:1050200000000000000000000000000029C500088A
:105030002377000800000000D9C20008A3C60008BA
:10504000375200083752000837520008375200081C
:10505000375200083752000837520008375200080C
:10506000375200083752000837520008E17600082E
:10507000375200083752000837520008ED76000812
:1050800037520008375200083752000837520008DC
:1050900037520008375200083752000837520008CC
:1050A00037520008375200083752000837520008BC
:1050B00039C7000845C700083752000837520008B2
:1050C000375200083752000837520008375200089C
:1050D00037520008B5D60008C1D60008375200087C
:1050E000375200083752000837520008375200087C
:1050F000375200083752000837520008375200086C
:10510000375200083752000837520008375200085B
:10511000EDD20008F9D2000851C700083752000844
:10512000375200083752000837520008375200083B
:1051300000F002F800F062F80AA090E8000C824447
:105140008344AAF10107DA4501D100F057F8AFF224
:10515000090EBAE80F0013F0010F18BFFB1A43F055
:10516000010318477CA200009CA200000A444FF0F3
:10517000000C10F8013B13F0070408BF10F8014BB6
:105180001D1108BF10F8015B641E05D010F8016BFB
:10519000641E01F8016BF9D113F0080F1EBF10F85F
:1051A000014BAD1C0C1B09D16D1E58BF01F801CB82
:1051B000FAD505E014F8016B01F8016B6D1EF9D505
:1051C0009142D6D37047000000230024002500261A
:1051D000103A28BF78C1FBD8520728BF30C148BF5A
:1051E0000B607047642900F08380732900F074839A
:1051F000002070471FB51FBD10B510BD00F0BCFBEF
:105200001146FFF7F7FF09F041F900F0DAFB03B4AC
:10521000FFF7F2FF03BC08F0B0FA0000094880472E
:1052200009480047FEE7FEE7FEE7FEE7FEE7FEE788
:10523000FEE7FEE7FEE7FEE704480549054A064BA0
:105240007047000029C7000831510008B81100203C
:10525000B8170020B8130020B81300207047B2F12F
:1052600020030AD5C2F1200320FA02F001FA03F369
:1052700021FA02F140EA0300704721FA03F04FF0EF
:10528000000170470FB4044910B503AA029800F05A
:1052900027FB10BC5DF814FB0000002070B50C4625
:1052A0000546012A05D02878800600D5EA69002342
:1052B00002E0012305E05B1C934202D2E05C00287F
:1052C000F9D1A869E618C01AA861286A18442862AA
:1052D0002846AFF3008004E0D5E9012114F8010B62
:1052E0009047B442F8D32846AFF3008070BD000069
:1052F0002DE9F0410646002410687529314616A5AF
:1053000010D0AFF30080002802DA404213A507E076
:1053100031688A0701D512A502E0490704D511A515
:10532000012401E0AFF3008000210A2206F12407E6
:1053300009E0B0FBF2FCB0FBF2F302FB1C003030E2
:1053400078541846491C0028F3D123462A46304693
:10535000BDE8F04100F03CBA000000002D00000064
:105360002B000000200000002DE9F05F8946044674
:105370004FF0000ADFF874B1FB44C0F820A02046CB
:10538000E1688847002874D0252806D0D4E9012197
:105390009047206A401C2062F1E700265F462046C5
:1053A000E16888472028054607DB312D05D27819AA
:1053B00010F8200C08B10643F1E7B00701D526F03C
:1053C0000406C4F81CA00027C4F818A02A2D09D090
:1053D000284608F0CBF938B304EB8708303DC8F80D
:1053E000185019E059F8041B204604EB870291611C
:1053F000E1688847012F054618D1E069002820DAC6
:1054000026F020061DE0D8F8180000EB800005EB20
:1054100040003038C8F818002046E1688847054643
:1054200008F0A4F90028EED1012F0AD02E2D08D1C2
:105430002046E16888477F1C0546022F46F020067B
:10544000C4DBA069002803DA404246F00106A061EF
:10545000F00701D026F010066C2D0BD0682D09D076
:105460004C2D39D06A2D35D0742D35D07A2D33D0CE
:1054700016E038E0E1682F4620468847B8420546E6
:1054800009D16C2F26D04FF48060E1680643204696
:105490008847054604E06C2F1AD04FF4807006430D
:1054A0000DB3A5F14100192802D8203546F4006655
:1054B0004A462946204626604E46FFF793FE80B1B5
:1054C00001280BD0F61D26F0070000F1080956E769
:1054D0004020E4E78020D8E70020D6E706F1040961
:1054E0004DE7284652E7206ABDE8F09FBC9E0000C9
:1054F00010B5431C02E010F8011B71B18107FAD10D
:105500004FF0013202C88C1A8C4314EAC211F9D050
:10551000C01A0A0603D0C01E10BDC01A10BD0A046E
:1055200001D0801E10BD0902FCD0401E10BD40EA13
:10553000010370B59B072ED14FF00136042A2AD300
:1055400008C810C99D1B9D43121F15EAC61517D028
:10555000D8B2E1B2401A50EA056110D198B2A1B2B6
:10556000401A50EA05410AD123F07F4024F07F41E0
:10557000401A50EA052102D1180EA0EB146070BD4C
:10558000A342DBD018BA21BA884201D9012070BDEC
:105590004FF0FF3070BD0AB9002070BD10F8013B1C
:1055A00011F8014B63B1A3420AD1521E08D010F882
:1055B000013B11F8014B1BB1A34201D1521EEDD1A9
:1055C000181B70BD032A40F2308010F0030C00F06D
:1055D000158011F8013BBCF1020F624498BF11F82D
:1055E00001CB00F8013B38BF11F8013BA2F10402E6
:1055F00098BF00F801CB38BF00F8013B11F003035E
:1056000000F08081083AC0F0088051F8043B083A65
:1056100051F804CBA0E80810F5E7121D5CBF51F863
:10562000043B40F8043BAFF30080D20724BF11F8DD
:10563000013B11F801CB48BF11F8012B24BF00F842
:10564000013B00F801CB48BF00F8012B704702F086
:10565000FF0343EA032242EA024200F002B84FF09D
:1056600000020429C0F0128010F0030C00F01B802F
:10567000CCF1040CBCF1020F18BF00F8012BA8BF3D
:1056800020F8022BA1EB0C0100F00DB85FEAC17C01
:1056900024BF00F8012B00F8012B48BF00F8012BB4
:1056A00070474FF0000200B51346944696462039E5
:1056B00022BFA0E80C50A0E80C50B1F12001BFF4CB
:1056C000F7AF090728BFA0E80C5048BF0CC05DF831
:1056D00004EB890028BF40F8042B08BF704748BF7F
:1056E00020F8022B11F0804F18BF00F8012B7047F3
:1056F00010B5044610F0030F08BF11F0030F40F07F
:1057000015804FF0013E121FC0F20E8051F8043B8D
:10571000A3EB0E0C2CEA030C1CEACE1C08BF40F8CD
:10572000043BF0D0A1F1040102F10402521E08DB97
:1057300011F8013B002B00F8013BF7D11146FFF7B0
:105740008EFF204610BD00004FF0013C50F8042BA6
:1057500051F8043B9A4221D1A2EB0C03934313EA84
:10576000CC1317D150F8042B51F8043B9A4215D1B1
:10577000A2EB0C03934313EACC130BD150F8042B88
:1057800051F8043B9A4209D1A2EB0C03934313EA6C
:10579000CC13DBD04FF00000704700BFD01A01BA25
:1057A000B1FA81F101F0180122FA01F0CB40C1F108
:1057B0002001DBB2C0B2C01A2CFA01F3D11A914316
:1057C00011EAC311E6D170477047704770477047C0
:1057D0002DE9F0470D4699469246044600F124080B
:1057E0000168880604D5E06921F01001216000E01D
:1057F0000120A84201DD471B00E00027A1697A19BA
:1058000002EB0900081AA0612078C00602D42046E5
:10581000AFF30080002608E0D4E901211AF8060061
:105820009047206A401C761C20624E45F4DB2078AD
:10583000C0060AD52046AFF3008006E0D4E9012176
:1058400030209047206A401C2062381EA7F10107D3
:10585000F4DC07E0D4E9012118F805009047206A3C
:10586000401C2062281EA5F10105F3DC2046AFF3A1
:1058700000802078000602D50220BDE8F0870120D4
:10588000FBE7000001694A1C02610878704700B517
:105890008FB0CDE901310021059105497944CDE969
:1058A000031011466846FFF75FFD0FB000BD000012
:1058B000E5FFFFFF10B5436913B1AFF3008001E0CE
:1058C000FFF7ECFC012010BD127800F124010A70F2
:1058D00000224A700122EDE711684FF0FF32E9E73C
:1058E000074B70B50D467B44FFF7D1FF04462846B1
:1058F00000F03EF810B14FF0FF3070BD204670BD93
:10590000D389000010B5203AC0F00B80B1E81850E0
:10591000203AA0E81850B1E81850A0E81850BFF499
:10592000F5AF5FEA027C24BFB1E81850A0E8185038
:1059300044BF18C918C0BDE810405FEA827C24BF8C
:1059400051F8043B40F8043B08BF7047D20728BF1A
:1059500031F8023B48BF11F8012B28BF20F8023B69
:1059600048BF00F8012B70470048704758110020CD
:10597000007B00F0800070477546FFF7F5FFAE46EC
:1059800005006946534620F00700854618B020B54B
:10599000FFF752FCBDE820404FF000064FF0000733
:1059A0004FF000084FF0000B21F00701AC46ACE8C7
:1059B000C009ACE8C009ACE8C009ACE8C0098D4634
:1059C000704710B50446AFF300802046BDE8104094
:1059D000FFF71DBC30B587B003F09AFB1C21684669
:1059E000FFF75FFE0D4D11E0286B01F05BFFC4B2C5
:1059F000182C10D322466946286B06F04AFD214632
:105A0000684607F065FE286B06F037FD286B06F048
:105A100038FD0028E8D007B030BD000098EC000841
:105A200070B5044600688168C943C90716D181680A
:105A300021F00101816003F06BFB054609E003F0F2
:105A400067FB401B022804D920688068C043C00758
:105A500006D020688068C043C007F0D0002070BD29
:105A6000A06A40F01000A062E06A40F00100E0622D
:105A7000012070BD10B50146406A826A12F0500FD5
:105A800005D0006A026BBDE8104008461047816AE5
:105A900041F40071816201688968C1F342410729BC
:105AA0000CD1017B51B9816A21F480718162816AD4
:105AB000C90403D4816A41F00101816202F0AEF8A9
:105AC00010BD10B5406A816A41F040018162C16A2F
:105AD00041F00401C16202F0A3F810BD10B5406AA4
:105AE00002F09DF810BD0000F8B5002604460096AF
:105AF00000688168C943C9072CD0816841F0010161
:105B00008160154815490068B0FBF1F000E0401EC7
:105B100000900028FBD103F0FBFA054615E003F0E6
:105B2000F7FA401B022810D920688068C043C007DC
:105B30000BD0A06A40F01000A062E06A40F00100C3
:105B4000E06284F824600120F8BD20688068C043CA
:105B5000C007E4D10020F8BDB003002040420F0090
:105B60000A4B30B403EBC00254788C420BD09478CB
:105B7000002C08D0517019B10121022203F8302005
:105B800030BC01F015B930BC70470000080100209E
:105B9000F8B50024104E274600212046FFF7E0FF0D
:105BA00006EBC4050097686800230122694608F0E7
:105BB000DFF820B968680122694608F083F99DF88A
:105BC000000000B10120A870641C14F0FF04E3D0B1
:105BD0000120B070F8BD00000801002030B40B4C6B
:105BE00004EBC0029378002B0ED021B10123FF25D6
:105BF00004F8305000E0002354788C4204D05170F7
:105C000030BC194601F0D4B830BC70470801002000
:105C100070B50E4D002405EBC400807880B115F8F6
:105C20003400FF280CD015F8340028B115F83400E2
:105C3000401E05F8340003E000212046FFF790FFE6
:105C4000641C14F0FF04E6D070BD000008010020C1
:105C50007CB514460D46082A00D9082400232246A4
:105C6000694608F085F8A04205D1224669462846D3
:105C7000FFF7A8FC7CBDFF2221462846FFF7E7FC82
:105C80007CBD08F01FB90000014900200870704772
:105C9000D800002000200D49012211F8303043F0D7
:105CA000010301F8303001EBC003401CC0B25A7050
:105CB0000228F2D30220C870044810384860062039
:105CC000C87202480C38C86070470000780F002086
:105CD00010B500F0C3FB0B491928887001D80020CB
:105CE00004E0232801D30A2000E01938C0B248702C
:105CF00000EB80004100002001F060F9BDE8104099
:105D000001F0B2B9780F0020074910B500220A80CF
:105D10001046012301F8102001EB40046370401C81
:105D200010F0FF00F6D010BD6A00002010B5FFF79C
:105D3000EBFF00F02FF800F0B5FC00F02BF900F0BD
:105D4000B5FAFFF7A1FF00F04BFB00F00CFE00F0EE
:105D5000E2FBFFF71DFFBDE81040FFF79BBF00000F
:105D600001488079704700007400002001484079A4
:105D70007047000074000020022807D2044A02EB9A
:105D8000001009B1232100E00A21018170470000C1
:105D9000240F00202DE9F04120210B48FFF781FC62
:105DA0000020094A094C01250346232602EB001175
:105DB00054F82070CF608D700E818B72401CC0B281
:105DC0000228F3D3BDE8F081240F00203CED000849
:105DD00000B50022104600F04DF8022805D0521CF4
:105DE000D2B2022AF6D3002000BD012000BD00007F
:105DF0002DE9F04701260025DFF874902F46B046C4
:105E000009EB0514A078002828460CD006F028FBE2
:105E1000F0B1A0880A2822D2A0883044A080A088AF
:105E20000A281AD01BE006F01BFB18B184F8028088
:105E3000A78016E020882189884212D22088304429
:105E400020802088218988420BD10220A07208E09E
:105E5000208830442080A77003E0A772278084F850
:105E600002806D1CEDB2022DCAD3BDE8F0870000A0
:105E7000240F0020022801D3FF207047024901EBC4
:105E80000010807A70470000240F00202DE9F843AD
:105E90001D4616460F468046002433463A46414684
:105EA0002046009500F006F8641CE4B2032CF4D3FD
:105EB000BDE8F883F8B50D46DDF818E0064603287E
:105EC00032D2DFF868C006EB460000210CEB8004FC
:105ED0000F4621606160A1600CF820500120022D66
:105EE00004D0A2806280012D08D009E0E3802381E4
:105EF000FF2101EB4E01A172022100E00121E072BD
:105F0000304601F067F90097022D0DD00848815DF9
:105F1000A94209D08555801ED0F8020000900322C6
:105F2000694604A007F0CEFFF8BD0000440F002032
:105F3000D20000204C6564496478000070B50E46BC
:105F4000054601461446022001F01EF931460020A4
:105F500001F01AF92146012001F016F90A49C87822
:105F6000A84205D10879B04202D14879A04209D0AF
:105F700001F8035F4E708C70BDE87040032203A0EF
:105F800007F0A0BF70BD0000D2000020636F6C6FEF
:105F9000720000002DE9FC4724212B48FFF75FFB2E
:105FA00001AB03226946294807F0E2FE03280BD023
:105FB000FF208DF800008DF801008DF8020003220B
:105FC0006946224807F07EFF9DF802209DF80110E7
:105FD0009DF80000FFF7B2FF002501AB03226946E0
:105FE0001B48009507F0C4FE1A4F10B1019A032A0E
:105FF00024D0012038701748801ED0F8020000908D
:1060000003226946124807F05DFF0F4E00244FF44B
:10601000FA784FF6FF79395D04EB440006F820105A
:10602000009516F8201043464A462046FFF742FFE7
:10603000641CE4B2032CEED3BDE8FC876946054836
:10604000FFF7C0FAE1E70000440F00208C5F000872
:10605000345F0008D20000202DE9F0470024DFF86B
:10606000A0904FF4FA78264604EB4401002519F875
:1060700021004B46022809D003EB810042884245AB
:1060800025D34288A2F5FA72428021E003EB810217
:106090001089404504D31089A0F5FA70108100E002
:1060A0001681108928BBD07A012801D0012500E093
:1060B0000025D0881081907AFF2810D0907A401E59
:1060C00010F0FF0090720AD103F8216007E04680CB
:1060D000428872B98088A0F57F42FF3A09D009EB67
:1060E0008107F87AA84204D02946204601F072F8C8
:1060F000FD72641CE4B2032CB6D3BDE8F087000047
:10610000440F002010B5074C2188084480B220803D
:10611000B0F5FA7F05D3FFF79FFF2088A0F5FA704E
:10612000208010BDD000002004488179002904D0CF
:106130000168491C016000F027BB70477400002013
:106140000148407870470000BC00002001484088AA
:1061500070470000BC00002010B500F0B7FF124BE4
:106160000020D871197A42F2107009B1024611E08C
:106170001978B0FBF1F0597801EB4102C2EBC11183
:106180004FF6FF7202EAC1010A22B1FBF2F11A785E
:10619000B1FBF2F202F5967291B200F091FFBDE808
:1061A000104000F0DBB90000BC00002070B5104CBE
:1061B0000025A07900281AD000F088FFE571217A27
:1061C00042F2107009B1024609E02178B0FBF1F00B
:1061D00061884FF6FF7201EB810102EA410214323D
:1061E00091B200F06DFFBDE8704000F0B7B970BD2E
:1061F000BC00002070B50024FFF7EAFD0B4D10B184
:10620000687900B101240948001F0178A1420BD030
:106210000470204600F05AF8204600F021F8AC71D6
:10622000BDE8704000F0C4B970BD000074000020EB
:106230000A4910B54A798B7983420ED0887130B102
:10624000087900F073F8BDE81040FFF7AFBFBDE874
:1062500010400021104600F0C1BD10BDBC00002060
:10626000704700000148807B70470000BC000020A0
:1062700010B5052801D3002010BD0A4A02F10A0119
:10628000927B82420BD0074A9073C87938B110468E
:10629000827B4879044931F8121000F09FFD0120FB
:1062A00010BD0000BC00002044ED000810B5002027
:1062B00000F066F80020FFF7BBFF002000F006F8B2
:1062C000BDE810400020FFF7D3BF00000D4910B516
:1062D000CA79824215D0C87138B100F009FF00F0C8
:1062E0001FF800280DD0012106E000F0EFFE00F0BD
:1062F00017F8002805D00021BDE810400020FFF766
:106300006DBC10BDBC000020014800797047000042
:10631000BC0000200148007870470000BC0000204D
:106320000148007A70470000BC0000200C4B10B5FB
:106330005A791E280BD850B11871A3F13C0101EB1A
:10634000400030F8021C9879012802D004E00020B7
:1063500010BD104600F042FD00F0E6F8012010BD2F
:10636000BC000020411E052906D204490A78824259
:1063700002D00870FFF7F0BE70470000BC0000209C
:106380000449002210B10120087200E00A72FFF7F0
:10639000E3BE0000BC00002010B5411E0A2901D355
:1063A000002010BD04494A78824202D04870FFF7AD
:1063B000D3FE012010BD0000BC00002010B5411E1E
:1063C000642901D3002010BD04494A88824202D0CA
:1063D0004880FFF7EBFE012010BD0000BC0000204C
:1063E00038B5104C002001222080A0708DF80000EC
:1063F00069460DA0FFF72CFC9DF80000A0F11E01DE
:10640000102903D3242000F05DF800E06070012221
:10641000694607A0FFF71CFC9DF8000000B10120B1
:10642000A07038BDF400002074656D70000000009D
:1064300070726F746563740004480178407881421B
:1064400001D901207047002070470000F4000020AF
:106450000148807870470000F4000020014800786F
:1064600070470000F400002010B5052000F000FF88
:106470000422084905F009FF074A002132F81130CB
:10648000834203D2491CC9B26429F7D30148001FD3
:10649000017010BDF8000020B0EB0008064908B5F7
:1064A0008A78824207D088708DF800000122694600
:1064B00002A0FFF7E6FB08BDF400002070726F74C5
:1064C00065637400084908B54A7882420BD0A0F190
:1064D0001E02102A07D248708DF80000012269467A
:1064E00002A0FFF7CEFB08BDF400002074656D70BC
:1064F000000000001CB50020ADF8040040F6FF705D
:10650000ADF8060001A8009002232B228321602011
:1065100000F07EF91CBD00F065B80000014800687D
:1065200070470000000100201CB5FFF7EDFE401E83
:106530000949C0B2022331F82020ADF8042001EB54
:1065400080002C224088ADF8060001A8009083212D
:10655000602000F05DF91CBD4EED00081CB5FFF792
:10656000D9FE0446FFF7DCFE0021ADF8041020B18F
:106570007820B0FBF4F0401C01E04FF6FF70ADF85E
:10658000060001A8009002232E228321602000F043
:106590003FF91CBD1CB5FFF7E9FBADF8040001A8ED
:1065A0000090012300228321602000F031F91CBDFE
:1065B0001CB5FFF7D5FBADF8040001A8009001233E
:1065C0002F228321602000F023F91CBDFFF792BF2A
:1065D000034A1188814201D9081A108070470000CF
:1065E00004010020024840F2E931418001807047F7
:1065F0000401002001484188018070470401002007
:106600007047000001490860704700000001002049
:10661000014800687047000074000020074808B572
:10662000C1798DF80010017A8DF80110417A8DF84A
:106630000210807A8DF80300009808BD74000020D5
:106640001CB500208DF8040000F04AF820B19DF838
:10665000040040F005000EE0FFF7EEFE20B19DF8CB
:10666000040040F0070006E000F07EF940B19DF81C
:10667000040040F006008DF80400002000F02CF922
:1066800007490A799DF80400824208D0087101A8E0
:1066900000900123FB228221102000F0B9F81CBDDC
:1066A0007400002038B5012269460AA0FFF7D0FA2D
:1066B00000200A4B6D46012400EB400119444C7048
:1066C0002A5C02B101228A70401C10F0FF00F3D056
:1066D00038BD00006C6F636B000000006C00002090
:1066E000084A002000EB400111448B780BB1497837
:1066F00029B1401C10F0FF00F4D0002070470120A9
:10670000704700006C00002008B102207047034869
:10671000407808B100207047012070476C000020CD
:10672000012801D900207047024900EB40000844CD
:10673000807870476C00002010B50024204600F0DF
:10674000B3FF641C14F0FF04F8D010BD08B5012895
:1067500013D800EB400209480244907888420CD0DC
:1067600091700020694693780B54401C10F0FF0094
:10677000F9D0012202A0FFF784FA08BD6C000020C6
:106780006C6F636B000000001CB5084800680223B2
:10679000010CADF80410ADF8060001A800900B2222
:1067A0008221102000F034F81CBD0000740000208D
:1067B0000EB500200290FFF731FF01909DF8040014
:1067C0008DF800009DF805008DF801009DF8060089
:1067D0008DF802009DF807008DF803009DF8031066
:1067E0004FF6FF709DF8022000EA01211144ADF838
:1067F00008109DF80110022300EA0120ADF80A00FC
:1068000002A800900C228221102000F001F80EBD99
:106810002DE9F04188B00E4680461C4617462021DF
:1068200068460E9DFEF73DFFA5208DF800005A201A
:106830008DF80100032004216B46832E13D000EB5A
:1068400044008DF802008DF804808DF803608DF807
:1068500005704FF0060203D18DF806404FF0070295
:106860004FF0000013E001EB4400EAE735F81010A8
:106870004FEA1121995402F10102D1B215F810200A
:106880005A5401F1010100F10100CAB2C0B2A042A4
:10689000ECD3B8F1600F0BD1FE2F01D1822E07D0BF
:1068A0000220194600F068FE08B00120BDE8F08122
:1068B0000020F6E701490860FFF766BF740000207A
:1068C00030B4044B0024DC71987259721A7230BCD7
:1068D000FFF76EBF7400002070B5040003D0FFF70F
:1068E00077FA00280DD1074D6879A04209D02046DB
:1068F000FFF79EFC6C71BDE870400021084600F077
:1069000011BF70BD740000201149887900281ED085
:10691000C879401CC0B2C871642818D30022CA715B
:10692000087A401CC0B208723C280ED30A72487A1A
:10693000401CC0B248723C2807D34A72887A401C77
:10694000C0B28872182800D38A72FFF731BF70472F
:106950007400002010B5FFF7D7FFFFF749FABDE834
:106960001040FFF755B9704710B50A4A002002EBF6
:10697000C0014B8812F83040A34203D84B884978B5
:106980008B4201D2012010BD401CC0B20328EED3BF
:10699000002010BDDC000020032801D3FF20704739
:1069A000024901EBC000408870470000DC00002075
:1069B00070B50B4DAE1C287806EBC004A07900F032
:1069C00057FCA1884843010B287806EBC002518090
:1069D000401CC0B22870032801D30020287070BD6D
:1069E000DA0000200148407870470000F4000020E1
:1069F00008B1002070470248417001207047000034
:106A00006A00002081788079102905D1AA2803D155
:106A10000121112000F086BE70478078102805D033
:106A2000602807D10021022006F032BA002114208C
:106A300000F078BE70470000F0B481784378C478E5
:106A4000102901D0602916D10C4A0021151F0FE032
:106A500012F831609E4209D102EBC1067688A64247
:106A600004D102EBC1014968F0BC0847491CC9B216
:106A70002E78B142ECD3F0BC70470000BC0100207E
:106A80000021132000F04EBE70B5054606798078CF
:106A900010280ED100240AE02819807908B10121BC
:106AA00000E000212046FFF7A3FFA41CE4B2B4429B
:106AB000F2D370BD70B5054606798078102814D1E0
:106AC00000240AE02819807908B1012100E00021A2
:106AD0002046FFF751F9A41CE4B2B442F2D3BDE85A
:106AE000704000210A2000F01DBE70BD10B58178F5
:106AF000102914D1017902290BD34179827902EB53
:106B00000121C279007A02EB012100EB0120FFF79D
:106B1000D1FE0021BDE81040102000F003BE10BDE2
:106B200010B58178102908D18079FFF71BFC00216E
:106B3000BDE81040082000F0F5BD10BD10B581780B
:106B4000102908D18079FFF793FB0021BDE81040A0
:106B50000E2000F0E7BD10BD10B5817810290AD1D4
:106B6000807900B10120FFF70BFC0021BDE8104047
:106B70000B2000F0D7BD10BD704710B581781029EB
:106B800008D18079FFF7D2FB0021BDE81040092031
:106B900000F0C8BD10BD10B58178102908D18079EA
:106BA000FFF7FAFB0021BDE81040062000F0BABD57
:106BB00010BD10B5817810290FD141794FF6FF72C1
:106BC000807902EA0121084480B2FFF7F7FB002137
:106BD000BDE81040072000F0A5BD10BD2DE9FC4127
:106BE000817845798679C479077A10291FD14FF6C3
:106BF000FF7800234FF4FA7241462846FFF746F922
:106C00003A4621463046FFF799F908EA0520304414
:106C1000ADF8040008EA04203844ADF8060001A8E5
:106C200000900223142282211020FFF7F1FDBDE81D
:106C3000FC812DE9FC41817806790546102927D190
:106C400000240BE005EB4400807908B1012100E04D
:106C500000212046FFF77AFD641CE4B2B442F1D370
:106C60000024AA26274601AD2046FFF759FD10B1A2
:106C700025F8146001E025F81470641C14F0FF047A
:106C8000F2D001231222822110200095FFF7C0FDCF
:106C9000BDE8FC8110B5817810290AD1807900B156
:106CA0000120FFF719FE0021BDE81040084600F062
:106CB00039BD10BD704710B5817810290ED101790A
:106CC000022905D343798179C2791846FFF7F8FD87
:106CD0000021BDE810400F2000F024BD10BD0021B0
:106CE000152000F01FBD000038B58178807920297B
:106CF0002FD021DC03292CD010292AD1A02822D082
:106D0000AA2826D1002413A007F09EF990B10423ED
:106D10006A46002107F0C6F904280BDB00206A460A
:106D2000135C401CC0B203EB04240428F8D374B1F4
:106D3000641C0CD0AA2006E030290AD0602908D1B2
:106D4000AA2806D19020BDE8384006F0A9BDA020B1
:106D5000F9E738BD6661630010B5807900B10120A4
:106D6000FFF79CFB0021BDE81040012000F0DABCD9
:106D700010B58079FFF7A6FB0021BDE81040022086
:106D800000F0D0BC70B5074C0B25204600F094FDF8
:106D9000284602F01BFA2046BDE870400622024950
:106DA00001F0B2B8B40300200807002070470000CB
:106DB00010B50B4638B9084A91881068127A89B222
:106DC0001BB1012B04D0002010BDC2F10102D2B2D0
:106DD00002F068F9012010BD30ED000870B50C46D6
:106DE000022817D80C4901EB00121088D2E902568C
:106DF00081B28C4200D90C463146284601F0A4F9F4
:106E0000A04207D0234631462846BDE87040002204
:106E100001F032BA70BD000078EC00082DE9F041B5
:106E2000094E002406EB04100021D0E90257204649
:106E3000FFF7D4FF3946284601F06CFA641CE4B22F
:106E4000022CEFD3BDE8F08178EC000870B5017F2B
:106E5000042912D008290FD101240B4D297B0126CA
:106E600069B10A4901EB0411C96804F0ABFB288041
:106E7000204600F069F86E7370BD0024EDE70068ED
:106E8000002141622E7370BD140F002010ED000828
:106E900070B50C4CA07B217B0225012906D0A17A7C
:106EA000491CC9B2A1720A2907D870BDE17A0A2922
:106EB00003D0E07A401CE07270BD00F045F86573C5
:106EC00070BD0000140F002070B51D4DE97B002936
:106ED00027D11C49002601EB0010D0E902412068AF
:106EE00046622268B01E1061E1B104291FD02068FB
:106EF0000829C26820D042F01002C2600122206836
:106F000005F072FC2068C16841F00101C160206891
:106F1000016841F001010160EE72AE720120E87378
:106F20002E7370BD2068C26842F00202E5E7206857
:106F3000C26842F00402E0E742F00802DDE7000028
:106F4000140F002010ED00081A4910B501EB0010D5
:106F5000D0E90241206811B3042924D0C26808296D
:106F600025D022F01002C2600022206805F03CFC0F
:106F70002068C16821F00101C1602068016A41F206
:106F80001112114207D1016A9210114203D1016816
:106F900021F00101016008490020C87310BDC268DA
:106FA00022F00202DFE7C26822F00402DBE722F0EF
:106FB0000802D8E710ED0008140F0020022812D2B2
:106FC0000D4A02EB4002D3888B420CD0D1800B4A91
:106FD00002EB0012D2E9000232B1042A07D00068A5
:106FE000082A07D001647047006841637047006851
:106FF00081637047C1637047140F002010ED0008D3
:1070000010B5002400212046FFF7D8FF01212046BB
:1070100000F006F8641CE4B2022CF3D310BD0000AB
:107020000A4602281DD20F4901EB0011D1E90001E7
:107030001AB1012A15D103F021B849B104290AD0A7
:1070400008290BD090F84520012A0AD003F0A4B8F3
:1070500090F84220F8E790F84320F5E790F84420B4
:10706000F2E7704710ED0008134830B4417BF1B1EE
:10707000417B0022012904D9817B00EB41014A8038
:107080000DE00388C17A40F27124614303EB0111E2
:107090000A4BB3FBF1F1837B00EB4303598042734E
:1070A000817B491C8173817B01F001018173807BAD
:1070B00030BCFFF709BF0000140F0020A0860100BC
:1070C000014A1080518070470400002007480021C9
:1070D000026851630168CA6822F00202CA6000684F
:1070E000C16821F00101C16070470000CC0400209C
:1070F000134910B511484A88098803685A63036820
:10710000D962C1600468002363620468012363617B
:107110008A42016808D20A6922F002020A61016803
:10712000CA6842F0020202E0CA6822F00202CA60A3
:107130000068C16841F00101C16010BDCC040020AD
:1071400004000020FFF7C2BF7047000010B500F038
:1071500019F8FFF717FEFFF7F5FFFFF75FFE00F0E6
:1071600093FA00F0ABF8FFF7EFFF00F027F8FFF716
:1071700047FFFFF71BFEBDE81040014803F094B93C
:10718000140500207047000003280CD20A4B53F866
:10719000302003EBC000406830B1042807D0082835
:1071A000106807D001647047106841637047106829
:1071B00081637047C1637047F8EC000810B5002484
:1071C0000021204600F006F8641CE4B2032CF7D33B
:1071D00010BD00000A460146032846D2234B53F84F
:1071E000310003EBC10149686AB1012A1FD0022AAC
:1071F0003BD181B3042932D0082933D090F8412003
:10720000012A1DD008E049B104290AD008290BD071
:1072100090F84120012A28D004F01CB990F83E20B3
:10722000F8E790F83F20F5E790F84020F2E749B101
:1072300004290AD008290BD090F84120012A14D142
:1072400004F050B890F83E20F8E790F83F20F5E7BA
:1072500090F84020F2E7FFE790F83E20D0E790F862
:107260003F20CDE790F84020CAE77047F8EC0008CF
:10727000062802D94FF6FF707047024931F8100016
:10728000704700000807002010B5022801D3FF2036
:1072900010BD094A00EB400152F8210002EB8101C8
:1072A0008A880C7A91B201F0D1FEA04201D101206E
:1072B00010BD002010BD000098EB000870470000D2
:1072C00010B508B1FF2010BD06498A880C7A0868FD
:1072D00091B201F0BBFEA04201D1012010BD0020FF
:1072E00010BD0000ECEC000800B500F013F9032815
:1072F00001D3002000BD0349C0EBC00001EB8000BA
:10730000C06800BD98EC000800B500F003F9032840
:1073100001D3002000BD0349C0EBC00001EB800099
:10732000807900BD98EC0008F8B504460068016853
:10733000C268436911F00F0F4FF020054FF00006AF
:1073400066D003F0010702F4907C57EA0C0C6AD077
:107350005FEAC17C08D05FEAC25C05D5D0F800C006
:10736000D0F804C0CDF800C05FEA417C08D55FEAE0
:10737000C37C05D0D0F800C0D0F804C0CDF800C060
:107380005FEA817C04D5DB0702D003684068009087
:10739000080707D502F02000384303D0606C40F0A6
:1073A00008006064606C00283CD0880604D5900614
:1073B00002D5204600F0C0F820684169626CC1F334
:1073C0008011120700D461B3016841680091C1685F
:1073D00021F49071C1602068416921F0010141618F
:1073E00084F8425020684169490658D5416921F026
:1073F000400141612046FFF777FF06462046FFF730
:1074000083FF0546E06B08B100F0FEFF2A4640E02E
:107410008B0608D5930606D52046BDE8F84000F057
:107420008BB86664F8BDCB0647D5D30645D5016851
:10743000416800914169490631D52046FFF754FF64
:1074400006462046FFF760FF07462068C16821F422
:107450008071C1602068416921F0010141612068AB
:10746000416921F04001416184F84250E06B00F035
:10747000A7FFE06B006840680004000C08D0A18DF5
:10748000814205D9081AC2B23146204600F05EF8A2
:107490003A4631462046BDE8F84004F0E5BAC168F6
:1074A00041F48071C1602068416941F0010141618E
:1074B0002068C16841F020011BE00B061BD51306B4
:1074C00019D594F841102129ACD1216A4A1C2262B5
:1074D00009784160E08C401E0004000CE084A1D1DA
:1074E0002068C16821F08001C1602068C16841F056
:1074F0004001C160F8BD4906FCD55106FAD5C16806
:1075000021F04001C16084F841502046BDE8F840B8
:1075100000F048B80146074A0020C0EBC00352F80B
:1075200023308B4204D0401CC0B20328F5D3FF2087
:107530007047000098EC000808B5016849688DF8AC
:1075400000100122694600F001F808BD70B514462C
:107550000D46FFF7DFFF03280BD20649C0EBC00042
:1075600001EB8000224640692946BDE8704004F0E6
:10757000B3BF70BD98EC000810B503280ED2C0EB65
:10758000C003074850F8234000EB8300806904F0F3
:10759000A3FF2046BDE8104000F004B810BD000075
:1075A00098EC000870B5064690F84100202824D1D8
:1075B0003046FFF7AFFF03281FD2C0EBC0010F48D2
:1075C00000EB8105A86900F06DF90404240C14D0C7
:1075D0002889A04200D2044622462969A86904F0FD
:1075E00058FF22463046296904F09BFA022804D14C
:1075F0003046BDE8704004F075B870BD98EC0008E6
:107600000A49C0EBC00051F820000168CA6842F482
:107610008072CA6001684A6942F001024A610068EA
:10762000C16841F02001C1607047000098EC00087B
:1076300070B51449C0EBC00051F8204001EB800048
:107640008579C66890F9040001F0C0FD2068C16822
:1076500021F48071C1602068416921F0010141611C
:107660002068C16821F02001C1602068C16841F034
:107670001001C1602A4631462046BDE8704004F042
:10768000F3B9000098EC000810B500231846FFF786
:10769000B7FF5B1CDBB2032BF8D3BDE81040012021
:1076A000FFF7C6BFFEE7000070B5002812D10B4CF3
:1076B00000252846217849002170FFF701FE217836
:1076C00008432070207800F00301032903D000292B
:1076D00000D1657070BD0120607070BD6C0000202D
:1076E000014800F02BBF0000E4030020014800F037
:1076F00025BF0000C406002030B590F8405001249A
:10770000AC40C56B6C60046863604368102B036811
:1077100003D099600068C26030BD9A600068C160A3
:1077200030BD7047044B03EBC00201B1917851703A
:10773000012103F8301070476C02002072B6FEE79A
:1077400010B5012804D04FF4157108A006F08AF88E
:1077500016490020C8611648016941F00401016121
:10776000016941F04001016110BD00002E2E2F443F
:107770007269766572732F53544D3332463178787F
:107780005F48414C5F4472697665722F5372632F74
:1077900073746D3332663178785F68616C5F666CE4
:1077A0006173685F65782E63000000003811002067
:1077B00000200240064A0021D16106490A6942F0D0
:1077C00002020A614861086940F0400008617047A0
:1077D0003811002000200240044B0022DA61044AE4
:1077E000136943F0010313610180704738110020D1
:1077F0000020024014490020CA68D306134A04D569
:10780000D06940F00200D0611020CB685B0705D53D
:10781000D36943F00103D36140F00400CB69DB0777
:1078200007D0D36943F00403D361CA6922F001028F
:10783000CA61A0F58072013A01D0C8607047C8697A
:1078400020F00100C861704700200240381100207C
:1078500070B5044601F05CFC0546114E09E0601C61
:1078600007D024B101F054FC401BA04201D90320F1
:1078700070BDF068C007F2D1F068800601D5202005
:10788000F060F068C00605D4F069C00702D1F06866
:10789000400703D5FFF7AEFF012070BD002070BD8B
:1078A00000200240D0E9012100688A1A1044B0FB90
:1078B000F1F201FB12007047F8B50026044600966D
:1078C00000683949884209D03849884206D0384989
:1078D000884203D07E2137A005F0C4FF94F824002D
:1078E00001280BD0012084F824002046FEF798F8E8
:1078F0002046FEF7F9F8070002D050E00220F8BD5C
:10790000A06A20F4885040F00200A062022001F03A
:1079100065FD37490968B1FBF0F0400000E0401E0A
:1079200000900028FBD12068816841F00801816047
:1079300001F0EEFB054608E001F0EAFB401B0A28D7
:1079400003D920688068000715D420688068000784
:10795000F2D42068816841F00401816001F0D8FB15
:10796000054612E001F0D4FB401B0A280DD920681F
:107970008068400709D5A06A20F0020040F010009E
:10798000A06284F824600120F8BD20688068400768
:10799000E8D4A06A20F0020040F00100A06284F860
:1079A00024603846F8BD0000002401400028014052
:1079B000003C01402E2E2F447269766572732F535E
:1079C000544D3332463178785F48414C5F44726998
:1079D0007665722F5372632F73746D33326631780C
:1079E000785F68616C5F6164635F65782E63000037
:1079F000B00300202DE9F8430026054600960068F4
:107A0000734F0C46B046B8420AD07249884207D03C
:107A10007149884204D040F2D67170A005F022FF6F
:107A2000206830B3012824D0022822D0032820D097
:107A300004281ED005281CD006281AD0072818D0E4
:107A4000082816D0092814D00A2812D00B2810D0E4
:107A50000C280ED00D280CD00E280AD00F2808D0E4
:107A6000102806D0112804D040F2D7715BA005F091
:107A7000F9FE6068012822D0022820D003281ED0F9
:107A800004281CD005281AD0062818D0072816D09C
:107A9000082814D0092812D00A2810D00B280ED09C
:107AA0000C280CD00D280AD00E2808D00F2806D09C
:107AB000102804D04FF4FB6148A005F0D3FEA06865
:107AC00090B1012810D002280ED003280CD0042831
:107AD0000AD0052808D0062806D0072804D040F28E
:107AE000D9713EA005F0BEFE95F82400012812D001
:107AF000012085F8240060681F2207280ED229681B
:107B00004B6B401E00EB8000824093432268824012
:107B100013434B631AE00220BDE8F88329680D285F
:107B20000AD20B6BC01F00EB800082409343226897
:107B3000824013430B6309E0CB6A0D3800EB8000F1
:107B400082409343226882401343CB62206807221D
:107B500029680A280AD3CB680A3800EB4000824023
:107B60009343A26882401343CB6008E00B6900EBAB
:107B7000400082409343A268824013430B61206817
:107B8000102801D011281FD12868B84217D1816868
:107B9000090219D4816841F400018160206810282D
:107BA00012D11C481C490068B0FBF1F000EB8000CA
:107BB000400000E0401E00900028FBD104E0A86ACD
:107BC00040F02000A862012685F824803046A3E713
:107BD0000024014000280140003C01402E2E2F448B
:107BE0007269766572732F53544D3332463178780B
:107BF0005F48414C5F4472697665722F5372632F00
:107C000073746D3332663178785F68616C5F61647C
:107C1000632E6300B003002040420F00704770479E
:107C2000704700002DE9F04704004FF000057CD0BC
:107C300075492068754E884209D07549884206D03A
:107C4000B04204D040F2A91172A005F00BFE6068AA
:107C500038B1B0F5006F04D04FF4D5716DA005F0C8
:107C600001FEA0684FF4807930B1484504D040F25D
:107C7000AB1168A005F0F6FD207B30B1012804D0DF
:107C80004FF4D67163A005F0EDFDE0694FF40028D4
:107C90004FF4402AB8B1B0F5003F14D0B0F5C02F72
:107CA00011D040450FD0B0F5202F0CD050450AD050
:107CB000B0F5802F07D0B0F5602F04D040F2AD11A1
:107CC00054A005F0CFFDA06800281CD02069401EFC
:107CD0000F2804D940F2B1114EA005F0C3FD207D5C
:107CE00088B1012806D04FF4D9714AA005F0BAFD39
:107CF000207D40B1A069401E072804D940F2B5118B
:107D000044A005F0AFFDA06A002728B9E76284F817
:107D10002470204600F0A0F82046FDF781FEA16AFD
:107D2000C90600D430B1A06A00E06AE040F010005B
:107D3000A06266E0A16A21F4885141F00201A162CB
:107D40002368E169B34202D1514500D14146267B07
:107D5000CC4641EA460261680A43A168614508D001
:107D6000012906D0002194F81480B8F1010F02D047
:107D70000AE04946F7E7C6B1A66A46F02006A662C1
:107D8000E66A46F00106E6625E6826F469460E433E
:107D90005E6021688B682D4E334013438B60A16871
:107DA00061450BD0012909D00CE0DFF8A480A66959
:107DB00008EB46360E4346F40061E5E7218A0D05DF
:107DC000A5F580152168CB6A23F470032B43CB62A1
:107DD000216889681F4B1940914208D1E762A16A66
:107DE00021F0020141F00101A162BDE8F087A06A23
:107DF00020F0020040F01000A062E06A40F00100B4
:107E0000E0620120F1E7000000240140003C014055
:107E1000002801402E2E2F447269766572732F530D
:107E2000544D3332463178785F48414C5F44726933
:107E30007665722F5372632F73746D3332663178A7
:107E4000785F68616C5F6164632E6300FDF7E1FF3A
:107E500000E0FFFFFE0E1FFF70B586B0002406464F
:107E600000940194029403940068214988423DD112
:107E70002049886940F400708861886900F40070C6
:107E80000490886940F004008861886900F004006B
:107E90000490886940F0100088618869032500F02B
:107EA000100004908320CDE900056946124800F0D7
:107EB00025FF1020CDE900056946104800F01EFF9F
:107EC000104D0F48C5E900048020C5E9024040007C
:107ED0002861800068612020C5E90604284600F07A
:107EE00051FC08B1FFF72AFC35626E6206B070BD26
:107EF0000024014000100240000801400010014031
:107F000008000240E40300202DE9F0470446006821
:107F1000414D90468946A84207D04049884204D046
:107F200040F216613EA005F09DFC3B4E20684A4F92
:107F3000361DA84201D0B84207D1306810F4702F26
:107F400003D001252846BDE8F08794F824000128D5
:107F50000CD0012084F824002046FDF7C5FD050063
:107F60004FF0000104D084F82410EBE70220EAE788
:107F7000A06A40F60162904340F48070A0622068DD
:107F8000B84218D1326812F4702F14D0A06A40F4AD
:107F90008010A0623068400505D5A06A20F400502A
:107FA00040F48050A062A06AC0040AD5E06A20F0C4
:107FB0000600E06206E0A26A22F48012A262406833
:107FC000E9E7E16284F82410216A24488862216A82
:107FD0002348C862216A2348086321686FF00200C1
:107FE00008602068816841F480718160216843469F
:107FF0004A464C31206A00F09DFC20688168C1F33C
:1080000042410729816803D041F48011816099E7DA
:1080100041F4A001FAE7000000240140003C0140C7
:108020002E2E2F447269766572732F53544D33325E
:10803000463178785F48414C5F4472697665722FAB
:108040005372632F73746D3332663178785F686171
:108050006C5F6164632E630000280140755A00085C
:10806000DD5A0008C35A00082DE9F04116460D46B6
:10807000040049D0002D47D02B68A3B1042B12D0A7
:108080000C2B10D0142B0ED01C2B0CD0242B0AD070
:108090002C2B08D0342B06D03C2B04D040F2F131ED
:1080A0001BA005F0DFFB686830B1022804D040F265
:1080B000F23117A005F0D6FB36B1102E04D040F2F5
:1080C000F33113A005F0CEFB607901281ED0012307
:1080D00063710220207121680F6806F0100040F6DD
:1080E000FE7282409743D5E900252A4382403A43F5
:1080F0000A6021680A68C0258540AA430A60237186
:1081000000206071BDE8F0810120FBE70220F9E763
:108110002E2E2F447269766572732F53544D33326D
:10812000463178785F48414C5F4472697665722FBA
:108130005372632F73746D3332663178785F686180
:108140006C5F6461632E630010B504000AD059B1FE
:10815000102904D04FF4727105A005F083FB20684C
:10816000006B10BD012010BD0068C06A10BD00008A
:108170002E2E2F447269766572732F53544D33320D
:10818000463178785F48414C5F4472697665722F5A
:108190005372632F73746D3332663178785F686120
:1081A0006C5F6461632E630070B504000CD00D49F0
:1081B0002068884204D040F22B110BA005F052FB3E
:1081C0002079002510B105E0012070BD65712046C1
:1081D00000F026F802202071256101202071002086
:1081E00070BD0000007400402E2E2F447269766529
:1081F00072732F53544D3332463178785F48414C77
:108200005F4472697665722F5372632F73746D3396
:1082100032663178785F68616C5F6461632E6300F9
:1082200000B585B000210091019102910391006891
:108230000E49884218D10E48C16941F00051C16110
:10824000C16901F000510491816941F0040181612B
:108250008069694600F004000490302000900320FB
:108260000190044800F04AFD05B000BD00740040D4
:108270000010024000080140F8B507004FF0000070
:108280001E4614460D46009023D035B1102D04D063
:1082900040F2493111A005F0E5FA44B1042C06D0B2
:1082A000082C04D040F24A310CA005F0DBFA4FF65E
:1082B000F070864204D940F24B3108A005F0D2FAA2
:1082C00038680090204435B11430009006600020DA
:1082D000F8BD0120F8BD0830F7E700002E2E2F442E
:1082E0007269766572732F53544D33324631787804
:1082F0005F48414C5F4472697665722F5372632FF9
:1083000073746D3332663178785F68616C5F646175
:10831000632E630070B50D46040027D035B1102DD3
:1083200004D04FF4E87118A005F09CFA6079012898
:108330001ED001226271022020712068036805F0BE
:10834000100102FA01F633430360206895B1036817
:1083500003F470153C238B409D4203D1416841F0EA
:108360000201416022710020607170BD012070BD6A
:10837000022070BD0168C1F383010F29F2D1416869
:1083800041F00101EDE700002E2E2F447269766561
:1083900072732F53544D3332463178785F48414CD5
:1083A0005F4472697665722F5372632F73746D33F5
:1083B00032663178785F68616C5F6461632E630058
:1083C00010B590F821100022022905D00421816304
:1083D00080F82020012010BD01680B6823F00E03F7
:1083E0000B6001680B6823F001030B6090F84030CC
:1083F000012404FA03F1C36B596080F8214080F82E
:108400002020104610BD00002DE9F05F90F82110EB
:108410000024022903D004218163012485E001683E
:108420000A6822F00E020A6001680A6822F001025E
:108430000A603F4E3E4FB215DFF8F4C0DFF8F0900F
:10844000DFF8ECA0DFF8E8B0DFF8E4E00168783F9F
:1084500013011502ACF1640CA9F15009AAF13C0A10
:10846000ABF1280BAEF1140E4FF48018B14227D9AE
:10847000B9420ED0614512D049451DD0514518D0A2
:10848000594518D0714501D1424615E0294EB142F7
:1084900001D1012210E0274E1436B14201D1102241
:1084A0000AE0244E2836B14206D0224A3C3291429C
:1084B00001D11A4600E02A461E49091F0A602BE036
:1084C000B94213D0614517D0494522D051451DD03E
:1084D00059451DD0714501D142461AE0B14202D141
:1084E0004FF0807215E0134EB14201D1012210E02D
:1084F000104E1436B14201D110220AE00D4E28363A
:10850000B14206D00B4A3C32914201D11A4600E0FA
:108510002A46074980394A60012180F8211000214C
:1085200080F82010416B01B188472046BDE8F09FDC
:108530008000024008040240806B70472DE9F05F24
:10854000C16B0B6801680A68046C4FF0040808FAF4
:1085500004F8844D844E854FDFF814C2DFF814927E
:10856000DFF814A2DFF814B2DFF814E218EA030F00
:1085700065D05FEA427862D50A68920603D40A6839
:1085800022F004020A60DFF8F0814FF48062016893
:1085900008F1140813011402414524D9A9420DD051
:1085A000B1420FD0B9421AD0614515D0494515D016
:1085B000514501D1120312E0594501D104220EE0C8
:1085C000714501D140220AE06D4D1435A94206D013
:1085D0006B4A2832914201D11A4600E0224667498F
:1085E000091F0A6029E0A94213D0B14215D0B9424F
:1085F00020D061451BD049451BD0514502D14FF4D5
:10860000800217E0414502D14FF0806212E05945E7
:1086100001D104220EE0714501D140220AE0584DFB
:108620001435A94206D0564A2832914201D11A4641
:1086300000E022464B4908394A60C16A71E04FF0B8
:10864000020808FA04F818EA030F70D05FEA82788B
:108650006DD50A68920606D40A6822F00A020A60FA
:10866000012180F82110DFF810814FF400720168B9
:1086700008F1140813011402414524D9A9420DD070
:10868000B1420FD0B9421AD0614515D0494515D035
:10869000514501D1120312E0594501D102220EE0E9
:1086A000714501D120220AE0354D1435A94206D08A
:1086B000334A2832914201D11A4600E022462F491E
:1086C000091F0A6029E0A94213D0B14215D0B9426E
:1086D00020D061451BD049451BD0514502D14FF4F4
:1086E000001217E0414502D14FF0007212E05945E7
:1086F00001D102220EE0714501D120220AE0204D75
:108700001435A94206D01E4A2832914201D11A4698
:1087100000E02246134908394A60002180F8201001
:10872000816A00291CD0BDE8F05F0847FFE70825F3
:10873000A5401D4214D0120712D50A6822F00E027D
:108740000A6090F84020C36B012101FA02F25A60DE
:10875000816380F82110002180F82010016BE0E790
:10876000BDE8F09F080002401C00024030000240BB
:1087700044000240580002406C00024008040240DD
:108780001C04024070B504007ED05A4920685A4D3E
:1087900088422DD057491431884229D05549283173
:1087A000884225D053493C31884221D0514950312B
:1087B00088421DD04F496431884219D04D497831E3
:1087C000884215D0A84213D04B49143188420FD0AB
:1087D0004949283188420BD047493C31884207D06B
:1087E00045495031884203D0992144A005F03AF818
:1087F000606840B1102806D0B0F5804F03D09A21B0
:108800003EA005F02FF8A068402804D018B19B21A5
:108810003AA005F027F8E068802804D018B19C2120
:1088200036A005F01FF8206948B1B0F5807F06D06A
:10883000B0F5007F03D09D2130A005F013F86069EA
:1088400048B1B0F5806F06D0B0F5006F03D09E211F
:108850002AA005F007F8A06928B1202803D09F219D
:1088600026A004F0FFFFE06960B1B0F5805F09D099
:10887000B0F5005F06D0B0F5405F03D0A0211FA087
:1088800004F0F0FF142100E00CE02068A8420BD2B5
:10889000184A52420244B2FBF1F1890021641549A1
:1088A00008390AE0012070BD134A52420244B2FB6B
:1088B000F1F18900216410490839E163022184F84B
:1088C0002110026843F6F0718A43F4E90113194359
:1088D000D4E902352B4319432369194363691943CA
:1088E000A36919431143016000206063012161778E
:1088F000207770BD08000240080402402E2E2F444D
:108900007269766572732F53544D333246317878DD
:108910005F48414C5F4472697665722F5372632FD2
:1089200073746D3332663178785F68616C5F646D43
:10893000612E63002DE9F041884604460025581E4B
:108940004FF6FF711E461746884204D34FF4B771A5
:108950001DA004F087FF94F8200001280DD001200D
:1089600084F8200094F821100020012907D084F811
:10897000200002252846BDE8F0810220FBE7022105
:1089800084F82110A0632068016821F001010160D2
:1089900033463A4641462046FEF7AEFEE06A0028DE
:1089A0002068016802D041F00E0106E021F00401C8
:1089B00001602068016841F00A01016020680168D7
:1089C00041F001010160D5E72E2E2F4472697665D2
:1089D00072732F53544D3332463178785F48414C8F
:1089E0005F4472697665722F5372632F73746D33AF
:1089F00032663178785F68616C5F646D612E630008
:108A000070B5044600F084FB0546601C02D00448A3
:108A10000078044400F07CFB401BA042FAD370BDF8
:108A2000A40300202DE9F05F04464A480F460126C2
:108A3000017E012941D0012180460176DFF818B17D
:108A400020684CF2503940B1022839D0A62143A009
:108A500004F008FF2068022832D0A068DFF83CA1AB
:108A60004FF0FF35B0F1006F0AD3BAF80010B1F53E
:108A7000007F38D0B1F5C07F3FD0494988420BD93B
:108A8000E72136A004F0EEFEBAF80000B0F5007F52
:108A90002CD0B0F5C07F33D0D4E9020105EBC12161
:108AA00001443F48814203D9E8212CA004F0DAFEBA
:108AB0004846FEF7CDFE50B346E00220BDE8F09FE9
:108AC0004C464846FEF7C4FEA8BB0120FEF738FE20
:108AD0002046FEF7BDFEDBF81010064621F004012B
:108AE000CBF8101030E02F498842C9D8D4E90201F0
:108AF00005EBC12101442B48D4E72B498842BFD85C
:108B0000D4E9020105EBC12101442748CAE73D60D1
:108B1000CA46D946A56811E02846FEF74BFE5046E6
:108B2000FEF796FED9F81010060021F00201C9F8F0
:108B3000101001D03D6007E005F50065D4E90201A1
:108B400000EBC120A842E7D8002188F81810304671
:108B5000B4E7000038110020002002402E2E2F44E0
:108B60007269766572732F53544D3332463178787B
:108B70005F48414C5F4472697665722F5372632F70
:108B800073746D3332663178785F68616C5F666CE0
:108B90006173685F65782E6300000000E0F7FF1FD7
:108BA000FFFF0308FFFF0708FFFF050803480169EF
:108BB00041F0800101610020704700000020024068
:108BC00000F0FABB2DE9F05F06462D480D46002463
:108BD000017E17469846012925D00121814601765C
:108BE000012E07D0022E05D0032E03D0B02125A0E0
:108BF00004F038FEB5F1006F0AD331480088B0F5B3
:108C0000007F13D0B0F5C07F12D02E48854203D923
:108C1000B1211CA004F026FE4CF2503A5046FEF75B
:108C200017FE38B127E00220BDE8F09F2648EDE7A7
:108C30002648EBE7012E02D0022E00D00426D346B0
:108C4000DFF88CA015E0220141463846FCF707FB0F
:108C500081B205EB4400FEF7BFFD5846FEF7F8FD74
:108C6000DAF8102022F00102CAF8102018B9641CAA
:108C7000E4B2B442E7D3002289F81820D4E7000018
:108C8000381100202E2E2F447269766572732F538F
:108C9000544D3332463178785F48414C5F447269B5
:108CA0007665722F5372632F73746D333266317829
:108CB000785F68616C5F666C6173682E63000000AA
:108CC000E0F7FF1FFFFF0308FFFF0708FFFF05088E
:108CD00000200240064900200A69120607D5054A0D
:108CE0004A60054A4A600969090600D501207047B3
:108CF0000020024023016745AB89EFCD2DE9F84FF5
:108D0000DFF8C0A24FF00008DFF8BCB20D46044601
:108D10004746504514D05C4512D0AC4884420FD031
:108D2000AB4884420CD0AB48844209D0AA48844264
:108D300006D0AA48844203D0BD21A9A004F092FD28
:108D400028680104090C01D0000C03D0BE21A4A0A6
:108D500004F088FD686800281FD00128FCD0112885
:108D6000FAD00228F8D01228F6D0AC498842F3D0C5
:108D7000AB498842F0D0AB498842EDD0AA4988423D
:108D8000EAD0AA498842E7D0A9498842E4D003281A
:108D9000E2D0BF2192A004F065FD0CE1012000FAB1
:108DA00008F906EA09064E4574D1544514D05C45CD
:108DB00012D0864884420FD0854884420CD0854822
:108DC000844209D08448844206D08448844203D037
:108DD000CD2183A004F046FD904A6868811A904234
:108DE00059D00EDC03286FD006DC002853D00128B0
:108DF00019D0022869D131E0112821D0122864D17C
:108E00003AE0B1F5881F46D006DCB1F5803F42D08C
:108E1000B1F5801F59D13EE0B1F5001F3BD0B1F54F
:108E2000041F52D137E0E868022807D0012805D096
:108E3000032803D0D5216AA004F014FDEF6844E0B4
:108E4000E868022807D0012805D0032803D0DC21D8
:108E500063A004F007FDEF683F1D36E0E8680228D4
:108E600007D0012805D0032803D0E3215CA004F03B
:108E7000F9FCEF68083728E0E868022807D00128E5
:108E800005D0032803D0EA2155A004F0EBFCEF68DD
:108E90000C371AE08DE0A86878B101280FD00228BD
:108EA00007D0F7214EA004F0DDFCA86828B1012806
:108EB00005D00827C4F8149007E0042705E0082728
:108EC000C4F8109001E0FFE70027FF2E01D82146EB
:108ED00001E004F104014FEA880001D9A0F120006B
:108EE0000A684FF00F0303FA00FC22EA0C0207FAAB
:108EF00000F042EA00020A606868C00059D54D4897
:108F0000816941F001018161806928F0030100F06D
:108F10000100009048480A18D2F808C04FEA88704B
:108F2000010F8B402CEA030C544501D1002018E0BE
:108F30005C4501D1012014E02448844201D1022083
:108F40000FE02348844201D103200AE021488442F3
:108F500001D1042005E02048844201D1052000E031
:108F60000620884040EA0C0090606868C0023348E0
:108F7000016801D5314300E0B143016068688002B7
:108F80002F48016801D5314300E0B14301606868B2
:108F900080032C48016801D5314300E0B1430160F2
:108FA0006868C0032848016801D5314300E0B14337
:108FB000016008F101082E6836FA08F07FF4EEAE81
:108FC000BDE8F88F00080140000C0140001001408E
:108FD0000014014000180140001C01400020014025
:108FE0002E2E2F447269766572732F53544D33328F
:108FF000463178785F48414C5F4472697665722FDC
:109000005372632F73746D3332663178785F6861A1
:109010006C5F6770696F2E63000000000000111024
:10902000000021100000311000001210000022107A
:10903000000032100010024000000140080401400E
:109040000C040140040401400004014070B50C0010
:10905000054604D14FF4DA7103A004F003FCA868BC
:10906000204000D0012070BD2E2E2F4472697665FD
:1090700072732F53544D3332463178785F48414CE8
:109080005F4472697665722F5372632F73746D3308
:1090900032663178785F68616C5F6770696F2E63E4
:1090A0000000000070B515460C00064604D14FF4D0
:1090B000EA7108A004F0D6FB45B1012D04D040F2BE
:1090C000D51104A004F0CEFB346170BD20043061E2
:1090D00070BD00002E2E2F447269766572732F5377
:1090E000544D3332463178785F48414C5F44726961
:1090F0007665722F5372632F73746D3332663178D5
:10910000785F68616C5F6770696F2E6300000000B4
:109110000148806870470000A4030020024881686D
:109120000278114481607047A4030020074810B5FD
:10913000016841F010010160032000F0FDF80F20EC
:1091400000F006F800F024F8002010BD00200240D6
:1091500070B50D4D04464FF47A712878B1FBF0F0EC
:109160000A490968B1FBF0F000F02FFE48B9102C55
:1091700007D200222146501E00F090F800206C60BB
:1091800070BD012070BD0000A4030020B0030020CA
:109190000C4808B5816941F001018161816901F0E4
:1091A00001010091C16941F08051C161C069064966
:1091B00000F080500090486820F0E06040F00070BF
:1091C000486008BD001002400000014010B50400D6
:1091D00003D5CD2109A004F045FB002C0DDB04F0E4
:1091E0001F01012088406109890001F1E021C1F8D7
:1091F0008001BFF34F8FBFF36F8F10BD2E2E2F4412
:109200007269766572732F53544D333246317878D4
:109210005F48414C5F4472697665722F5372632FC9
:1092200073746D3332663178785F68616C5F636F39
:10923000727465782E63000010B5040003D5BD215B
:1092400007A004F00FFB002C09DB04F01F01012034
:1092500088406109890001F1E021C1F8000110BDD9
:109260002E2E2F447269766572732F53544D33320C
:10927000463178785F48414C5F4472697665722F59
:109280005372632F73746D3332663178785F68611F
:109290006C5F636F727465782E63000070B514465E
:1092A0000D460646102A03D3A92113A004F0DAFACA
:1092B000102D03D3AA2110A004F0D4FA1D48006891
:1092C000C0F30223C3F10700042800D90420191DAC
:1092D000072901D2002300E0DB1E012202FA00F17F
:1092E000491E294099409A40521E22403046BDE80E
:1092F0007040114304F02ABA2E2E2F44726976650D
:1093000072732F53544D3332463178785F48414C55
:109310005F4472697665722F5372632F73746D3375
:1093200032663178785F68616C5F636F72746578FC
:109330002E6300000CED00E010B5044607280BD0AA
:10934000062C09D0052C07D0042C05D0032C03D003
:10935000912108A004F086FA154A04F0070110686C
:109360004FF6FF03184040EA0120124908431060FD
:1093700010BD00002E2E2F447269766572732F5334
:10938000544D3332463178785F48414C5F447269BE
:109390007665722F5372632F73746D333266317832
:1093A000785F68616C5F636F727465782E6300002C
:1093B0000CED00E00000FA05BFF34F8F054801688F
:1093C000054A01F4E06111430160BFF34F8F00BF14
:1093D000FDE700000CED00E00400FA0570B505465D
:1093E0000024C0070CD1A8070AD4680708D42807AE
:1093F00006D4E80604D44FF4CA712AA004F032FA65
:10940000374E042D27D004DC012D28D0022D3ED16B
:109410003FE0082D1FD0102D39D170683168C90187
:1094200035D53049C0F38342C0038C5C09D57068E0
:10943000891EC0F34040085C2B49B1FBF0F0444367
:1094400001E02A4844437068400220D460000321B0
:10945000B0FBF1F41BE000F053FA044617E0306A69
:10946000C0F30121012903D1800701D5CC030EE00F
:10947000022905D1706A800702D549F6404406E00A
:10948000032904D13068800301D54FF224442046DB
:1094900070BD00F025FA7168C1F38131491C4900A3
:1094A000D6E700002E2E2F447269766572732F5313
:1094B000544D3332463178785F48414C5F4472698D
:1094C0007665722F5372632F73746D333266317801
:1094D000785F68616C5F7263635F65782E6300001C
:1094E0000010024010F2000800127A0000093D004E
:1094F0002DE9F84304460068514FC1070ED181079A
:1095000071D441077DD40107FCD4C0067AD46A2106
:109510004CA004F0A7F92078C00761D0606800254E
:1095200060B1B0F5807F09D0B0F5007F06D0B0F50E
:10953000407F03D0722143A004F094F9F869C00081
:1095400008D4F86940F08050F861F869012500F00E
:10955000805000904A480168C90511D401688046CE
:1095600041F480710160FFF7D3FD064604E0FFF788
:10957000CFFD801B642822D8D8F80000C005F6D59E
:10958000386A10F4407020D0A18801F44071814203
:109590001BD0386A3B49012220F440700A60002247
:1095A0000A603862C00710D0FFF7B2FD064641F2EC
:1095B000883807E0FFF7ACFD811B414502D9032045
:1095C000BDE8F883386A8007F4D5386A616820F40A
:1095D0004070084338621DB1F86920F08050F8618E
:1095E0002078800717D5A06878B1B0F5804F0CD0EF
:1095F000B0F5004F09D0B0F5404F06D0B72111A00B
:1096000001E008E00AE004F02DF97868A16820F490
:109610004040084378602078C0060FD56069B0F5F7
:10962000800F05D020B140F2131106A004F01AF902
:109630007868616920F48000084378600020BFE703
:10964000001002402E2E2F447269766572732F53DC
:10965000544D3332463178785F48414C5F447269EB
:109660007665722F5372632F73746D33326631785F
:10967000785F68616C5F7263635F65782E6300007A
:1096800000700040400442422DE9F0470D460400BE
:109690007DD02068C1070AD1810708D4410706D4CC
:1096A000000704D440F2363172A004F0DBF845B173
:1096B000012D06D0022D04D040F237316DA004F008
:1096C000D1F8DFF8E881D8F8000000F00700A842E0
:1096D0000CD2D8F8001021F007012943C8F8001077
:1096E000D8F8000000F00700A84277D12068704E3B
:1096F000810729D5400703D5706840F4E0607060A9
:109700002078000703D5706840F460507060A0684E
:10971000A0B1802812D0902810D0A0280ED0B02858
:109720000CD0C0280AD0D02808D0E02806D0F028D5
:1097300004D040F25D314FA004F094F87068A16845
:1097400020F0F000084370602078C00735D06068D2
:1097500068B101281CD002281DD04FF4597145A0D2
:1097600004F080F86068012812D0022813D0306815
:109770008007002832DA7068616820F0030008432F
:109780007060FFF7C5FC074641F288390EE025E01E
:1097900030688003EDE730688001EAE7FFF7B8FC46
:1097A000C11B494502D90320BDE8F0877068616894
:1097B00000F00C00B0EB810FF0D1D8F8001040465B
:1097C00001F00701A9420BD9016821F007012943E3
:1097D0000160006800F00700A84201D00120E3E723
:1097E00020784FF4806540074FF4A0674FF4C068BD
:1097F0004FF4E06914D5E06860B1A8420AD0B842DD
:1098000008D0404506D0484504D040F2A23119A006
:1098100004F028F87068E16820F4E06008437060A4
:109820002078000715D5206960B1A8420AD0B84257
:1098300008D0404506D0484504D040F2A9310DA0DB
:1098400004F010F87068216920F4605040EAC1000B
:10985000706000F055F87168164AC1F30311515C4D
:10986000C8401549086015480068FFF771FC0020E2
:109870009AE700002E2E2F447269766572732F537B
:10988000544D3332463178785F48414C5F447269B9
:109890007665722F5372632F73746D33326631782D
:1098A000785F68616C5F7263632E63000020024022
:1098B0000010024020F20008B0030020A80300209E
:1098C0000448054900684968044AC1F30221515C13
:1098D000C8407047B00300200010024030F200087A
:1098E0000448054900684968044AC1F3C221515C33
:1098F000C8407047B00300200010024030F200085A
:109900000E4B59680E4801F00C02042A11D0082AA7
:109910000FD10C48C1F38342C903805C0AD5596852
:10992000084AC1F34041921E515C054A5043B0FBC6
:10993000F1F07047044948437047000000100240AE
:1099400000127A00FEF1000800093D002DE9F84FF1
:1099500004007DD0DFF8EC83FB4D20684FF0010B55
:109960004FF000094FF4803A60B1C1070DD1810773
:1099700061D401076DD440076CD440F26511F3A0A7
:1099800003F070FF2078C00752D060684FF4A02623
:1099900040B1504506D0B04204D040F26B11EBA06C
:1099A00003F060FF6868C0F38100012807D0686891
:1099B000C0F38100022809D16868C00306D5286871
:1099C000800335D560680028C3D031E06068504519
:1099D00003D1286840F4803009E008B1B0420DD0CE
:1099E000286820F480302860286820F480202860CF
:1099F000606888B1FFF78CFB064609E0286840F4F0
:109A000080202860E5E7FFF783FB801B642875D87A
:109A100028688003F7D50BE0FFF77AFB064604E0E1
:109A2000FFF776FB801B6428F1D828688003F7D401
:109A3000207880074DD5206930B1012804D040F24C
:109A40009F11C2A003F00EFF60691F2808D902E031
:109A500096E041E079E04FF4D071BCA003F002FF42
:109A6000686810F00C0F07D06868C0F38100022806
:109A700009D16868C00306D42868800713D5206917
:109A800001287DD10FE02069A8B1C8F800B0FFF728
:109A90003FFB064604E0FFF73BFB801B0228B6D8DD
:109AA00028688007F7D52868616920F0F80040EA47
:109AB000C10028600DE0C8F80090FFF729FB0646BA
:109AC00004E0FFF725FB801B0228A0D82868800748
:109AD000F7D42078000735D5AA4EA06920B3012815
:109AE00006D04FF4F07199A003F0BCFEA069D8B184
:109AF000C6F800B0FFF70CFB064605E04DE1FFF7A6
:109B000007FB801B02288FD8686A8007F7D59E481C
:109B10004FF4FA510068B0FBF1F0009000BF0098DC
:109B2000411E0091FAD20DE0C6F80090FFF7F0FA5E
:109B3000064604E0FFF7ECFA801B0228AFD8686AFB
:109B40008007F7D42078400769D5E068002740B146
:109B5000012806D0052804D040F20F217BA003F095
:109B600081FEE869C00008D4E86940F08050E861EF
:109B7000E869012700F0805000908448016800E007
:109B80001FE1C90510D4016841F480710160FFF73D
:109B9000BFFA064604E0FFF7BBFA801B642894D89E
:109BA0007A480068C005F6D5E06801280AD008B1F7
:109BB000052811D0286A20F001002862286A20F0C8
:109BC000040002E0286A40F001002862E06898B1D1
:109BD000FFF79EFA06460BE0286A40F00400286270
:109BE000F0E7FFF795FA811B41F2883081428AD86D
:109BF000286A8007F5D50DE0FFF78AFA064606E0E9
:109C0000FFF786FA811B41F28830814296D8286A94
:109C10008007F5D41FB1E86920F08050E861E06961
:109C200000287DD0012809D0022807D040F2AD21BC
:109C300046A003F017FEE069002871D06868C0F301
:109C400081000228E0696CD0022805D0C8F8609035
:109C5000FFF75EFA0446A3E0206A30B1504504D015
:109C600040F2B62139A003F0FDFD606A70B3B0F593
:109C7000802F2BD0B0F5002F28D0B0F5402F25D065
:109C8000B0F5801F22D0B0F5A01F1FD0B0F5C01FC7
:109C90001CD0B0F5E01F19D0B0F5001F16D0B0F5FC
:109CA000101F13D0B0F5201F10D0B0F5301F0DD00D
:109CB000B0F5401F0AD0B0F5501F07D0B0F5601FB7
:109CC00004D040F2B72121A003F0CCFD4746C8F8EC
:109CD0006090FFF71DFA064604E0FFF719FA801BB3
:109CE00002285AD828688001F7D4206A50450FD13D
:109CF000A06838B1B0F5003F04D040F2CD2113A0E8
:109D000003F0B0FD6868A16820F400300843686083
:109D1000D4E908010843696821F47411084301E09B
:109D200051E041E06860C7F860B0FFF7F1F9044620
:109D300004E0FFF7EDF9001B02282ED82868800107
:109D4000F7D540E000004242001002402E2E2F4482
:109D50007269766572732F53544D33324631787879
:109D60005F48414C5F4472697665722F5372632F6E
:109D700073746D3332663178785F68616C5F7263DB
:109D8000632E630080044242B00300200070004054
:109D9000FFF7BEF9001B022802D90320BDE8F88FA7
:109DA00028688001F4D40EE00128F7D06868226AA0
:109DB00000F48031914204D1616A00F4701088424D
:109DC00001D00120EAE70020E8E710B5401EB0F11D
:109DD000807F01D3012010BD4FF0E02460610F218E
:109DE000601703F0B3FC0020A06107202061002071
:109DF00010BD70477047000070B50C4605460068FE
:109E00003E49884207D03E49884204D040F2F17171
:109E10003CA003F027FD2068B0F5006F05D020B10D
:109E200040F2F27137A003F01DFD6068B0F5806F5D
:109E300005D020B140F2F37132A003F013FDA06809
:109E400068B1B0F5807F0AD0B0F5007F07D0B0F5DB
:109E5000407F04D040F2F4712AA003F003FDE068D3
:109E6000FF2804D940F2F57126A003F0FBFC20691D
:109E7000B0F5805F05D020B140F2F67121A003F06B
:109E8000F1FC606938B1B0F5005F04D040F2F771C1
:109E90001CA003F0E7FCE069B0F5804F05D020B1CD
:109EA0004FF4FF6117A003F0DDFC95F83C0001289A
:109EB00022D0012085F83C00E068A26820F44070C0
:109EC0001043626820F480601043226820F4006030
:109ED0001043226920F480501043626920F400503E
:109EE0001043E269002120F4804010432A68506446
:109EF00085F83C10002070BD022070BD002C014090
:109F0000003401402E2E2F447269766572732F53F0
:109F1000544D3332463178785F48414C5F44726922
:109F20007665722F5372632F73746D333266317896
:109F3000785F68616C5F74696D5F65782E6300009F
:109F40002DE9F05F04460068364E374FDFF8DC80BD
:109F5000DFF8DC90DFF8DCA00D464FF0804BB0421C
:109F600014D0B84212D0584510D040450ED04845C4
:109F70000CD050450AD03049884207D02F4988423A
:109F800004D040F2B4712EA003F06CFC286890B1AC
:109F9000102810D020280ED030280CD040280AD00D
:109FA000502808D0602806D0702804D040F2B5713F
:109FB00023A003F057FC6868802805D020B140F248
:109FC000B6711FA003F04EFC94F83C00012827D086
:109FD000012284F83C20022084F83D002068436878
:109FE000816823F0700C2B6843EA0C0343602068FF
:109FF000B04209D0B84207D0584505D0404503D0FB
:10A00000484501D0504504D16B6821F080010B43D5
:10A01000836084F83D20002084F83C00BDE8F09F78
:10A020000220FBE7002C0140003401400004004006
:10A0300000080040000C00400010004000140040E8
:10A040002E2E2F447269766572732F53544D33321E
:10A05000463178785F48414C5F4472697665722F6B
:10A060005372632F73746D3332663178785F686131
:10A070006C5F74696D5F65782E6300002DE9F041B7
:10A0800005460068304E314F0C46B04204D1DCB179
:10A09000042C1CD0082C1DD0B84204D1A4B1042C2F
:10A0A00015D0082C16D040F25A4129A003F0DAFB53
:10A0B00054B1042C0BD0082C0CD095F84500012885
:10A0C0000BD00120BDE8F08195F84200F7E795F844
:10A0D0004300F4E795F84400F1E702205CB3042C58
:10A0E0002CD0082C2DD085F8450004222146286864
:10A0F00002F0D6FB2868416C41F4004141642868B5
:10A10000B0420DD0B8420BD0B0F1804F08D01F49FB
:10A11000884205D01E49884202D01E49884204D197
:10A12000816801F00701062903D0016841F00101AF
:10A1300001600020C6E785F84200D6E785F84300B5
:10A14000D3E785F84400D0E7002C014000340140FB
:10A150002E2E2F447269766572732F53544D33320D
:10A16000463178785F48414C5F4472697665722F5A
:10A170005372632F73746D3332663178785F686120
:10A180006C5F74696D5F65782E63000000040040A9
:10A1900000080040000C004070B50C460546006801
:10A1A0002349884204D184B1042C0ED0082C0CD051
:10A1B0002049884204D144B1042C06D0082C04D094
:10A1C00040F28A411CA003F04DFB00222146286882
:10A1D00002F066FB2868026A41F211131A4240F24B
:10A1E000444106D1026A0A4203D1426C22F4004281
:10A1F00042642868026A1A4206D1026A0A4203D1FE
:10A20000016821F00101016001203CB1042C08D05B
:10A21000082C09D085F84500002070BD85F8420063
:10A22000FAE785F84300F7E785F84400F4E7000013
:10A23000002C0140003401402E2E2F4472697665B7
:10A2400072732F53544D3332463178785F48414C06
:10A250005F4472697665722F5372632F73746D3326
:10A2600032663178785F68616C5F74696D5F6578BC
:10A270002E63000010B5040051D03C49206888428C
:10A2800019D03B49884216D0B0F1804F13D03949DC
:10A29000884210D0384988420DD0384988420AD0C7
:10A2A0003749884207D03749884204D040F2131119
:10A2B00035A003F0D7FAA06860B110280AD0202892
:10A2C00008D0402806D0602804D04FF48A712EA010
:10A2D00003F0C8FA206950B1B0F5807F07D0B0F51F
:10A2E000007F04D040F2151127A003F0BBFAE0680C
:10A2F0004FF6FE71401E884204D94FF48B7122A0A4
:10A3000003F0B0FAA06930B1802804D040F21711F0
:10A310001DA003F0A7FA94F83D0010B107E001205A
:10A3200010BD002084F83C00204600F049F80220CF
:10A3300084F83D00211D206802F010FA012084F805
:10A34000460084F83E0084F83F0084F8400084F81A
:10A35000410084F8420084F8430084F8440084F803
:10A36000450084F83D00002010BD0000002C014095
:10A37000003401400004004000080040000C004090
:10A3800000100040001400402E2E2F4472697665A4
:10A3900072732F53544D3332463178785F48414CB5
:10A3A0005F4472697665722F5372632F73746D33D5
:10A3B00032663178785F68616C5F74696D2E630016
:10A3C00000B585B0002100910191029103910068D0
:10A3D0002F4A3049904209D1886940F40060886171
:10A3E000886900F40060049005B000BDB0F1804FB2
:10A3F00013D0294A904239D1C86940F00200C8619F
:10A40000C869002200F00200049011461D20FEF7EA
:10A4100045FF1D20FEF710FFE6E7C86940F0010088
:10A42000C861C86900F001000490886940F0080024
:10A4300088618869694600F0080004904FF4406024
:10A440000090012002901548FEF758FC1449486816
:10A4500020F4407040F0E06040F40070486000225A
:10A4600011461C20FEF71AFF1C20D3E70D4A90422C
:10A47000BAD1C86940F01000C861C869002200F074
:10A480001000049011463620FEF708FF3620C1E781
:10A49000002C01400010024000040040000C01406C
:10A4A00000000140001000402DE9F0470746006819
:10A4B000234C244D244EDFF89480DFF894904FF025
:10A4C000804AA04214D0A84212D0504510D0B042C9
:10A4D0000ED040450CD048450AD01E49884207D0CE
:10A4E0001D49884204D04FF4E8711CA003F0BAF96A
:10A4F00097F83D00012802D00120BDE8F087022036
:10A5000087F83D003868C16841F00101C1603868D2
:10A51000A04209D0A84207D0504505D0B04203D090
:10A52000404501D0484504D1816801F00701062962
:10A5300003D0016841F0010101600020DDE7000067
:10A54000002C01400034014000040040000800409D
:10A55000000C004000100040001400402E2E2F443C
:10A560007269766572732F53544D33324631787861
:10A570005F48414C5F4472697665722F5372632F56
:10A5800073746D3332663178785F68616C5F7469BB
:10A590006D2E63002DE9F05F054690F83C000C46F7
:10A5A0004FF0000B01283ED0012085F83C0002202E
:10A5B00085F83D0020684FF480594FF4005A484513
:10A5C00015D0702813D0504511D040280FD05028F6
:10A5D0000DD060280BD050B1102808D0202806D00C
:10A5E000302804D041F2BE41BDA003F03BF92868F9
:10A5F000816821F0770121F47F4181602068C6499C
:10A60000C64AC74BC74EC84F4FF0804C4FF4004866
:10A61000502872D00FDC202804D007DC0028FBD0A3
:10A6200010286BD13CE10220BDE8F09F3028F9D022
:10A630004028F6D105E160287DD070285FD04845DC
:10A6400042D05045EDD1286888420ED090420CD0BF
:10A6500060450AD0984208D0B04206D0B84204D033
:10A6600041F2E9419EA003F0FDF8A06858B14845C9
:10A6700009D0504507D0B0F5405F04D041F2EC411D
:10A6800097A003F0EFF86068404509D040B1022878
:10A6900006D00A2804D041F2ED4191A003F0E2F87F
:10A6A000E0680F2804D941F2EE418DA003F0DAF8FA
:10A6B000D4E90121E368286802F0FFF8286881687E
:10A6C00041F48041816002E128688842FBD09042D9
:10A6D000F9D06045F7D09842F5D0B042F3D0B842F7
:10A6E000F1D092498842EED091498842EBD041F2B4
:10A6F000CA417BA003F0B6F8E9E042E0E5E0286853
:10A7000088420ED090420CD060450AD0984208D0C2
:10A71000B04206D0B84204D041F2D14170A003F05B
:10A72000A1F8A06868B148450BD0504509D0B0F5F4
:10A73000405F06D000E053E041F2D44168A003F04E
:10A7400091F86068404509D040B1022806D00A2837
:10A7500004D041F2D54162A003F084F8E0680F28EC
:10A7600004D941F2D6415EA003F07CF8D4E901217E
:10A77000E368286802F0A1F82868816841F0770151
:10A78000A0E7286888420ED090420CD060450AD0DD
:10A79000984208D0B04206D0B84204D041F2FD4100
:10A7A0004FA003F05FF86068404509D040B102282F
:10A7B00006D00A2804D04FF4A85149A003F052F85B
:10A7C000E0680F2804D941F2015145A003F04AF88E
:10A7D000E2686168286802F033FA502128682DE0A9
:10A7E000286888420ED090420CD060450AD098422A
:10A7F00008D0B04206D0B84204D041F20D5138A082
:10A8000003F030F86068404509D040B1022806D016
:10A810000A2804D041F2105131A003F023F8E06877
:10A820000F2804D941F211512DA003F01BF8E26862
:10A830006168286802F04CFA6021286802F047F845
:10A8400045E0286888420ED090420CD060450AD07E
:10A85000984208D0B04206D0B84204D041F21D510F
:10A860001FA002F0FFFF6068404509D040B10228F8
:10A8700006D00A2804D04FF4A95119A002F0F2FF23
:10A88000E0680F2804D941F2215115A002F0EAFF37
:10A89000E2686168286802F0D3F940212868CDE7B2
:10A8A000286888420ED090420CD060450AD0984269
:10A8B00008D0B04206D0B84204D041F2305108A0CE
:10A8C00002F0D0FF21682868B8E74FF0010B0120A3
:10A8D00085F83D00002085F83C005846A4E60000BD
:10A8E0002E2E2F447269766572732F53544D333276
:10A8F000463178785F48414C5F4472697665722FC3
:10A900005372632F73746D3332663178785F686188
:10A910006C5F74696D2E6300002C014000340140AF
:10A920000004004000080040000C004000100040FF
:10A93000001400400168B1F1804F01D1FCF786BAE4
:10A94000704700002DE9F84F054600200090864F23
:10A950002868DFF81882DFF81892DFF818A2DFF80D
:10A9600018B216460C46B8420FD040450DD0B0F193
:10A97000804F0AD0484508D0504506D0584504D0ED
:10A9800041F219017DA002F06DFF206840B102285C
:10A9900006D00A2804D041F21A0178A002F062FF22
:10A9A0006068012808D0022806D0032804D041F2AC
:10A9B0001B0172A002F056FFA06850B1042808D015
:10A9C000082806D00C2804D041F21C016BA002F02C
:10A9D00049FFE0680F2804D941F21D0167A002F089
:10A9E00041FF95F83C00012810D0012085F83C007B
:10A9F00076B1042E1CD0082E3FD00C2E76D00090BD
:10AA0000002085F83C000098BDE8F88F0220FBE7A5
:10AA1000D4E90012E368286802F024F92868816903
:10AA200021F00C01816128688169A268114322E04C
:10AA30002868B8420FD040450DD0B0F1804F0AD001
:10AA4000484508D0504506D0584504D041F233015E
:10AA50004AA002F007FFD4E90012E368286802F078
:10AA600049F92868816921F4406181612868816918
:10AA7000A26841EA02218161C2E72868B8420FD08A
:10AA800040450DD0B0F1804F0AD0484508D0504520
:10AA900006D0584504D041F2430138A002F0E2FE4E
:10AAA0002868D4E90027267B036A016A21F48071B3
:10AAB0000162C16923F4007321F00301394321F0DD
:10AAC000F00731074FF4007647EA116106EA0222E7
:10AAD0001A43C16102622868C16921F00C01C16199
