:020000040800F2
:1050000060120020915100088D8A00083D87000839
:105010000000000000000000000000000000000090
:10502000000000000000000000000000478B0008A6
:1050300000000000000000008F8A0008D38B0008E9
:10504000A351000800000000A3510008A35100086C
:10505000918A0008A3510008A3510008A55D00082B
:1050600000000000955D0008A3510008A35100084E
:1050700035550008A3510008A351000800000000A6
:10508000A35100084D8C0008000000003D8C000872
:10509000A3510008A3510008A3510008A351000820
:1050A000A3510008A3510008A3510008A351000810
:1050B0008197000800F002F800F03EF80CA030C81C
:1050C000083824182D18A246671EAB4654465D4684
:1050D000AC4201D100F030F87E460F3E0FCCB64610
:1050E0000126334200D0FB1AA246AB463343184791
:1050F000C4470000E4470000103A02D378C878C1E2
:10510000FAD8520701D330C830C101D504680C6009
:10511000704700000023002400250026103A01D328
:1051200078C1FBD8520700D330C100D50B6070475F
:105130001FB51FBD10B510BD00F0D1F91146FFF726
:10514000F7FF04F041FB00F0E9F903B4FFF7F2FFC9
:1051500003BC04F036FB000070B505460C4616464D
:1051600002E00FCC0FC5103E102EFAD2082E02D34B
:1051700003CC03C5083E042E07D301CC01C5361F5E
:1051800003E021782970641C6D1C761EF9D270BD75
:105190000748804707480047FEE7FEE7FEE7FEE7CF
:1051A000FEE7FEE704480549054A064B7047000044
:1051B000398C0008B55000086005002060120020FE
:1051C0006007002060070020704710B5202A04DB2C
:1051D0000846203AD040002110BD0B462024D34081
:1051E000D040A21A91400843194610BDFEB50546AD
:1051F00010460C46184373D0AE468C460020AD1ABC
:1052000001469C4167D36646002701243D46B61AF5
:105210009D4102D313463A462124654676462F0423
:10522000360C3E432D0CB61A9D4104D3150C1B04BD
:105230002B4312041034654676462F06360A3E4349
:105240002D0AB61A9D4104D3150E1B022B431202E0
:105250000834654676462F0736093E432D09B61AAF
:105260009D4104D3150F1B012B431201241D6546DC
:105270007646AF07B6083E43AD08B61A9D4104D343
:10528000950F9B002B439200A41C65467646EF07C2
:1052900076083E436D08B61A9D411AD392185B41B9
:1052A000641C16E00018764665464941B71A9D41D0
:1052B0000191009009D36046B11A98418E46844608
:1052C000009801990025401C6941DD0752082A43D6
:1052D0005B08641EE6D57246634603B0F0BDFFE787
:1052E00000200146C046C0462A462346F5E7002274
:1052F00003098B4273D3030A8B4258D3030B8B42AF
:105300003CD3030C8B4221D312E003460B437FD4E2
:10531000002243088B4274D303098B425FD3030AF4
:105320008B4244D3030B8B4228D3030C8B420DD307
:10533000FF22090212BA030C8B4202D31212090295
:1053400065D0030B8B4219D300E0090AC30B8B42D3
:1053500001D3CB03C01A5241830B8B4201D38B0381
:10536000C01A5241430B8B4201D34B03C01A524126
:10537000030B8B4201D30B03C01A5241C30A8B4269
:1053800001D3CB02C01A5241830A8B4201D38B0254
:10539000C01A5241430A8B4201D34B02C01A5241F8
:1053A000030A8B4201D30B02C01A5241CDD2C3096A
:1053B0008B4201D3CB01C01A524183098B4201D3E6
:1053C0008B01C01A524143098B4201D34B01C01AD1
:1053D000524103098B4201D30B01C01A5241C30849
:1053E0008B4201D3CB00C01A524183088B4201D3B8
:1053F0008B00C01A524143088B4201D34B00C01AA4
:105400005241411A00D201465241104670475DE0B8
:10541000CA0F00D04942031000D34042534000223B
:105420009C4603098B422DD3030A8B4212D3FC22E4
:10543000890112BA030A8B420CD3890192118B4263
:1054400008D3890192118B4204D389013AD0921179
:1054500000E08909C3098B4201D3CB01C01A524134
:1054600083098B4201D38B01C01A524143098B42FD
:1054700001D34B01C01A524103098B4201D30B01E6
:10548000C01A5241C3088B4201D3CB00C01A52410B
:1054900083088B4201D38B00C01A5241D9D24308F2
:1054A0008B4201D34B00C01A5241411A00D201462F
:1054B000634652415B10104601D34042002B00D599
:1054C0004942704763465B1000D3404201B500205B
:1054D000C046C04602BD704770477047704775466A
:1054E00000F024F8AE46050069465346C008C000E7
:1054F000854618B020B5FFF755FE60BC0027490867
:10550000B6460026C0C5C0C5C0C5C0C5C0C5C0C55B
:10551000C0C5C0C5403D49008D46704710B5044622
:10552000C046C0462046FFF710FE10BD0048704739
:105530000005002010B5024800F0A4FF10BD0000D7
:10554000B401002070B5044600681A49884203D0AF
:1055500019491AA004F036F920688168490727D54F
:10556000816810254907002905DA8168890702D476
:1055700081682943816001F0CDFF0646206880687C
:10558000400715D501F0C6FF801B02280CD9206802
:105590008068400708D5A06B2843A063E06B012119
:1055A0000843E063084670BD206880684007E9D47E
:1055B000002070BD002401401D0900002E2E2F4444
:1055C0007269766572732F53544D33324630787852
:1055D0005F48414C5F4472697665722F5372632F46
:1055E00073746D3332663078785F68616C5F6164C4
:1055F000632E630010B50246406A816B5023194246
:105600000AD1816B01225202114381630168CA6889
:105610001205920F05D020E0006B016B1046884701
:1056200010BD827E002A18D10A68120715D58A6833
:1056300001235207002A09DB4A680C24A2434A606E
:10564000816B1A0291431943816306E0816B20222A
:1056500011438163C16B1943C16300F00FFF10BD9B
:1056600010B5406A816B402211438163C16B0422F3
:105670001143C16300F004FF10BD10B5406A00F093
:10568000FEFE10BDF8B50446006881688907890FE1
:1056900001292FD10168C90702D1C168090429D5A0
:1056A00081680522114010250126012916D1816843
:1056B00002221143816021680320086001F02AFF63
:1056C000074620688068C00714D001F023FFC01B84
:1056D00002280BD920688068C00707D0A06B284338
:1056E000A063E06B3043E0630120F8BD2068806870
:1056F000C007EAD10020F8BDF8B5044600200090AC
:10570000206881688907890F012905D10168C907C7
:1057100036D1C168090433D481681A4A1026114071
:10572000012500291FD18168294381601748164946
:105730000068FFF7DCFD0090002802D0401E0090BA
:10574000FCD101F0E7FE074620680068C043C007AF
:1057500016D001F0DFFEC01B02280CD920680068BB
:10576000C043C00707D0A06B3043A063E06B284361
:10577000E0630120F8BD20680068C043C007E8D19D
:105780000020F8BD1700008040420F00CC00002030
:1057900001490020087270476C0100200149002077
:1057A000087470476C01002001490020087670479A
:1057B0006C01002010B500F007F810BD014880789A
:1057C00070470000EE000020054901208A7B8242DC
:1057D00004D010B5887300F0F3F810BD70470000D6
:1057E000F200002010B5034A5080918000F0BEF80E
:1057F00010BD0000F200002010B50249088000F042
:1058000015F910BDF200002000B50021012000F0C4
:10581000CFFA00BD10B54179827909025118C279D9
:10582000007A1202801889B280B2FFF7DBFF0021F4
:10583000022000F0BDFA10BD10B54179807909024F
:10584000401880B2FFF7D8FF0021032000F0B0FA23
:1058500010BD000002498A78824200D088707047EB
:10586000EE000020F0B481784378C678602917D123
:105870000C4F00213A78914212D20B4DCA00AC5C19
:105880009C4208D152195278B24204D1C900491938
:105890004968F0BC0847491C3A78C9B29142EDD337
:1058A000F0BC7047280100202C01002000B5002129
:1058B000052000F07DFA00BD00B50021072000F0B2
:1058C00077FA00BD38B58079AA2804D0A02813D172
:1058D0006946087002E0AA206946087000F09CFA48
:1058E000064C0121204600F071FA0122694620464B
:1058F00000F0E2FA01F0B2FB38BD000000FC000845
:1059000000B50021062000F053FA00BD10B5024892
:1059100001F0AAF810BD0000B401002010B5034842
:105920000322034901F026F810BD0000B401002055
:10593000E800002070B5074D0924284600F0EEFA73
:10594000204601F03BFE03220349284601F012F8ED
:1059500070BD0000B4010020E800002010B5FFF782
:10596000E9FF00F0F9F900F03AF810BD00B585B094
:105970000022009201920292039204920E4A9042F7
:1059800017D8814215D20322920500920622019275
:1059900001226B461A7204910390FFF7B7FF694624
:1059A000064800F043FB002801D000F00DFAFFF795
:1059B000B5FF05B000BD0000FF0F0000B4010020DE
:1059C0000346092010B5C00640210122002B02D059
:1059D00001F06AFD10BD002201F066FD10BD10B59A
:1059E0000920C0064021002201F05EFD10BD00002C
:1059F0000C4A00281146096807D000204862106848
:105A000001680122114301607047086A064A10428A
:105A1000FAD1086A92101042F6D108684008400096
:105A200008607047800200201111000010B409497D
:105A30000A68136A084C234207D1136AA410234250
:105A400003D113685B085B0013600A68D062C8600A
:105A500010BC7047800200201111000000B500F05A
:105A600013F9002801D0002000BD0148806800BD66
:105A70009C98000800B500F007F9002801D000202C
:105A800000BD0148407900BD9C980008F8B5026847
:105A90000446D0691168936805072D0F2026002D54
:105AA00061D0DD07ED0FFF2721370F402F4374D062
:105AB000C70703D0CF0501D502271762420704D5D7
:105AC000DA0702D0276804223A62820704D5DA078F
:105AD00002D0236802221A6202070827002A05DA88
:105AE0000A4632402A4301D0226817622546803593
:105AF0002A68002A36D0800604D5880602D52046BA
:105B000000F0D2F8206881682A684906C90F120798
:105B100001D400293ED0076220680168FF222132AB
:105B20009143016020688168490849008160E66707
:105B30002068816849061ED5826840218A438260B8
:105B40002046FFF78BFF05462046FFF793FF0646EA
:105B5000206F002801D001F00EF832462946204679
:105B600002F072FDF8BD830617D58B0615D52046C9
:105B700000F09AF8F8BD0168FF220132114301607C
:105B80002068826801210A438260206801683143ED
:105B90006BE002E000202860F8BD2546C3064035D2
:105BA000002B47DACB0645D51020106220688168AB
:105BB000490630D52046FFF751FF00902046FFF7F9
:105BC00059FF074620680168FF22013291430160B6
:105BD0002068816849084900816020688268402106
:105BE0008A438260E667206F00F0A4FF206F0068A0
:105BF00040680004000C08D0298B814205D9081A9E
:105C0000C2B22046009900F063F83A462046009957
:105C100002F01AFDF8BD0168FF2201321143016054
:105C20002068816801221143816020680168314346
:105C30000160F8BD03061AD50B0618D5A06F212800
:105C4000F7D1E06C411CE16400781085688A401E41
:105C50000004000C6882ECD1206801688022914326
:105C6000016020680168402211430160F8BD4006D0
:105C7000FCD54806FAD51168402081431160A6671B
:105C8000204600F047F8F8BD0146064B00201822D8
:105C900042439A588A4204D0401C0006000EF6D0B7
:105CA000FF2070479C98000838B50168898C6A46C7
:105CB00011706D460124FFF7E7FF002805D1034866
:105CC00022460069294602F014FF38BD9C9800085E
:105CD00070B514460D46FFF7D7FF002805D10348DD
:105CE00022460069294602F004FF70BD9C98000816
:105CF00010B5182304465C43054B00281C5902D1FB
:105D0000586902F0F6FE204600F004F810BD0000CD
:105D10009C98000870B50646806F202818D1304640
:105D2000FFF7B2FF002813D10A4D686900F0E8F8C8
:105D300004000DD0A879A04200D2C4B22246E9687E
:105D4000686902F0B0FE22463046E96802F0B0FC15
:105D500070BD00009C980008F0B4FF2400200C4B9C
:105D60000134012520261821414359580A68176833
:105D7000274317600A6897682F43976009680A6885
:105D800032430A60401C0006000EECD0F0BC7047A5
:105D90009C98000810B5024800F011FF10BD0000EB
:105DA000F401002010B5102001F002FA10BD00002F
:105DB000044BC200D018002900D081784170012026
:105DC000985470476C010020FEE7000070B584B065
:105DD00000240D460646039401F0C8F90C4934200E
:105DE000C8600C4803A92818800A02900196009404
:105DF000684601F07DF8044601F026F9002C03D036
:105E00000020C04304B070BD284604B070BD00003F
:105E100000200240FF03000001207047034610B439
:105E20000020002A06D91C780C70401C491C5B1C01
:105E30009042F8D310BC10467047000070B504467D
:105E400001F068FB1A4D0646E868C0070DD0601CDB
:105E500008D0002C04D001F05DFB801BA04201D9CA
:105E6000032070BDE868C007F1D1E868800601D55D
:105E70002020E860E868C00602D4E868400715D52D
:105E8000E9680020CA060B4904D5C86902221043FC
:105E9000C8611020EA68520705D5CA6901231A4370
:105EA000CA6104210843E860012070BD002070BD74
:105EB0000020024050030020F8B517460C46064665
:105EC00001F054F90D493420C8600025002F11D984
:105ED000228800233146012001F0D0F83088218843
:105EE000884202D00020C043F8BDA41CAD1CB61CE3
:105EF000BD42EDD301F0A8F83846F8BD00200240BD
:105F0000002809D010B58188428800888A1A1018A4
:105F1000FFF7FBF988B210BD70470000F8B50446E2
:105F2000006832490026884203D0682130A003F07F
:105F300049FC25462035287D012808D001202875F8
:105F4000206881688907890F012908D101E00220B2
:105F5000F8BD0168C9073FD1C16809043CD4A16BF1
:105F6000FF220132914302221143A163C1688907D4
:105F7000890F0091C16889088900C1602068816823
:105F800092071143816001F0C5FA074620688068D6
:105F9000002816DA01F0BEFAC01B02280DD92068CD
:105FA0008068002809DAA06B022188431021084389
:105FB000A063002028750120F8BD206880680028B3
:105FC000E8DB2068C168009A1143C160A06B8008BB
:105FD0008000401CA06304E0A06B20210843A06364
:105FE0000126002028753046F8BD0000002401403D
:105FF0002E2E2F447269766572732F53544D3332AF
:10600000463078785F48414C5F4472697665722FFC
:106010005372632F73746D3332663078785F6861C2
:106020006C5F6164635F65782E630000F8B50546B8
:1060300000200C4600906F492868884203D06E49C2
:106040006EA003F0BFFB206800280BD00321890558
:10605000884207D00121C905884203D0754967A04D
:1060600003F0B0FB207A002805D0012803D0724944
:1060700062A003F0A7FB2868C168704EC906704F84
:10608000890F02D1E168B1421BD9C168C906890FE5
:10609000012902D1E168B94213D9C168C906890F43
:1060A000022902D1E168FF290BD9C068C006800F20
:1060B000032802D1E0683F2803D962494FA003F0CA
:1060C00081FB2868C168C906890F02D12169B142E4
:1060D0001BD9C168C906890F012902D12169B942BA
:1060E00013D9C168C906890F022902D12169FF2984
:1060F0000BD9C068C006800F032802D120693F2851
:1061000003D951493DA003F05DFB032021688005C0
:10611000814228D16268002A25D0012A23D0022A90
:1061200021D0032A1FD0042A1DD0052A1BD0062AFD
:1061300019D0072A17D0082A15D0092A13D00A2AFD
:1061400011D00B2A0FD00C2A0DD00D2A0BD00E2AFD
:1061500009D00F2A07D0102A05D0112A03D03B49B5
:1061600026A003F02FFB29462031087D012833D0DB
:106170000120087528688268520731D4C268344B00
:106180001A40C2602868C26823681A4323799B06B4
:106190001A43C2602868A289C368C668DB069B0FE1
:1061A0005B009A402369F606B60F7600B340066A94
:1061B000284F3E4006622868066A12041A431643B6
:1061C0000662286880220260207A012828684368D5
:1061D00004D09343436009E00220F8BD1343F9E77C
:1061E000A86B20221043A8630120009000200875AE
:1061F0000098F8BD00240140F90700002E2E2F441E
:106200007269766572732F53544D33324630787805
:106210005F48414C5F4472697665722F5372632FF9
:1062200073746D3332663078785F68616C5F616477
:10623000632E6300FA070000FB070000FF0F000059
:10624000FF030000FE070000FF0700000308000036
:10625000FFFF3F8300F000F0F8B500260C4605462E
:10626000009600686F49884203D06F496FA003F021
:10627000A9FA2268002A25D0012A23D0022A21D097
:10628000032A1FD0042A1DD0052A1BD0062A19D0A4
:10629000072A17D0082A15D0092A13D00A2A11D0A4
:1062A0000B2A0FD00C2A0DD00D2A0BD00E2A09D0A4
:1062B0000F2A07D0102A05D0112A03D069495BA004
:1062C00003F080FA012160680903884206D0491C66
:1062D000884203D0644955A003F074FA0121E86AAA
:1062E0000907884223D0012821D002281FD0032883
:1062F0001DD004281BD0052819D0062817D0072840
:1063000015D0A068884212D0012810D002280ED0E3
:1063100003280CD004280AD0052808D0062806D067
:10632000072804D0EF21C90040A003F04BFA2F4604
:106330002037387D012839D001223A7528688168D4
:10634000490765D4494963688B42816A23784BD0F9
:106350009A40114381620121E86A090788421FD0EF
:1063600001281DD002281BD0032819D0042817D0DB
:10637000052815D0062813D0072811D02868A16851
:1063800042695207520F91420AD04169C908C900B7
:10639000416128684169227A5207520F11434161D5
:1063A0002068102804D0112802D036E00220F8BD61
:1063B0002F498A68102807D00120800502438A608F
:1063C0002068102803D028E00120C005F6E72A48FD
:1063D00028490068FEF78BFF0A21484300901CD033
:1063E000401E0090FCD118E09A40914381622068E1
:1063F000102801D0112810D11D498A68102804D016
:106400000120800582438A6007E00120C005F9E78A
:10641000A86B20210843A863012600203875304668
:10642000F8BD000000240140720700002E2E2F440A
:106430007269766572732F53544D333246307878D3
:106440005F48414C5F4472697665722F5372632FC7
:1064500073746D3332663078785F68616C5F616445
:10646000632E630073070000740700000110000032
:106470000027014040420F00CC00002070477047C9
:106480007047000070B5044600684049884203D058
:106490003F4940A003F096F9A07E002805D00128CE
:1064A00003D04A493BA003F08DF96069042806D067
:1064B000082804D06921090136A003F083F9206877
:1064C0000168490702D54168490705D401680907F1
:1064D00030D5416809072DD5A16BC90604D4A16B3D
:1064E000012252021143A163C1680C250905890FDD
:1064F00000291AD1A17E002917D10168090714D5F6
:10650000816801224907002908DB4168A9434160ED
:10651000A06B110288431043A06306E0A06B20210A
:106520000843A063E06B1043E0632046FFF7A6FF3B
:10653000206805602068016809060DD540680006DE
:106540000AD5A06B012109040843A063204600F08E
:10655000BFF921688020086020680168C90613D54A
:106560004168C90610D5A16A1025012902D0C16869
:10657000C90707D0E16B02221143E16305602046A1
:10658000FFF77EFF2068056070BD00000024014019
:106590008E0600002E2E2F447269766572732F537B
:1065A000544D3332463078785F48414C5F447269CD
:1065B0007665722F5372632F73746D333266307841
:1065C000785F68616C5F6164632E63008F06000012
:1065D000F8B50025044600287ED0AC4920688842E2
:1065E00004D0FF21A331AAA003F0ECF860680028D2
:1065F0000BD001218907884207D04900884204D086
:10660000FF21A431A2A003F0DDF8A06800280AD081
:10661000082808D0102806D0182804D0FF21A5315A
:106620009BA003F0CFF8E068002806D0202804D013
:10663000FF21A63196A003F0C5F82069012806D0F5
:10664000022804D0FF21A73191A003F0BBF8A07E5F
:10665000002806D0012804D0FF21A8318CA003F027
:10666000B1F8E07E002806D0012804D0FF21A9312E
:1066700087A003F0A7F8206A00280FD00121890223
:1066800088420BD04900884208D003218902884201
:1066900004D0FF21AA317EA003F094F8FF27E0691F
:1066A000013700280ED040280CD0C0280AD0B842AC
:1066B00008D00146FF39C23904D0FF21AB3174A0A4
:1066C00003F080F8264620363079002808D00128CB
:1066D00006D0FF21AC3100E02EE06DA003F072F88F
:1066E0006069042806D0082804D0FF21AD3168A0D5
:1066F00003F068F8A06A012806D0002804D0FF2122
:10670000AE3163A003F05EF8207E002806D0012899
:1067100004D0FF21AF315EA003F054F8607E002862
:1067200006D0012804D0FF21B03159A003F04AF867
:10673000A06B002802D007E00120F8BD0020E06334
:106740003075204600F0C6F8A06BC0066FD42068F4
:10675000816849076BD4A16B0222B9431143A1633D
:1067600081688907890F012905D10168C9070FD1FF
:10677000C16809040CD4C16818239943A36819435C
:10678000C160206801696368890089081943016153
:106790002068C1684C4B1940C160207E8103607E37
:1067A000C0030143A07E43031943A36A012B02D017
:1067B00001231B0300E000231943E3681943236905
:1067C000022B09D0002319433379E67E5B0019437D
:1067D0000123012E02D00AE00423F4E7002827D089
:1067E000A06B20263043A063E06B1843E063E069B0
:1067F0000646FF3EC23E02D0266A3043014320686F
:10680000C6680E43C6600126E06A3607B04213D060
:10681000012811D002280FD003280DD004280BD056
:10682000052809D0062807D0072805D010E028E061
:10683000012000040143DAE720684669F608F60003
:10684000466120684669A78D7F077F0F3E434661FA
:106850002068C0681D4E3040884207D10020E063A8
:10686000A06B80088000401CA06308E0A06B102192
:1068700090430843A063E06B1843E063012528467A
:10688000F8BDA06B10210843A063F7E70024014086
:106890002E2E2F447269766572732F53544D333206
:1068A000463078785F48414C5F4472697665722F54
:1068B0005372632F73746D3332663078785F68611A
:1068C0006C5F6164632E63001902FEFFE7FF3F8384
:1068D0007047000070B586B000240546009401940E
:1068E00002940394049400681E49884237D11E48DC
:1068F00081694215114381618169114005914269A5
:10690000012149040A434261406908400590A220E0
:1069100000900320019009206946C00600F054FC55
:10692000134E12487460B46030608020F060400004
:106930003061800070612020F461B061304600F069
:1069400091F9002801D0FFF73FFA2E63002211468B
:106950000C20756200F096FE0C2000F063FE06B07D
:1069600070BD0000002401400010024008000240F9
:10697000F4010020F7B50446006827490025884245
:1069800003D0264926A002F01DFF2068806840073A
:106990003ED426462036307D01280AD0012737759F
:1069A000607E012808D02046FEF7A6FE050003D031
:1069B0002FE0022003B0F0BDA06B27490840FF2163
:1069C00001310843A0630020E0633075216B234848
:1069D0008862216B2248C862216B224808632168C3
:1069E0001C20086020684168102211434160206823
:1069F000C1683943C1602168206B4031029B019A14
:106A000000F0F4F92068816804221143816000E0FD
:106A10000225284603B0F0BD00240140D105000046
:106A20002E2E2F447269766572732F53544D333274
:106A3000463078785F48414C5F4472697665722FC2
:106A40005372632F73746D3332663078785F686188
:106A50006C5F6164632E6300FEF1FFFFF555000873
:106A60007B56000861560008F8B5044600682149C5
:106A7000884203D0204921A002F0A4FE26462036F9
:106A8000307D012807D0012737752046FEF75AFDD3
:106A9000050002D02AE00220F8BD2068C16849083C
:106AA0004900C160206B014620304078022808D19F
:106AB000084600F03FF8050003D0A06B40210843D2
:106AC000A06320684168102291434160002D204658
:106AD00002D0FEF7D7FD09E0FEF7D4FD050005D191
:106AE000A06BFF21013188433843A063002030753B
:106AF0002846F8BD002401402A0600002E2E2F440F
:106B00007269766572732F53544D333246307878FC
:106B10005F48414C5F4472697665722F5372632FF0
:106B200073746D3332663078785F68616C5F61646E
:106B3000632E6300014620314A780023022A04D0E4
:106B4000042282630B700120704730B4026814681D
:106B50000E25AC4314600268146864086400146075
:106B60000125046C2A46C06BA24042604D700B7038
:106B700030BC0020704770B50024014620314A78AF
:106B8000022A03D004218163012416E002681368FD
:106B90000E25AB431360026813685B085B0013604B
:106BA0000125036C2A469A40C36B5A604D7000223F
:106BB0000A70416B002900D08847204670BDF0B4B0
:106BC000C16B0C6801680B680426056C3246AA404C
:106BD000224210D05A070ED50A68920602D40A68DB
:106BE000B2430A60016C8E40C16B4E60C16A0029DD
:106BF00035D1F0BC70470227AF400246274001263E
:106C00002032002F15D09F0713D50B689B0604D4A4
:106C10000B680A24A3430B605670036C0221994051
:106C2000C36B596000211170816A002917D1F0BC33
:106C300070470827AF402742F9D01B07F7D50B68EC
:106C40000E24A3430B60016C33468E40C16B4E6033
:106C50008363537000211170016B0029E7D0F0BCF1
:106C600008470000002801D10120704770B5044694
:106C70000068484988420FD0474988420CD04749AC
:106C8000884209D04649884206D04649884203D006
:106C9000952145A002F096FD6068002809D01028D3
:106CA00007D001218903884203D096213EA002F03B
:106CB00089FDA068402805D0002803D097213AA07C
:106CC00002F080FDE068802805D0002803D09821DC
:106CD00035A002F077FD206900280AD0C11FF939DC
:106CE00007D0C11FFF39FA3903D099212EA002F035
:106CF00069FD606900280AD001218902884206D016
:106D00004900884203D09A2127A002F05BFDA069C8
:106D1000002805D0202803D09B2123A002F052FD9B
:106D2000E06900280ED00121090388420AD04900F9
:106D3000884207D003210903884203D09C211AA06E
:106D400002F040FD02202546203568702068016869
:106D5000234AA3681140626826691A43E3683343F3
:106D60001A4363691A43A3691A43E3691A430A433E
:106D700002601C49206840181421FEF7B8FA800010
:106D800020641948E0630020A06301216970287025
:106D900070BD0000080002401C00024030000240AC
:106DA00044000240580002402E2E2F44726976653E
:106DB00072732F53544D3332463078785F48414CCC
:106DC0005F4472697665722F5372632F73746D33EB
:106DD00032663078785F68616C5F646D612E630045
:106DE0000FC0FFFFF8FFFDBF00000240FFB50F46D8
:106DF000044627490026581E81B01D46884204D308
:106E0000FF214F3123A002F0DDFC20462030017825
:106E100001290AD00121017042780023012A07D0FC
:106E200003700226304605B0F0BD022005B0F0BD6B
:106E300002224270A3632068026852085200026076
:106E4000226C0B469340E26B0398536022685560B6
:106E50006268102A22680AD097602268D060E06ACF
:106E600000282068026806D00E231A430AE09060CA
:106E70002068C760F3E70A231A43026020680268AB
:106E800004239A430260206802680A430260C9E74B
:106E9000FFFF00002E2E2F447269766572732F5308
:106EA000544D3332463078785F48414C5F447269C4
:106EB0007665722F5372632F73746D333266307838
:106EC000785F68616C5F646D612E630070B5044625
:106ED00000F020FB0546601C02D00448007824180E
:106EE00000F018FB401BA042FAD370BDC000002088
:106EF000F3B5044681B0012000903E48017E01298F
:106F00002DD00121017620683B4D3C4E40270028C2
:106F100008D0012826D0A82139A002F053FC20680F
:106F200001281FD01F216068C906401844498842C3
:106F300003D9BE2132A002F045FCA068616880023E
:106F4000401E08183F49884203D9BF212CA002F0F7
:106F500039FC2948FEF772FF002819D044E00220CE
:106F600003B0F0BD2846FEF769FF00283CD1214957
:106F7000C86130690424204330613069384330618E
:106F80002846FEF75BFF00903069A04330612BE09C
:106F900000210298C9430160A06865688002401919
:106FA000A84221D913490020C8613069022738431B
:106FB0003061756130694021084330610E48FEF749
:106FC0003DFF00903069B84330610098002802D03E
:106FD0000298056008E0012080022D18A068616811
:106FE00080024018A842DDD80249002008760098A7
:106FF00003B0F0BD5003002050C300000020024049
:107000002E2E2F447269766572732F53544D33328E
:10701000463078785F48414C5F4472697665722FDC
:107020005372632F73746D3332663078785F6861A2
:107030006C5F666C6173685F65782E6300000000AA
:10704000FFFF0000FFFF0008034801698022114391
:1070500001610020704700000020024010B5054883
:10706000016901225203114301610348FEF7E6FE64
:1070700010BD00000020024050C30000F0B51FB456
:10708000054627480024017E01291CD001260676EA
:10709000012D07D0022D05D0032D03D0B12121A051
:1070A00002F090FB1F210198C90640182C49884224
:1070B00003D9B2211BA002F085FB2A48FEF7BEFED1
:1070C000002803D027E0022005B0F0BD012D02D03A
:1070D000022D00D00425002D1DD9234E01986100FA
:1070E0000F18220103990298FEF76FF80C4A00214D
:1070F000D161316901221143316138801948FEF7AD
:107100009DFE3169490849003161002803D1641CA2
:10711000E4B2AC42E2D3024A0021117605B0F0BDE0
:10712000500300202E2E2F447269766572732F5300
:10713000544D3332463078785F48414C5F44726931
:107140007665722F5372632F73746D3332663078A5
:10715000785F68616C5F666C6173682E6300000025
:10716000FFFF000050C3000000200240064900203D
:107170000A69120607D5054A4A60054A4A60096944
:10718000090600D501207047002002402301674511
:10719000AB89EFCD10280AD110B509201021C00607
:1071A00000F056F9012801D1FEF722FC10BD70470E
:1071B00004494A69024204D010B54861FFF7EAFF6A
:1071C00010BD704700040140F8B5054609200026AF
:1071D000C006894F0C4685420ED0884885420BD0A8
:1071E0008748854208D08748854205D0BD4203D0F4
:1071F000B02185A002F0E6FA20680104090C01D054
:10720000000C03D0B12180A002F0DCFA60680028F5
:1072100025D0012823D0112821D002281FD01228E0
:107220001DD011210904884219D021210904884266
:1072300015D031210904884211D00921490488421E
:107240000DD011214904884209D0192149048842EE
:1072500005D0032803D0B2216BA002F0B3FA206856
:1072600000287DD00120B04027680090074078D0EA
:1072700020798007800F012801D002281CD1E06806
:10728000002807D0012805D0032803D0C2215EA022
:1072900002F098FAA9687000032282409143E268E4
:1072A00082400A43AA606868009988432179C90628
:1072B000C90FB140014369602079C043800713D0F2
:1072C000A068002807D0012805D0022803D0D321C8
:1072D0004DA002F077FAE9687000032282409143E2
:1072E000A26882400A43EA6020798007800F022862
:1072F00021D10920C006854209D04048854206D0E8
:107300003D48854203D0E0213FA002F05BFA2069AE
:10731000062803D9E1213CA002F054FAF0088000CD
:107320004219116A7007C00E0F23834099432369E5
:1073300083400B431362296870000322824091430B
:1073400022799207920F82400A432A606068800384
:10735000800F4AD03B48816901221143816101E0DD
:1073600048E042E08069B10810400090364889004A
:107370000B189968B007000F0F2282409143092231
:10738000D206954201D100220FE01C4A954201D15C
:1073900001220AE01A4A954201D1022205E0194A67
:1073A000954201D1032200E0052282400A439A60FF
:1073B000264908686268B843D20300D5384308609C
:1073C00048686268B843920300D5384348608868CB
:1073D0006268B843D20200D538438860C8686268E2
:1073E000B843920200D53843C8602068761CF0404C
:1073F00000D037E7F8BD0000001400480004004842
:1074000000080048000C00482E2E2F447269766553
:1074100072732F53544D3332463078785F48414C65
:107420005F4472697665722F5372632F73746D3384
:1074300032663078785F68616C5F6770696F2E6361
:107440000000000000100240000001400004014064
:1074500070B50C00054604D1FF21843103A002F071
:10746000B1F92869204000D0012070BD2E2E2F4494
:107470007269766572732F53544D33324630787883
:107480005F48414C5F4472697665722F5372632F77
:1074900073746D3332663078785F68616C5F6770E3
:1074A000696F2E630000000070B515460C0006469B
:1074B00004D1FF21A33108A002F084F9002D08D0E7
:1074C000012D04D0FF21A43103A002F07BF9B461A7
:1074D00070BDB46270BD00002E2E2F4472697665B7
:1074E00072732F53544D3332463078785F48414C95
:1074F0005F4472697665722F5372632F73746D33B4
:1075000032663078785F68616C5F6770696F2E6390
:10751000000000000148806870470000C0000020A3
:10752000024881680278891881607047C000002095
:1075300010B506480168102211430160002000F0D8
:1075400007F800F027F8002010BD000000200240DE
:1075500070B504460D4D7D202978C000FDF7C7FEAB
:1075600001460B480068FDF7C2FE00F017FD002839
:1075700009D1042C07D200222146401E00F082F8D7
:1075800000206C6070BD012070BD0000C0000020B4
:10759000CC000020084881B081690122114381613B
:1075A000816911400091C26901040A43C261C06946
:1075B0000840009001B070470010024010B5040070
:1075C00003D5AB2107A002F0FDF8002C09DBE10692
:1075D000C90E0120884012490860BFF34F8FBFF3E6
:1075E0006F8F10BD2E2E2F447269766572732F53E4
:1075F000544D3332463078785F48414C5F4472696D
:107600007665722F5372632F73746D3332663078E0
:10761000785F68616C5F636F727465782E630000D9
:1076200080E100E010B5040003D59B2105A002F025
:10763000C9F8002C05DBE106C90E0120884010497D
:10764000086010BD2E2E2F447269766572732F5319
:10765000544D3332463078785F48414C5F4472690C
:107660007665722F5372632F73746D333266307880
:10767000785F68616C5F636F727465782E63000079
:1076800000E100E070B50D460446042903D38B21C8
:1076900010A002F097F8A007C00EFF228240A907B1
:1076A000090E8140002C08DBA30819489B0018181C
:1076B000036893430B43036070BD2007000F083835
:1076C000830814489B001818C36993430B43C36194
:1076D00070BD00002E2E2F447269766572732F5391
:1076E000544D3332463078785F48414C5F4472697C
:1076F0007665722F5372632F73746D3332663078F0
:10770000785F68616C5F636F727465782E630000E8
:1077100000E400E000ED00E0002801D10120704706
:10772000F8B5044600680D46C10707D1810705D4A6
:10773000400703D4624963A002F044F8002D05D04D
:10774000012D03D06D495FA002F03CF86C48006841
:10775000C007C00FA8420AD2694801684908490019
:10776000294301600068C007C00FA84274D1206897
:10777000644E810723D5400704D5706807210902AC
:1077800008437060A068002813D0802811D090288A
:107790000FD0A0280DD0B0280BD0C02809D0D028F9
:1077A00007D0E02805D0F02803D0574945A002F0C3
:1077B00009F87068F0218843A16808437060207858
:1077C000C00739D0606800280CD0012825D00228D5
:1077D00027D04E493BA001F0F5FF606801281CD07E
:1077E00002281ED03068800736D57068616880082E
:1077F000800008437060FFF78DFE7168074662687D
:107800000C2001409200914216D0FFF783FEC11B6D
:107810003F48814209D90320F8BD306880031BD559
:10782000E3E73068800117D5DFE770680C21084076
:10783000616889008842E8D131480168C907C90FE9
:10784000A9420BD901684908490029430160006831
:10785000C007C00FA84201D00120F8BD2078400722
:107860001ED5E068002814D001218902884210D07A
:107870000521090288420CD003214902884208D020
:1078800007210902884204D0E12189000DA001F0FE
:1078900099FF7068072109028843E1680843706016
:1078A00000F04CF871681B4A0906090F515CC8408A
:1078B000194908600020FFF74BFE0020F8BD0000CA
:1078C000160300002E2E2F447269766572732F53B3
:1078D000544D3332463078785F48414C5F4472698A
:1078E0007665722F5372632F73746D3332663078FE
:1078F000785F68616C5F7263632E6300170300003A
:107900000020024000100240360300003D0300004A
:107910008813000084980008CC0000200448054922
:1079200000684968044A4905490F515CC8407047DE
:10793000CC000020001002409498000810B514A05C
:107940000FC888B06C460FC415A00FC80FC4184AE2
:1079500053680C20194601401648042916D00829FE
:1079600014D19902090F6C46645CD16A04AA090714
:10797000090F525CD90305D500231946FDF736FCE3
:10798000214601E020460C4901F002FF08B010BD7D
:1079900002030405060708090A0B0C0D0E0F101050
:1079A0000102030405060708090A0B0C0D0E0F104F
:1079B0000010024000127A0000093D00002801D1A9
:1079C00001207047F8B5044600680426F84D0028E9
:1079D0000ED0C1070FD181076CD401077ED44107B7
:1079E0007DD4C0067CD4FF213A31F2A001F0EAFE3A
:1079F0002078C0075BD06068002808D0012806D036
:107A0000052804D0FF214031EAA001F0DBFE6868C0
:107A10000007800F012807D068680007800F022840
:107A200009D16868C00306D5286880033FD560681F
:107A300000287DD03BE0606801281ED0002801D0DE
:107A4000052820D029680120000481432960296885
:107A5000800081432960606800281AD0FFF75AFD32
:107A600007462868800322D4FFF754FDC01B642812
:107A70007ED828688003F7D519E028680121090419
:107A800008432860E7E72868012189040843286043
:107A9000F3E7FFF73FFD07462868800307D5FFF7A8
:107AA00039FDC01B642863D828688003F7D4207888
:107AB000800758D5E068002806D0012804D0FF21AF
:107AC0007431BCA001F07EFE20691F2804D9FF217B
:107AD0007531B8A001F076FE686802E046E07CE00F
:107AE000F4E00007800F07D068680007800F0228C5
:107AF00009D16868C00306D4286880071AD5E068F1
:107B0000012815D116E0E068002828681AD0012164
:107B100008432860FFF7FEFC07462868800709D461
:107B2000FFF7F8FCC01B022822D82868800700E075
:107B30002AE2F5D52868F82188432169C90008435D
:107B4000286010E0400840002860FFF7E3FC07468B
:107B50002868800707D5FFF7DDFCC01B022807D87F
:107B600028688007F7D42078000733D5E06900E063
:107B70008DE000281CD0012807D0FF21B5318DA051
:107B800001F020FEE069002812D0696A012001435B
:107B90006962FFF7BFFC0746686A80071AD4FFF7DF
:107BA000B9FCC01B022872D8686A8007F7D511E0BB
:107BB000686A400840006862FFF7ACFC0746686AE4
:107BC000800707D5FFF7A6FCC01B02285FD8686AAC
:107BD0008007F7D42078400775D5A06800270028D3
:107BE00008D0012806D0052804D0FF21E13171A07A
:107BF00001F0E8FDE869C00008D4E869012109073F
:107C00000843E861E8690840012700907748016867
:107C1000C90516D40068FF21013108437349086083
:107C2000FFF778FC009071480068C00509D4FFF7A1
:107C300071FC0099401A642829D86C480068C00576
:107C4000F5D5A06801280AD0002801D005281FD04A
:107C5000286A400840002862286AB04302E0286A87
:107C6000012108432862A068002815D0FFF752FCC4
:107C70000090286A80071FD4FFF74CFC0099411A36
:107C80005B48814274D8286A8007F5D514E06FE01C
:107C9000286A30432862E2E7FFF73CFC0090286A3C
:107CA000800709D5FFF736FC0099411A50488142F8
:107CB0005ED8286A8007F5D4002F04D0E869012136
:107CC00009078843E8612078C0062BD56069002841
:107CD00007D0012805D0401D03D0464935A001F04A
:107CE00071FDA0691F2803D9434932A001F06AFD44
:107CF000606901283ED0401D686B58D030436863EE
:107D0000686B400840006863FFF704FC0646686B38
:107D1000800707D5FFF7FEFB801B022828D8686B79
:107D20008007F7D4206A00286AD0012808D00228EA
:107D300006D032491FA001F045FD206A00285FD01F
:107D400068680007800F0228206A7DD001273F065F
:107D5000022859D02868B8432860FFF7DBFB0446A7
:107D6000286880014CD5FFF7D5FB001B02286CD991
:107D70000320F8BD686B30436863686B01210843DA
:107D80006863FFF7C7FB0646686B800707D4FFF7F9
:107D9000C1FB801B0228EBD8686B8007F7D5686BA6
:107DA000F8218843A169C90008436863BAE728E05D
:107DB000001002402E2E2F447269766572732F5385
:107DC000544D3332463078785F48414C5F44726995
:107DD0007665722F5372632F73746D333266307809
:107DE000785F68616C5F7263632E630000700040AF
:107DF0008813000026020000270200009A020000FB
:107E0000C4E0B0436863CAE7606A002807D0012174
:107E10000904884203D05E495E4801F0D3FCA06AA1
:107E200000283ED00121890488423AD04900884286
:107E300037D003218904884233D0012109058842C3
:107E40002FD00521890401E088E082E0884228D013
:107E50000321C904884224D007218904884220D004
:107E60000121490588421CD009218904884218D083
:107E70000521C904884214D00B218904884210D0FE
:107E80000321090588420CD00D218904884208D0BD
:107E90000721C904884204D0A92189003D4801F086
:107EA00091FCE06A002821D001281FD002281DD0B3
:107EB00003281BD0042819D0052817D0062815D070
:107EC000072813D0082811D009280FD00A280DD070
:107ED0000B280BD00C2809D00D2807D00E2805D070
:107EE0000F2803D02C492B4801F06CFC2868B843BC
:107EF0002860FFF70FFB06462868800108D5FFF7CA
:107F000009FB801B022800D932E728688001F6D4DB
:107F1000E86AE16A000900010843E862616AA06A50
:107F2000084369683D221204914308436860286849
:107F300038432860FFF7EEFA04462868800125D40C
:107F4000FFF7E8FA001B0228DED828688001F7D581
:107F50001CE02868800100D505E717E0012800D162
:107F600007E76868E96A01221204636A02409A42DC
:107F70000AD10907E26A090F914205D10F2189044C
:107F80000840A16A884201D00120F8BD0020F8BD58
:107F9000A3020000B47D0008A50200000B4910B444
:107FA000401E884202D910BC012070470849486130
:107FB00008480722C3691B021B0A4C042343C36100
:107FC000002088610A6110BC70470000FFFFFF00BD
:107FD00000E000E004ED00E070477047002801D1A8
:107FE0000120704770B5044600683049884216D0B9
:107FF0002F49884213D02F49884210D02E498842F9
:108000000DD02E4988420AD02D49884207D02D49EB
:10801000884204D0FF2114312BA001F0D3FBA068CB
:1080200000280CD010280AD0202808D0402806D0DC
:10803000602804D0FF21153123A001F0C3FB206983
:1080400000280BD0C11FF93908D0C11FFF39FA39F8
:1080500004D0FF2116311CA001F0B4FBA069002858
:1080600006D0802804D0FF21173117A001F0AAFB09
:1080700025462035687F002803D12877204600F068
:108080003FF802206877211D206800F0E7FD0120FD
:108090004034A071A877E87720706070A070E0701D
:1080A000207160716877002070BD0000002C0140D5
:1080B000000400400010004000200040004001404B
:1080C00000440140004801402E2E2F44726976651D
:1080D00072732F53544D3332463078785F48414C99
:1080E0005F4472697665722F5372632F73746D33B8
:1080F00032663078785F68616C5F74696D2E6300FA
:1081000008B50068124A134990420DD1CA6910207F
:108110000243CA61C9690022014000911146112041
:10812000FFF7B0FA11200FE00B4A90420ED1CA6956
:1081300080150243CA61C9690022014000911146BD
:108140001320FFF79FFA1320FFF76CFA08BD000019
:10815000001000400010024000200040F8B5074623
:1081600000681C4C1C4D1D4EA04214D0A84212D0D9
:108170001B4988420FD01B4988420CD0B0420AD01C
:108180001949884207D01949884204D0FF21D031CB
:1081900017A001F017FB38462030417F012901D09C
:1081A0000120F8BD022141773868C26801210A43E5
:1081B000C2603868A04203D0A84201D0B04204D1C6
:1081C00082685207520F062A02D002680A430260F0
:1081D0000020F8BD002C0140000400400040014098
:1081E00000100040002000400044014000480140D1
:1081F0002E2E2F447269766572732F53544D33328D
:10820000463078785F48414C5F4472697665722FDA
:108210005372632F73746D3332663078785F6861A0
:108220006C5F74696D2E6300704770B5044600681A
:1082300001690025C9438907002915DBC168C943C5
:10824000890711D4E91E0161012020772068806927
:108250008007204602D0FFF7E7FF04E000F096F821
:10826000204600F03CF9257720680169C943490799
:1082700017D4C168C943490713D40421C943016114
:1082800002202077206880698005800F204602D078
:10829000FFF7CAFF04E000F079F8204600F01FF96C
:1082A000257720680169C943090716D4C168C94305
:1082B000090712D40821C9430161042020772068EE
:1082C000C0698007204602D0FFF7AEFF04E000F04F
:1082D0005DF8204600F003F9257720680169C9435D
:1082E000C90617D4C168C943C90613D41021C943AC
:1082F0000161082020772068C0698005800F204632
:1083000002D0FFF791FF04E000F040F8204600F0B3
:10831000E6F8257720680169C943C90708D1C16813
:10832000C943C90704D1891E0161204600F0D8F86D
:1083300020680169C943090609D4C168C94309060F
:1083400005D48021C94301612046FFF745FE20681E
:108350000169C943490609D4C168C943490605D41E
:108360004021C9430161204600F0C4F8206801693A
:10837000C943890609D4C168C943890605D42021A7
:10838000C94301612046FFF728FE70BD7047000019
:10839000002801D10120704770B50E4604460068E0
:1083A0003449884215D03449884212D03349884232
:1083B0000FD0334988420CD03249884209D0324923
:1083C000884206D03149884203D0314931A001F0BA
:1083D000F9F9A06800280BD0102809D0202807D070
:1083E000402805D0602803D038492AA001F0EAF9D6
:1083F000206900280AD0C11FF93907D0C11FFF39F1
:10840000FA3903D0324923A001F0DCF9082E05D057
:10841000002E03D02F491FA001F0D4F9A069002835
:1084200005D0802803D02C491AA001F0CBF92546AD
:108430002035687F002803D12877204600F04EF8C9
:1084400002206877211D206800F008FC2068016880
:1084500008229143016020680168314301600120D6
:108460004034A071A877E877A070E07068770020AA
:1084700070BD0000002C01400004004000100040CE
:1084800000200040004001400044014000480140FD
:10849000470A00002E2E2F447269766572732F539F
:1084A000544D3332463078785F48414C5F447269AE
:1084B0007665722F5372632F73746D333266307822
:1084C000785F68616C5F74696D2E6300480A000014
:1084D000490A00004A0A00004B0A00007047704732
:1084E00010B500680249884201D100F0B1FC10BD0E
:1084F000001000407047704770470000002801D10D
:108500000120704710B50446806923490028234A9A
:10851000206809D0884210D090420ED0FF212D3122
:108520001FA001F04FF908E0884206D0904204D025
:10853000FF2132311AA001F045F9A06F002805D1C2
:10854000002174200155204600F048F82420A0673F
:1085500020680168490849000160204600F0A8FE33
:10856000012818D0606A002802D0204600F0B4FC30
:10857000206841680122D2029143416020688168ED
:108580000822914381602068016801221143016043
:10859000204600F0A3FD10BD00380140004400401B
:1085A0002E2E2F447269766572732F53544D3332D9
:1085B000463078785F48414C5F4472697665722F27
:1085C0005372632F73746D3332663078785F6861ED
:1085D0006C5F756172742E630000000000B587B097
:1085E00000210091019102910391049100681449C6
:1085F000884223D11348C269012149040A43C26158
:10860000C2690A40059242690A43426140690840D2
:1086100005900C200090022001900320039001207F
:10862000049009206946C006FEF7CEFD00221146DF
:108630001C20FFF727F81C20FEF7F4FF07B000BD51
:10864000004400400010024070B5C36F202B2BD1B6
:1086500000290BD0002A09D0012483682403A342F7
:1086600006D10369002B03D1CB0701D0012070BDD7
:10867000034660331C7D012C16D001241C75002399
:10868000036603685C6824020BD5EFF310840125B0
:1086900085F310881D680126B60635431D6084F3F6
:1086A000108800F037FF70BD022070BD7047704722
:1086B00070B4836F202B3AD100290AD0002A08D049
:1086C0008468DD01AC4207D10369002B04D1CB07DC
:1086D00002D070BC01207047034660331E7D012E1E
:1086E00025D001261E75C164014640310A824A82A6
:1086F000002180228166115021228267AC4202D182
:108700000269002A11D00B4A82661975EFF31081B5
:10871000012282F310880068026880231A430260F5
:1087200081F3108870BC00207047034AECE770BCEE
:10873000022070472B960008C9950008FEE700004C
:1087400070B588B000240094019402942A480394E0
:10875000049405940694079444608460012505619F
:108760002449C4600160042141610576457685761F
:10877000C476FF21C2310462C16120490D71846257
:10878000FDF726FF002801D0FDF71EFB01200003A6
:1087900001900095694602951748FDF75DFD002898
:1087A00001D0FDF711FB0526694613480096FDF739
:1087B00053FD002801D0FDF707FB07200090694614
:1087C0000D48FDF749FD002801D0FDF7FDFA032013
:1087D000800503900496684605750948069003A92C
:1087E00007940548FDF722FC002801D0FDF7ECFABC
:1087F00008B070BD00240140B4010020D401002065
:10880000FF0F000008B5084841690122114341618A
:10881000406910400022009011460920FEF732FF07
:108820000920FEF7FFFE08BD00100240F0B587B03A
:1088300000253548009501950295039504954269F8
:108840000121C9040A43426142690A400592426912
:10885000C9000A43426142690A40059242694911CE
:108860000A43426142690A400592426949000A434B
:108870004261406909270840FF0605900022402117
:108880003846FEF711FE0720400303240090694696
:10889000029501941D48FEF797FC1D48009069461B
:1088A000029501943846FEF78FFC1020009031208D
:1088B000000401260190694602963846FEF784FCC2
:1088C0004020009002956946019603953846FEF7D0
:1088D0007BFC104800906946029501940E48FEF713
:1088E00073FCC02000906946029501940B48FEF786
:1088F0006BFC002211460720FEF7C4FE0720FEF79E
:1089000091FE07B0F0BD00000010024000080048D2
:10891000019F0000FFFF0000000400480014004811
:1089200010B50F480D49016000220E498260416078
:108930007D21C9000261C16080218161FFF74EFB8A
:10894000002801D0FDF740FA08210548FFF720FD77
:10895000002801D0FDF738FA10BD000000200040CB
:10896000800200207FBB000010B50A480849016062
:1089700009494160002181603121C160802181610C
:10898000FFF72CFB002801D0FDF71EFA10BD0000F8
:108990000010004038020020BF12000010B50E4841
:1089A0000C490160E1214902416000218160C16000
:1089B000016181610C22C161426101621021416249
:1089C00009028163FFF79AFD002801D0FDF7FCF949
:1089D00010BD000000440040C8020020F8B5FEF7BA
:1089E00099FD06460024264D264F3DE001226946AA
:1089F000386900F058F824494878002806D0012842
:108A00000AD0022811D003282ED119E06846007838
:108A1000A52829D1012004E0684600785A2802D10F
:108A20000220487020E04C701EE068460278002A60
:108A3000F9D088782A54401C88700320487013E0CD
:108A40002A78887882420AD1684601780E4882786E
:108A5000A954447084700A48FCF704FFF8BD6A46C4
:108A600012782A54401C8870386900F012F80028E7
:108A7000F4D1FEF74FFD801B6428B7D3F8BD00008A
:108A8000F00400209C9800082001002070477047E7
:108A90007047002804D001884088814201D101201C
:108AA000704700207047F8B5002516460F4604466B
:108AB00000281CD0A18860882288081A8018FCF73A
:108AC00024FC88B2864200D90646002E0DD9618862
:108AD000A068405C78556088A188401CFCF707FCC2
:108AE0006D1CADB26180B542F1D32846F8BD0020BF
:108AF000F8BDF7B504460025681E1646002C20D0A8
:108B0000A788B7421DD960882188381A401839468D
:108B1000FCF7FBFB781A80B2864200D90646002E8D
:108B20000ED901982288A168405D88542088A188C8
:108B3000401CFCF7DCFB6D1CADB22180B542F0D3CC
:108B4000284603B0F0BD704710B500210620FDF7A0
:108B50002FF910BDF0B589B000250E9C0095019548
:108B60000295039504950595069507956D46A526EE
:108B70002E705A266E705E002F46832908D0F61C90
:108B8000BE70E97028716A710622832902D003E061
:108B9000361DF5E7AB7107220021002B0DD94E00E1
:108BA000A75B491C3F0AAF54521CD2B2A65DAE541B
:108BB000521CC9B2D2B29942F1D3602802D000202F
:108BC00009B0F0BD00202946FDF792F8012009B058
:108BD000F0BD10B5FEF7A4FC10BD30B591B0002477
:108BE00011200F94009001200B940190059010200B
:108BF000049406900E9400030990029403940001DB
:108C000007940D9402250A900C9408956846FEF787
:108C1000D5FE002800D0FEE707200C90012080023E
:108C20000F900D950E9401210CA8FEF775FD0028FC
:108C300000D0FEE711B030BD7047000010B502480B
:108C4000FFF7F3FA10BD00008002002010B50248C3
:108C5000FFF7EBFA10BD000038020020F0B4026804
:108C60001A4B1B4C984201D0A04203D17025AA4355
:108C70004D682A43174D184E184F98420AD0A0420B
:108C800008D0174CA04205D0A84203D0B04201D072
:108C9000B84204D103242402A243CC682243802496
:108CA000A2434C69224302608A68C2620A688262F7
:108CB000984205D0A84203D0B04201D0B84201D1B9
:108CC0000969016301214161F0BC7047002C01403A
:108CD00000040040004001400044014000480140C1
:108CE0000020004070B5074D00242878844208D247
:108CF000054EA00030588047641C2878E4B28442B6
:108D0000F7D370BD2001002024010020F8B50C4FDE
:108D100000247878844211D20A4EE00085196978DF
:108D2000002906D1305C012803D168688047A87803
:108D30006870641C7878E4B28442EED3F8BD000019
:108D4000280100206C01002030B5002483B0114AB6
:108D500001A904232046019415780D70401C491C7C
:108D6000521C9842F8D3002001AB19181A5C4D78B8
:108D70001D54801CC0B24A700428F6D3009302230D
:108D8000FD2282216020FFF7E5FE0348047203B054
:108D900030BD0000FC4F00088C01002000B583B0FE
:108DA000FCF70CFD6946888001A800900123002291
:108DB00082216020FFF7CEFE02490020087003B038
:108DC00000BD00006C01002010B57D20C000FEF742
:108DD0007DF8FEF743F910BD7047000010B582B072
:108DE000002469468C800748C88001A800900223AF
:108DF000FE2282216020FFF7ADFE0348047402B01A
:108E000010BD0000102700008C01002010B50D4C93
:108E10000D49607882B080000858804721786078DA
:108E2000401CFCF764FA617008486946888001A814
:108E300000900123FE2282214020FFF78BFE02B02A
:108E400010BD0000AC010020B00100201027000080
:108E50000A4B0020197888420FD210B4084CC10088
:108E60000A195178002901D0491E5170401C197807
:108E7000C0B28842F3D310BC704770470401002091
:108E80000801002070B50C4C0C4D6078C0004119F1
:108E90004A78002A09D1285C012806D14868804711
:108EA0006078C00040198178417021786078401C5A
:108EB000FCF71DFA617070BD04010020080100205C
:108EC00010B58079002800D00120FCF7C3FC0021F8
:108ED0000846FCF76DFF10BD70B50446406AFF28D8
:108EE00004D9C721090164A000F06CFCA08CC00764
:108EF00010D00125A06A6D04002805D0A84203D037
:108F00006C495DA000F05EFC20684168A26AA9433C
:108F100011434160A08C800710D50125E06A2D0423
:108F2000002805D0A84203D0634953A000F04AFCB2
:108F300020684168E26AA94311434160A08C400760
:108F400010D50125206BAD04002805D0A84203D020
:108F50005A4949A000F036FC20684168226BA943B9
:108F600011434160A08C000710D50125606BED0313
:108F7000002805D0A84203D051493FA000F022FCB0
:108F800020684168626BA94311434160A08CC00610
:108F900010D50125A06B2D03002805D0A84203D0D1
:108FA000484935A000F00EFC20688168A26BA943F7
:108FB00011438160A08C800610D50125E06B6D0304
:108FC000002805D0A84203D03F492BA000F0FAFBAF
:108FD00020688168E26BA94311438160A08C400640
:108FE00034D53A492068884203D0394922A000F09C
:108FF000E9FB0125206C2D05002806D0A84204D0ED
:10900000652149011CA000F0DDFB20684168226C4D
:10901000A94311434160206CA84217D10325606C1D
:109020006D0500280CD001214905884208D049006F
:10903000884205D0A84203D026490FA000F0C2FB09
:1090400020684168626CA94311434160A08C00060E
:1090500010D50125A06CED04002805D0A84203D04E
:109060001D4905A000F0AEFB20684168A26CA94331
:109070001143416070BD00002E2E2F447269766549
:1090800072732F53544D3332463078785F48414CD9
:109090005F4472697665722F5372632F73746D33F8
:1090A00032663078785F68616C5F756172742E63C8
:1090B00000000000750C00007C0C0000830C000018
:1090C0008A0C0000910C0000980C00000038014050
:1090D0009F0C0000A50C0000AD0C0000F8B5044684
:1090E000002580300560FEF715FA07462068006805
:1090F000124E000709D501213B46002249052046B2
:10910000009600F0C1FA00280DD1206800684007E1
:109110000BD501213B46002289052046009600F030
:10912000B3FA002801D00320F8BD2020A067E06733
:109130002566603425750020F8BD0000FFFFFF01A3
:1091400070B5446AA06FE26F216889680023090640
:10915000002911DA21280FD152200353EFF3108197
:10916000012080F3108820680568C026B54305609B
:1091700081F310882020A06720688068400606D50B
:10918000222A04D15A200353204600F061F82046D9
:10919000803001681022114301602046FFF7ACF9CE
:1091A00070BD10B501468969406A202937D0002278
:1091B0005A210A52EFF31082012181F310880168CD
:1091C0000B68FF240134A3430B6082F31088EFF394
:1091D0001082012181F3108801688B685B085B00B5
:1091E0008B6082F31088EFF31082012181F31088E5
:1091F00001688B684024A3438B6082F31088202190
:10920000C167016E01290AD1EFF3108281F3108842
:1092100001680B681024A3430B6082F31088016E71
:10922000012902D0FFF742FA10BD5821095AFFF771
:1092300062F910BD10B5406A016E012902D0FFF736
:1092400036FA10BD5821095A4908FFF754F910BDE4
:1092500010B4EFF31082012181F3108801680B68CC
:10926000FF242134A3430B6082F31088EFF31082B4
:10927000012181F3108801688B685B085B008B60BB
:1092800082F31088016E01290AD1EFF3108281F375
:10929000108801680B681024A3430B6082F31088C8
:1092A0002021C16700210166416610BC70470000A3
:1092B000F8B50446406879490025884203D37849C7
:1092C00078A000F07FFA0126A0683603002805D0B8
:1092D000B04203D0824973A000F074FA0327E0681B
:1092E0003F03B0420BD0002809D0B84207D001217B
:1092F0004903884203D07B496AA000F063FA206AE0
:10930000002808D00121C902884204D0BF210901E8
:1093100064A000F057FA206900280BD001218902CF
:10932000884207D003214902884203D06E495DA0DC
:1093300000F048FA60690C220146914301D10028EF
:1093400003D16A4957A000F03DFAA06900280ED069
:10935000C11FF9390BD0C11FFF39FA3907D00321DA
:109360000902884203D062494EA000F02BFA012680
:10937000E069F603002805D0B04203D05D4949A05A
:1093800000F020FAA1682069E26901436069104396
:10939000014320680268584B1A400A430260206863
:1093A0004168E268B94311434160216AA069014301
:1093B000206882680B231B029A430A4382604F494C
:1093C0002068884210D14E48006B8007800F11D072
:1093D000012805D0022805D003280AD1022009E07F
:1093E000042007E0082005E04649884201D100201A
:1093F00000E01020E2694449444FB24226D10028DF
:1094000006D0022807D0042807D008283AD11BE04C
:10941000FEF784FA03E0084603E0FEF78FFA00281F
:1094200036D0616840004A088018FBF760FF80B2C0
:1094300001461039B94225D8354901400007420F8D
:1094400020680A43C26023E03046EAE7002806D0DD
:10945000022807D0042807D0082813D114E0FEF70B
:109460005DFA03E0084603E0FEF768FA00280FD033
:1094700061684A081018FBF73AFF80B201461039BC
:10948000B94203D9012503E03046F1E72168C860FD
:1094900000206066A0662846F8BD0000818D5B0054
:1094A000ED0B00002E2E2F447269766572732F53D8
:1094B000544D3332463078785F48414C5F4472698E
:1094C0007665722F5372632F73746D333266307802
:1094D000785F68616C5F756172742E6300000000D4
:1094E000EE0B0000EF0B0000F20B0000F30B00008E
:1094F000F40B0000F50B0000F369FFFF003801409A
:10950000001002400044004000127A00EFFF00000B
:10951000F0FF0000F8B504464165403000272646BC
:109520000283803637602220E0672546206F603551
:1095300000281BD021498162216F2148C862216F18
:1095400020480863206F13464763606D2168844696
:1095500062462431206FFDF749FC002806D0102018
:1095600030602F752020E0670120F8BD2F75EFF3E4
:109570001081012080F3108820680268FF230133E6
:109580001A43026081F31088EFF31081012080F309
:1095900010882068836801221343836081F3108858
:1095A000EFF3108182F310882068826840231A4309
:1095B000826081F310880020F8BD0000A3910008AC
:1095C000359200084191000810B4816F212910D113
:1095D000014640314A8A002A0DD0C26C03681288C5
:1095E000D205D20D1A85C26C921CC264488A401EF4
:1095F000488210BC7047EFF31082012181F310887C
:1096000001680B688024A3430B6082F31088EFF39A
:109610001081012282F310880068026840231A43F7
:10962000026081F3108810BC704710B4816F21294B
:109630000ED1014640314A8A002A0BD0C26C036821
:1096400012781A85C26C521CC264488A401E488235
:1096500010BC7047EFF31082012181F3108801687C
:109660000B688024A3430B6082F31088EFF3108112
:10967000012282F310880068026840231A430260C6
:1096800081F3108810BC7047FFB50446006881B0B4
:109690000E460A9DC1691746304688433FD00020D8
:1096A000B84268D1204660300090681C5BD0FDF75E
:1096B00031FF0499401AA84233D8002D31D02068D8
:1096C000016849074FD5C069C04300054BD401204C
:1096D0002168C0020862EFF31081012080F3108836
:1096E00020680268FF23A1339A43026081F3108847
:1096F000EFF31081012080F31088206882685208FF
:109700005200826081F310882020A067E0678034D7
:109710002060009900200875032005B0F0BD0120ED
:10972000BEE7EFF31081012080F310882068026803
:10973000FF23A1339A43026081F31088EFF3108175
:10974000012080F3108820688268520852008260ED
:1097500081F310882020A067E06700990020087539
:10976000032005B0F0BD2068C1693046884305D0AC
:109770000020B84299D0002005B0F0BD0120F8E7E4
:1097800010B50248FCF782F910BD0000C8020020A5
:10979000F0B4040C8BB2264682B25E430D0C104628
:1097A000370C5843360480190021794116466E4320
:1097B000370C36048019794126466E438919F0BC6E
:1097C00070477047FEE70000012082B0C0222849A0
:1097D0004007FBF7C1FC2748016889088900016040
:1097E0000168032211430160FDF7A2FEFFF7F5F9BE
:1097F000FFF71CF8FFF706F8FFF7B6F8FFF7CEF80B
:10980000FEF79EFFFFF78CF8002211460420FDF7BB
:1098100039FF0420FDF706FF174C01226946204658
:10982000FCF7FCFA68460178A5290CD0A521017047
:10983000FCF7F2FA01212046FCF7C8FA012269463A
:109840002046FCF739FBFCF789F8FBF7B3FF0B4820
:10985000FEF784FC0A4801210268C94311610068CF
:10986000C16801221143C160FFF70CFBFCE7000057
:10987000005000080000014000FC000838020020F1
:10988000800200200000000000000000010203042C
:10989000060708090000000001020304C8020020B6
:1098A000000080000000000070040020D0000020B4
:1098B000DC000020D4980008C0000020F400000064
:1098C000F8500008C8990008B4010020AC1000004E
:1098D0001451000801000000040000000000000016
:1098E00000127A00000000008000000070030020D9
:1098F0000000000080000000F003002000000000D5
:109900000000FF010000FFFFFFFF0000FFFF00005D
:1099100000000000000000000300000001C8C800B3
:109920000D8E000801000000E58C00080100010018
:109930000D8D000801000000DD8900080808000006
:1099400083000000C18E0008832B00000958000826
:10995000832C000015580008832E00003958000899
:1099600083FC0000C558000883FD0000AD580008C6
:1099700083FE00000159000883FF0000B958000869
:10998000000001009D8D00080000010091570008B3
:10999000000001009D57000800000100A9570008C1
:1099A00000000100D98D000800000100498D000869
:1099B00000000100DD8D000800000100C98D0008D5
:0899C00001000000498B0008C2
:04000005080050B5EA
:00000001FF
